:020000040800F2
:100000006808002075010008991A000821190008E5
:1000100000000000000000000000000000000000E0
:100020000000000000000000000000009D1A000811
:1000300000000000000000009B1A00089F1A000842
:10004000A5010008A5010008A5010008A5010008F8
:10005000A5010008950D0008A5010008A50D0008E0
:10006000A5010008A5010008A5010008A5010008D8
:10007000A5010008A5010008A5010008A5010008C8
:10008000A50100080000000000000000A501000814
:1000900000000000A5010008A5010008A501000856
:1000A00000000000A5010008A5010008A501000846
:1000B000A501000800000000A5010008A501000836
:1000C00000F002F800F046F80CA030C808382418F8
:1000D0002D18A246671EAB4654465D46AC4201D180
:1000E00000F038F87E460F3E0FCCB646012633426C
:1000F00000D0FB1AA246AB4633431847B81E000097
:10010000D81E0000103A02D378C878C1FAD8520736
:1001100001D330C830C101D504680C6070470000BD
:100120000023002400250026103A01D378C1FBD813
:10013000520700D330C100D50B6070471FB500983F
:10014000019900F0FAFB00F0DFF91FBD10B500F0D7
:1001500047FA10BD00F0A9FA1146FFF7EFFF01F0D2
:10016000E5FE00F0B9FB03B4FFF7F0FF03BC00F0BD
:1001700077FD00000F4880F308880F480168090EDA
:100180000E4A914205D10E480E4901600E480F49B2
:1001900001600F4880470F480047FEE7FEE7FEE793
:1001A000FEE7FEE7FEE700000B480C490C4A0D4B4A
:1001B0007047000068080020040000001F000000D5
:1001C0001810024001000000000001400000000083
:1001D000F51A0008C1000008680200206808002025
:1001E0006804002068040020FEB5054610460C4651
:1001F000184373D0AE468C460020AD1A01469C4190
:1002000067D36646002701243D46B61A9D4102D3B6
:1002100013463A462124654676462F04360C3E4363
:100220002D0CB61A9D4104D3150C1B042B4312044C
:100230001034654676462F06360A3E432D0AB61A16
:100240009D4104D3150E1B022B4312020834654650
:1002500076462F0736093E432D09B61A9D4104D331
:10026000150F1B012B431201241D65467646AF076F
:10027000B6083E43AD08B61A9D4104D3950F9B00C6
:100280002B439200A41C65467646EF0776083E4352
:100290006D08B61A9D411AD392185B41641C16E092
:1002A0000018764665464941B71A9D410191009074
:1002B00009D36046B11A98418E4684460098019948
:1002C0000025401C6941DD0752082A435B08641E73
:1002D000E6D57246634603B0F0BDFFE70020014655
:1002E000C046C0462A462346F5E700000FB405493C
:1002F00010B503AA029800F0D7F810BC08BC04B0EF
:10030000184700005C01002001E004C0091F042917
:10031000FBD28B0701D50280801CC90700D0027078
:10032000704700290BD0C30702D00270401C491E41
:10033000022904D3830702D50280801C891EE3E7CB
:100340000022EEE70022DFE7002203098B422CD3D4
:10035000030A8B4211D300239C464EE003460B4315
:100360003CD4002243088B4231D303098B421CD377
:10037000030A8B4201D394463FE0C3098B4201D369
:10038000CB01C01A524183098B4201D38B01C01AA1
:10039000524143098B4201D34B01C01A5241030918
:1003A0008B4201D30B01C01A5241C3088B4201D3C7
:1003B000CB00C01A524183088B4201D38B00C01A74
:1003C000524143088B4201D34B00C01A5241411A9B
:1003D00000D201465241104670475DE0CA0F00D07E
:1003E0004942031000D34042534000229C46030977
:1003F0008B422DD3030A8B4212D3FC22890112BAFD
:10040000030A8B420CD3890192118B4208D38901D4
:1004100092118B4204D389013AD0921100E08909EC
:10042000C3098B4201D3CB01C01A524183098B42CD
:1004300001D38B01C01A524143098B4201D34B01B6
:10044000C01A524103098B4201D30B01C01A524119
:10045000C3088B4201D3CB00C01A524183088B42A0
:1004600001D38B00C01A5241D9D243088B4201D329
:100470004B00C01A5241411A00D201466346524114
:100480005B10104601D34042002B00D54942704713
:1004900063465B1000D3404201B50020C046C04611
:1004A00002BD704770477047084B70B50D467B44DE
:1004B00000F013F80446284600F022F8002802D085
:1004C0000020C04370BD204670BD0000631A0000CC
:1004D00001694A1C02610878704700B58FB002912B
:1004E0000021059105490193794403911146049037
:1004F000684600F01FF90FB000BD0000E5FFFFFFE8
:10050000C06880210840704710B543485421FFF768
:1005100019FF42485421FFF715FF41485421FFF7C6
:1005200011FF40483C493D4B404A01603E48036052
:100530003B4810605A1C0A65411C19650121016580
:100540003C48354A3AA1784400F02CF9002804D1FF
:10055000384878440C3800F0C7F938482F4A36A19B
:10056000784400F01FF9002804D1344878440C384E
:1005700000F0BAF932482A4A2FA1784400F012F963
:10058000002804D12E4878440C3800F0ADF94023FF
:100590002148DC000021224600F0DEF8002804D0CB
:1005A000244878445C3800F09FF91C4822464023D8
:1005B000002100F0D1F8002804D0204878445C38AD
:1005C00000F092F9164822461023002100F0C4F8EA
:1005D000002804D01A4878445C3800F085F910BD32
:1005E0000F4870B5006D44080B48640000F04EF9E8
:1005F0000A4800F04BF90A4800F048F909E0206D7C
:10060000450820466D0000F041F9204600F06CF8E6
:100610002C46002CF3D170BD080100205C010020A5
:10062000B00100201000002014000020180000205D
:10063000720000005E1A000077000000481A0000F7
:10064000321A00000EB50191009000F0E7FA029016
:1006500069460120ABBE0EBD08B569460090022078
:10066000ABBE08BD1FB56B4607C369460520ABBED0
:1006700004B010BD1FB56C460FC469460620ABBE62
:10068000F6E708B5694600900920ABBE08BD1CB569
:1006900000900A2001916946ABBE1CBD704708B5A9
:1006A000694600900C20ABBE08BD754600F022F9EB
:1006B000AE46050069465346C008C000854618B0DE
:1006C00020B5FFF771FD60BC00274908B64600263B
:1006D000C0C5C0C5C0C5C0C5C0C5C0C5C0C5C0C5F2
:1006E000403D49008D46704770B50446051F00F037
:1006F00007F90068002C1AD0446801E020466468BD
:10070000002C01D0AC42F9D301680A18AA4204D1E6
:100710002A6805468918016000E04560286841198B
:10072000A14205D16168696021684018286070BDE8
:100730006C6070BDF8B5064600244768806800907C
:100740003046F56803E00099B847641C3046A84776
:100750000028F8D12046F8BD70B5C468A50713D0AD
:10076000650211D4D51FF93D0AD0FF3D6D1E07D09B
:10077000FF3DFF3D022D07D101462431012305E055
:10078000074E5D1EB54201D3012070BD0161C361FA
:1007900041600F2109028C431443C460002070BDE6
:1007A000FFFFFF00F7B516460C46104600F06EF846
:1007B0002078611C61280AD0722802D0772839D1AC
:1007C00002E00125002404E00225042401E02D4D6F
:1007D00008240222032301270878491C2B2806D06D
:1007E000622807D02039C87F742807D008E01D434D
:1007F0001443F1E7042005433C43EDE71020044394
:1008000000982146FFF71EFF411C13D000213161E3
:1008100071600121F5604902F1617061200704D522
:1008200030460222002100F0E7F8306D3843306591
:100830003046FEBD0020FEBDF8B50D460646124C02
:10084000206DC10704D0410804D044086400F7E7D4
:10085000224610E0542000F09DF8070010D07908DF
:10086000206D490001221143084354212065384678
:10087000FFF768FD3A4629463046FFF793FFF8BD7B
:100880000020F8BD0280000008010020FEB50446EB
:10089000466900690F4F0190E56800200090A807A5
:1008A00007D0204600F052F93046FFF7D5FE002869
:1008B00001DA3846FEBD280502D50198FFF714FF7E
:1008C0004C212046FFF73EFD206D4008400020658A
:1008D0000098FEBDFFFFFFFF10B50446C046C046AE
:1008E0002046FFF740FC10BD10B500F07DF900F088
:1008F00075F910BD004870470402002070470000E1
:10090000004870470C0200207047704770477047DE
:1009100038B504460A4600206946C046C04600284D
:1009200005D002462046009900F0A7F9012038BD05
:1009300010B5012000F0F6F910BDF8B5C046C0466C
:10094000054600200C461020C0460646A819A042C5
:100950000DD9324669460020C046C046070001D185
:1009600000F0E0F90098A04200D00546C419FFF756
:10097000C7FFF61D07460560F008C0004619284667
:1009800000F074F9B44204D031463868A21B00F07C
:1009900074F9F8BD70B50646FFF7B2FF056830463A
:1009A0000B30C408E400B44201D8002070BD686870
:1009B0002A46002818D00168A14211D30B462146CF
:1009C00008318B4208D3436801194B6003681B1B35
:1009D0000B605160046001E041685160001D70BD12
:1009E000024640680028E6D121462846FFF790FFDE
:1009F0000028DCD170BD0000F8B5044616460D464F
:100A00004769007B800730D03846FFF73AFE002860
:100A10002BD132461026002A25D0012A02D0022AE4
:100A200023D104E0204600F042F945191BE0384686
:100A3000FFF735FEE16831430028E16004DA204623
:100A400000F054F80120F8BDC9030BD56268E16AD3
:100A5000914200D81146A26989182269891A8142F7
:100A600000DD08462D18002D01DA0220F8BDE16AEC
:100A70006068E268814206D29103E06203D50121F9
:100A800049048A433243A669AE4211DCE16A8142DD
:100A900001D90B4600E003469F192369FF1AAF42B4
:100AA00006DD814201D90F4600E007469F4206D18C
:100AB000202002430020A060A56220600DE0AD1B55
:100AC000E669AE1B8142A66000D90846C01A281A02
:100AD00020605819606020208243034802400020B3
:100AE000E26040342072F8BDBFCFD7FFC1688022DA
:100AF000114392039143C1600021816001607047FE
:100B0000F7B514460E463348D5685769054209D0F3
:100B10003846A169FFF7BBFD002811DB2D48C04313
:100B20000540E5602B46324638460099FFF79AFDAE
:100B30004200A1695208B21A89180028A16104D0A4
:100B40002046FFF7D3FF0020C043FEBD70B504462A
:100B50000569C06A6168884200D80846E1680522D4
:100B6000D2049143E160C90314D5A84209D02246BA
:100B7000411B2846FFF7C4FF002802D00020C043D5
:100B800070BDE56200206560A060E0680121090495
:100B90008843E060002070BD10B50446C068202185
:100BA0008843E060A16AA06988420ED02046FFF722
:100BB000CDFFE06803210903884310210843E0606A
:100BC000A06AA0612069E06260600349E0680840B3
:100BD000E06010BD10000200BFBFFFFF10B500288D
:100BE00001D000F03DF810BD10B5014602A000F0A4
:100BF0007FF8012010BD000053494752545245442C
:100C00003A2052656469726563743A2063616E27A5
:100C100074206F70656E3A200000000030B5441CEF
:100C200003E00178401C00290DD08107F9D10B4B5E
:100C3000DD0104C8D11A91432940FAD0001B0A06ED
:100C400003D0C01E30BD001B30BD0A0401D0801E81
:100C500030BD0902FCD0401E30BD00000101010181
:100C600001491820ABBEFEE726000200002101600A
:100C70004160806070471020704710B5034640689F
:100C800001E003464068002801D08842F9D3186883
:100C9000C3188B4206D0CB1CD808C000001D411AD7
:100CA000521A0146081D0A60FFF71EFD10BD10B55F
:100CB0000146C268900703D0900607D5886A0AE00B
:100CC00000F03CF801210160881E10BD8B69486866
:100CD000C0180B69C01A40310B7A002B02D0497A38
:100CE000401A10BD1103FCD50028FADD401E10BDCE
:100CF00070B505460C460A2000E06D1C00F018F89F
:100D0000002D06D028780028F7D102E0641C00F0FE
:100D10000FF8002C02D020780028F7D10A2000F02C
:100D200007F870BD10B500F00DF8FFF757FF10BDC4
:100D300008B5694608700320ABBE08BD004870477F
:100D40000402002010B5012805D0002103A0FFF700
:100D5000CFFF012010BD09A1F8E700005349475219
:100D6000544D454D3A204F7574206F66206865617B
:100D700070206D656D6F7279000000003A20486543
:100D80006170206D656D6F727920636F727275701E
:100D90007465640010B5012000F01EF8022000F018
:100DA0001BF810BD10B5102000F016F810BD0000A3
:100DB00070B5044600F0F6F80546601C02D0044801
:100DC0000078241800F0EEF8401BA042FAD370BD62
:100DD000000000207047000010B504494A69024233
:100DE00002D04861FFF7F6FF10BD0000000401408B
:100DF000F8B5002303240125B5E02E469E40B446F5
:100E000032407CD00E79B607B60F012E01D0022EEB
:100E100017D186682746B6465E00B74000967646EC
:100E2000BE43B646CF68009EB740764637438760DC
:100E300046686746BE430F79FF06FF0F9F40374362
:100E400047600E79F643B6070ED0C6682746B4460B
:100E50005E00B646B7406646BE43B4468F687646E7
:100E6000B74066463743C7600E79B607B60F022E05
:100E700014D1DE08B60036180096366A5F07B4460D
:100E8000FE0E0F27B646B7406646BE43B4460F690E
:100E90007646B74066463743009E37620668274667
:100EA000B4465E00B646B7406646BE430F79B446C8
:100EB000BF07BF0F7646B7406646374307604E68A8
:100EC000B603B60F4ED02B4FBE692E43BE61BE692E
:100ED0009F08F607F60F284EBF00BE190096B668A9
:100EE0000F27B4469E07360FB646B7406646BE4348
:100EF0000927FF06B446B84202D100270BE031E0D3
:100F00001E4FB84201D1012705E01D4FB84201D163
:100F1000022700E005277646B74066463743009E25
:100F2000B760184EB6684F689643FF0200D5164367
:100F3000144FBE60FE684F689643BF0200D516434B
:100F4000104FFE607E684F689643BF0300D516437E
:100F50000C4F7E603E684F689643FF0300D51643F2
:100F6000084A16605B1C0A681646DE4000D044E75B
:100F7000F8BD0000001002400000014000040048DD
:100F80000008004800040140426913460B401B045E
:100F900091430B4383617047002A01D08161704700
:100FA000816270470148806870470000000000209F
:100FB00010B5040003D0E06F002802D007E0012044
:100FC00010BD002178200155204600F01BFC242094
:100FD000E06720680168490849000160204600F088
:100FE00081FE0128ECD0606A002802D0204600F083
:100FF00082FD206841680922D20291434160206845
:10100000816822229143816020688168082211430F
:10101000816020680168012211430160204600F0D0
:10102000CFFD10BD02488168027889188160704741
:101030000000002010B5064801681022114301602D
:10104000032000F007F800F027F8002010BD000092
:101050000020024070B504460D4D7D202978C00067
:10106000FFF772F901460B480068FFF76DF900F0D1
:10107000B1FB002809D1042C07D200222146401ED2
:1010800000F030F800206C6070BD012070BD0000E1
:10109000000000200C00002008B50A4881690122E8
:1010A00011438161816911400091C26901040A43C1
:1010B000C261C069084000900348016810221143D2
:1010C000016008BD0010024000000140002805DB5F
:1010D000C106C90E01208840014908607047000020
:1010E00000E100E010B500F0F3FE10BDF8B50F46CA
:1010F00006005ED03C4D2868C007C00FB84209D238
:10110000286840084000384328602868C007C00F9E
:10111000B8424ED13068354C81070CD5400704D514
:10112000606807210902084360606068F021884315
:10113000B168084360603078C0072BD07068012820
:1011400010D0022810D0032811D021688907002967
:101150002FDA61688908890001436160FFF722FF87
:10116000009010E0216803E021688901EFE7616BDE
:101170008903ECE7FFF716FF0099411A1C488142EA
:1011800001D90320F8BD60680C210840716889000E
:101190008842EFD12868C007C00FB8420BD9286831
:1011A00040084000384328602868C007C00FB84294
:1011B00001D00120F8BD3078400706D560680721CE
:1011C00009028843F1680843606000F027F861680D
:1011D000084A0906090F515CC84007490860032006
:1011E000FFF738FF0020F8BD002002400010024049
:1011F00088130000901F00080C00002004480549D7
:1012000000684968044A4905490F515CC840704765
:101210000C00002000100240A01F000870B5154A05
:1012200051680C200B4603401348042B05D0134D86
:10123000082B03D00C2B00D1284670BD8B02104C1C
:101240001B0FE45CD26A0E4B1207120F1033C90356
:101250009A5C890F022901D0032901D0002301E003
:10126000002328460021FEF7BFFF214600F017FEAD
:1012700070BD00000010024000127A00006CDC0219
:10128000701F0008FEB5040070D02078F94EFA4DAA
:10129000C00748D068680007800F01281FD0686821
:1012A0000007800F022804D16868C003800F02285D
:1012B00015D06168012919D001208004002901D0CE
:1012C000052917D02968B14329602968814329601D
:1012D000606800281BD0FFF765FE074613E028680A
:1012E000800320D560680028CED01CE028683043F9
:1012F0002860EDE7296801432960F7E7FFF752FE10
:10130000C01B642870D828688003F7D50BE0FFF76E
:1013100049FE074604E0FFF745FEC01B6428F1D8EC
:1013200028688003F7D4207880073FD568680007D5
:10133000800F14D068680007800F022804D1686805
:10134000C003800F01280AD0E068002828681ED05A
:10135000012108432860FFF725FE07460CE02868B6
:1013600080070CD5E068012800D108E080E1FFF794
:1013700019FEC01B0228C5D828688007F7D5286841
:10138000F82188432169C900084328600EE040081D
:1013900040002860FFF706FE074604E0FFF702FE64
:1013A000C01B0228AED828688007F7D42078000731
:1013B00023D5E0690028686A0FD0012108436862DC
:1013C000FFF7F0FD074604E0FFF7ECFDC01B022825
:1013D00098D8686A8007F7D50FE040084000686237
:1013E000FFF7E0FD074605E0C3E0FFF7DBFDC01BAC
:1013F000022887D8686A8007F7D420780427400736
:10140000002861DA00200190E869C00008D4E96989
:10141000B8060143E961E9690140012000910190AA
:1014200096480168C90511D401688215114301600D
:10143000FFF7B8FD009005E0FFF7B4FD0099401AF2
:10144000642898D88D480068C005F5D5A0680128A3
:101450000AD0002801D0052811D0286A4008400091
:101460002862286AB84302E0286A012108432862FA
:10147000A068002812D0FFF795FD00900AE0286AC6
:1014800038432862F0E7FFF78DFD0099411A7C4848
:1014900081426ED8286A8007F5D50DE0FFF782FDFE
:1014A000009006E0FFF77EFD0099411A74488142E2
:1014B0005FD8286A8007F5D40198002804D0E9692C
:1014C000012000078143E9612078C00635D56069B5
:1014D00001280CD0401D686B24D038436863686BCA
:1014E000400840006863FFF75DFD074622E0686B37
:1014F00038436863686B012108436863FFF752FD56
:10150000074604E0FFF74EFDC01B022831D8686B88
:101510008007F7D5686BF8218843A169C9000843A3
:1015200068630AE0B8436863F4E7FFF73BFDC01B5C
:1015300002281ED8686B8007F7D42078800637D53C
:1015400068680007800F032814D068680007800FC0
:10155000022804D16868C003800F03280AD0206ADB
:101560000028686B16D030436863FFF71BFD064602
:101570000CE062E0686B80031AD5206A012877D1FD
:1015800016E0FFF70FFD801B022856D8686B80031A
:10159000F7D50DE0B0436863FFF704FD064604E0AD
:1015A000FFF700FD801B022847D8686B8003F7D443
:1015B000606A002866D069680907890F022942D04D
:1015C000012636060228286805D0B0432860FFF7B8
:1015D000E9FC044633E0B0432860FFF7E3FC07462C
:1015E00004E0FFF7DFFCC01B022826D82868800132
:1015F000F7D4E86A216B000900010843E862A16A98
:10160000E06A084369687B22D2039143084368601B
:10161000286830432860FFF7C5FC044604E0FFF764
:10162000C1FC001B022808D828688001F7D529E0F2
:10163000FFF7B8FC001B022801D90320FEBD286873
:101640008001F5D41EE00128F8D06868E96A032219
:10165000D203A36A02409A420AD10907226B090FFA
:10166000914205D10F2189040840E16A884209D0DE
:101670000120FEBD0000010000100240007000408B
:10168000881300000020F4E7F8B504000CD0606A6D
:10169000002500280AD02561656126464036A562EE
:1016A000707F002808D00BE00120F8BD6168C81FDA
:1016B000FD38F2D0E561F0E73577204600F05CF8C0
:1016C0000222727720680168402399430160072352
:1016D000E1681B02994201D9002001E001200003CA
:1016E0000F273F02B94202D0994200D0A562FF23E2
:1016F0006168053319402127A368BF023B401943A5
:1017000023691340227D1943D207D20F11430123CD
:10171000A2695B021A401143E26938231A4011435F
:10172000226A80231A401143A26A9B011A40114386
:1017300022681160A1690422090C1140626A102319
:101740001A401143626B08231A4011430F23E268C9
:101750001B021A401143012212031040014320686A
:1017600041602068C16952109143C1612566012022
:1017700070770020F8BD000010B586B00446142133
:101780006846FEF7DFFD1149206888421CD11048E9
:10179000826981140A43826182690A400592426922
:1017A00049010A434261406908400590E0200090E9
:1017B000022001900021032003900291049109204E
:1017C0006946C006FFF714FB06B010BD00300140AB
:1017D00000100240094910B5401E884201D901207D
:1017E00010BD074C60610321081F00F071FB002051
:1017F000A06107202061002010BD0000FFFFFF0056
:1018000000E000E010B586B0044614216846FEF7FB
:1018100099FD1149206888421CD11048C2690121F4
:1018200049040A43C261C2690A40059242690A43F7
:101830004261406908400590042000901220019008
:101840000121032003900291049109206946C006FA
:10185000FFF7CEFA06B010BD004400400010024071
:10186000FFB50446C06F83B017460D46202802D04E
:10187000022007B0F0BD002D0BD0002F09D00120B1
:10188000A1680003814206D12069002803D1E8073E
:1018900001D00120EDE70021842001512120E067E3
:1018A000FFF780FB26464036019037827782012081
:1018B000A1680003814202D12069002802D02F468E
:1018C000002511E000270FE000228021204600F0D3
:1018D000A1FA002815D1002F17D021683878088583
:1018E0007F1C708A401E7082708A019B00280698B7
:1018F0000090E9D100224021204600F08BFA002818
:101900000AD02020E0670320B3E728882168C005BB
:10191000C00D0885AD1CE4E72020E0670020A8E7A3
:10192000FEE70000F0B587B014216846FEF70AFD17
:1019300035484269012189040A43426142690A40EB
:101940000592426909010A43426142690A400592CF
:10195000426949110A4342614069012208400590E9
:1019600002212A48FFF718FB092001220321C006A3
:10197000FFF712FB092000220821C006FFF70CFB2D
:10198000FF20013000270090019769460297204808
:10199000FFF72EFA1126012536046A46E0C2694691
:1019A0001A48FFF725FA02246846B0C0694617486E
:1019B0000397FFF71DFA0B206946A1C1092069466C
:1019C000C0060397FFF714FA10206A46C1C2092027
:1019D0006946C006FFF70CFA6A46D0C269460C4851
:1019E000FFF706FA002211460520FFF77BFB0520D2
:1019F000FFF76CFB002211460720FFF773FB07205F
:101A0000FFF764FB07B0F0BD00100240001400486F
:101A10000004004810B511480F490160FF2105314D
:101A2000416000210722816012020161C26001222F
:101A3000416152028261016218224162C261816287
:101A40000722C262016308214163FFF71DFE0028DF
:101A500001D072B6FEE710BD003001401C0000202E
:101A600010B50C480A490160E1214902416000219A
:101A70008160C16001618161C161082201624261CE
:101A80004162FFF795FA002801D072B6FEE710BD5B
:101A90000044004080000020FEE77047704710B50A
:101AA000FFF7C0FA10BD10B592B034216846FEF7BA
:101AB00049FC00240F94202000900D9401200E94E6
:101AC0000890109409946846FFF7DCFB002801D0C9
:101AD00072B6FEE707200D9003200E900F940121AF
:101AE00010940DA8FFF702FB002801D072B6FEE7A4
:101AF00012B010BD704710B5818CC90707D00168BE
:101B00004A6801235B049A43836A1A434A60818CC2
:101B1000890707D501684A6801231B049A43C36AF1
:101B20001A434A60818C490707D501684A68012336
:101B30009B049A43036B1A434A60818C090707D5BB
:101B400001684A680123DB039A43436B1A434A60E6
:101B5000818CC90607D50268916801231B0399434C
:101B6000836B19439160818C890607D501688A6867
:101B700001235B039A43C36B1A438A60818C490635
:101B800012D503685A6801210905046C8A4322436F
:101B90005A60026C8A4207D10268516803235B05D0
:101BA0009943436C19435160818C090607D501683C
:101BB0004A680123DB04806C9A4302434A6010BDEB
:101BC000FEB507460025803704467D60FFF7EAF939
:101BD000019020680068264600076036002819DA60
:101BE000274800900121002249052046019B00F072
:101BF00011F900280ED0EFF31080012181F3108835
:101C000021680A6880239A430A6080F310882020A4
:101C1000E06729E020680068400728D51848009050
:101C20000121002289052046019B00F0F3F80028DD
:101C30001DD0EFF31080012181F3108821680A681C
:101C4000FF2321339A430A6080F31088EFF310805A
:101C5000012181F3108821688A68520852008A6045
:101C600080F310882020386035760320FEBD2020C8
:101C7000E06738602566656635760020FEBD0000A9
:101C8000FFFFFF0110B5EFF31081012282F31088EE
:101C900002681368FF242134A343136081F3108882
:101CA000EFF31081012282F31088026893685B08C9
:101CB0005B00936081F31088016E01290BD1EFF373
:101CC0001081012282F31088026813681024A34354
:101CD000136081F31088202280210A5000210166C0
:101CE000816610BD70B5044680682169E2690843C9
:101CF0006169002511432268084311683F4B194070
:101D00000143116021684868032212039043E2688E
:101D100010434860A169206A084321688A680B2340
:101D20001B029A4302438A6035492068884210D1D9
:101D30003448006B8007800F0ED0012805D00228A0
:101D400005D003280AD1022109E0042107E0082177
:101D500005E02D49884201D1002100E01021012039
:101D6000E369C003294A2A4E834222D1002906D0C2
:101D7000022907D0042907D0082935D108E0FFF748
:101D80003DFA03E0104603E0FFF748FA002830D0A0
:101D9000616840004A088018FEF7D6FA01461039FB
:101DA000B14221D81A49491C01400007400F08439D
:101DB0001DE0002906D0022907D0042907D00829F0
:101DC00012D108E0FFF71AFA03E0104603E0FFF72C
:101DD00025FA00280DD061684A081018FEF7B4FAF9
:101DE00001461039B14201D9012502E080B22168D3
:101DF000C8600020A066E066284670BDF369FFEF6A
:101E000000380140001002400044004000127A00F7
:101E1000EFFF0000FFB5064681B080360546044658
:101E200060350A9F2EE0781C2CD0FFF7BBF8049990
:101E3000401AB84214D8002F12D020680168490710
:101E400020D5C169C94309070CD408270762204679
:101E5000FFF718FF776000202876012005B0F0BD5D
:101E60000320FBE7C069C04300050BD401202168B3
:101E7000C00208622046FFF705FF202070600020A6
:101E80002876EDE72068C1690298884305D00021D3
:101E900003988142C7D00020E0E70121F8E7F8B5B8
:101EA000040C8BB2264682B25E430D0C1046370CF2
:101EB0005843360480190021794116466E43370C89
:101EC00036048019794126466E438919F8BD000011
:101ED0008307FF22DB0E9A408907090E99400028EC
:101EE00008DB830809489B001B18186890430843C7
:101EF000186070470007000F0838830804489B00EB
:101F00001B18D86990430843D861704700E400E08B
:101F100000ED00E013B56423012269460248FFF793
:101F20009FFC00981CBD000080000020FFF782F895
:101F3000FFF7B9FDFFF7F6FCFFF76CFDFFF790FD2B
:101F40000924E4067D25ED0005A0FEF7CFF9082160
:101F50002046FFF719F82846FEF72AFFF4E70000AD
:101F600068656C6C6F20776F726C640D0A000000FE
:101F700002030405060708090A0B0C0D0E0F1010CA
:101F80000102030405060708090A0B0C0D0E0F10C9
:101F90000000000000000000010203040607080919
:101FA00000000000010203043A7474003A747400E3
:101FB0003A747400D41F0008000000201C000000C8
:101FC00004010008F01F00081C0000204C0800005D
:101FD00020010008010000000400000000000000D3
:101FE00000127A0000000000000000000000000065
:04000005080000C12E
:00000001FF
