:020000040800F2
:10000000B00800208D0100083D1F00085D1D00089C
:1000100000000000000000000000000000000000E0
:10002000000000000000000000000000411F000868
:1000300000000000000000003F1F0008431F0008F0
:10004000BD010008BD010008BD010008BD01000898
:10005000BD010008650F0008BD010008750F00080C
:10006000BD010008BD010008BD010008BD01000878
:10007000BD010008BD010008BD010008BD01000868
:10008000BD0100080000000000000000BD010008E4
:1000900000000000BD010008BD010008BD0100080E
:1000A00000000000BD010008BD010008BD010008FE
:1000B000BD01000800000000BD010008BD010008EE
:1000C00000F002F800F053F80CA030C808382418EB
:1000D0002D18A246671EAB4654465D46AC4201D180
:1000E00000F045F87E460F3E0FCCB646012633425F
:1000F00000D0FB1AA246AB4633431847B825000090
:10010000D8250000103A02D378C878C1FAD852072F
:1001100001D330C830C101D504680C6070470000BD
:100120000023002400250026103A01D378C1FBD813
:10013000520700D330C100D50B60704710B5642959
:1001400002D100F023F910BD782902D100F054F952
:1001500010BD002010BD1FB50098019900F0FFFCF4
:1001600000F02AFB1FBD10B500F092FB10BD00F09F
:10017000C5FB1146FFF7EFFF02F024FA00F0C4FCC4
:1001800003B4FFF7F0FF03BC00F05AFE0F4880F302
:1001900008880F480168090E0E4A914205D10E48A1
:1001A0000E4901600E480F4901600F4880470F4813
:1001B0000047FEE7FEE7FEE7FEE7FEE7FEE700009A
:1001C0000B480C490C4A0D4B70470000B00800204A
:1001D000040000001F000000181002400100000091
:1001E0000000014000000000991F0008C100000845
:1001F000B0020020B0080020B0040020B0040020AD
:10020000FEB5054610460C46184373D0AE468C46E4
:100210000020AD1A01469C4167D3664600270124A1
:100220003D46B61A9D4102D313463A4621246546FF
:1002300076462F04360C3E432D0CB61A9D4104D34E
:10024000150C1B042B4312041034654676462F060A
:10025000360A3E432D0AB61A9D4104D3150E1B02E1
:100260002B4312020834654676462F0736093E4373
:100270002D09B61A9D4104D3150F1B012B43120102
:10028000241D65467646AF07B6083E43AD08B61A4C
:100290009D4104D3950F9B002B439200A41C6546FF
:1002A0007646EF0776083E436D08B61A9D411AD38D
:1002B00092185B41641C16E0001876466546494179
:1002C000B71A9D410191009009D36046B11A984137
:1002D0008E468446009801990025401C6941DD073F
:1002E00052082A435B08641EE6D57246634603B093
:1002F000F0BDFFE700200146C046C0462A4623461F
:10030000F5E700000FB4054910B503AA029800F004
:100310000BFA10BC08BC04B018470000A401002070
:10032000F8B50E460446002020622046E168884762
:10033000002829D0252802D06268A16820E0E16861
:1003400020460027884705001ED028464138192836
:1003500002D80127FF022035324620462760294671
:10036000FFF7ECFE002808D0012804D0F61DF6089F
:10037000F6000836D9E7361DD7E762682846A16837
:100380009047206A401CCFE7206AF8BDF7B50025EA
:1003900075291068009914A611D0C046C0460028DF
:1003A00002DA404211A608E0009909688A0701D5DF
:1003B0000FA602E0490704D50EA6012501E0C046BC
:1003C000C046009F0024243704E000F0C1F930311A
:1003D0003955641C0028F8D12B4632462146009836
:1003E00000F04AF9FEBD0000000000002D000000F2
:1003F0002B0000002000000070B504460D46214689
:100400001068C046C0462188090502D50F4A7A44C3
:1004100002E00E4A7A440E3223460021243305E0DE
:1004200006070009360F965D5E54491C0028F7D177
:1004300020780023000705D5702D03D0002901D0B6
:1004400002231132204600F017F970BD7722000018
:1004500001E004C0091F0429FBD28B0701D50280EB
:10046000801CC90700D00270704700290BD0C30759
:1004700002D00270401C491E022904D3830702D512
:100480000280801C891EE3E70022EEE70022DFE7FE
:10049000024670B50A4392072AD11E4DEE0104C8E8
:1004A00008C9541B9443344017D0D0B2D9B2401A73
:1004B0002106014310D190B299B2401A21040143A0
:1004C0000AD110021902000A090A401A2102014346
:1004D00002D1100E190E401A70BD9A42DFD010BA28
:1004E00019BA884201D9012070BD0020C04370BDF7
:1004F00002780B78401C491C002A09D09A4207D187
:1005000002780B78401C491C002A01D09A42EFD097
:10051000D01A70BD01010101002203098B422CD3C6
:10052000030A8B4211D300239C464EE003460B4343
:100530003CD4002243088B4231D303098B421CD3A5
:10054000030A8B4201D394463FE0C3098B4201D397
:10055000CB01C01A524183098B4201D38B01C01ACF
:10056000524143098B4201D34B01C01A5241030946
:100570008B4201D30B01C01A5241C3088B4201D3F5
:10058000CB00C01A524183088B4201D38B00C01AA2
:10059000524143088B4201D34B00C01A5241411AC9
:1005A00000D201465241104670475DE0CA0F00D0AC
:1005B0004942031000D34042534000229C460309A5
:1005C0008B422DD3030A8B4212D3FC22890112BA2B
:1005D000030A8B420CD3890192118B4208D3890103
:1005E00092118B4204D389013AD0921100E089091B
:1005F000C3098B4201D3CB01C01A524183098B42FC
:1006000001D38B01C01A524143098B4201D34B01E4
:10061000C01A524103098B4201D30B01C01A524147
:10062000C3088B4201D3CB00C01A524183088B42CE
:1006300001D38B00C01A5241D9D243088B4201D357
:100640004B00C01A5241411A00D201466346524142
:100650005B10104601D34042002B00D54942704741
:1006600063465B1000D3404201B50020C046C0463F
:1006700002BD704770477047FFB504460D4681B014
:10068000243000902168880604D51022E069914347
:10069000216000E00120A84201DD471B00E00027A7
:1006A0000498A1697A191018081AA0612078C00668
:1006B00002D42046C046C046002608E0039862687F
:1006C000A168805D9047206A401C761C20620498D7
:1006D0008642F3DB2078C0060AD52046C046C046D5
:1006E00006E06268A16830209047206A401C2062C2
:1006F00038467F1E0028F4DC07E000986268A16895
:10070000405D9047206A401C206228466D1E0028EC
:10071000F3DC2046C046C0462078000602D5022001
:1007200005B0F0BD0120FBE7084B70B50D467B44DA
:1007300000F02BF80446284600F03AF8002802D0D2
:100740000020C04370BD204670BD00007B1E00002D
:1007500001468008081A02091018020A1018020C33
:100760001018C008820012185200891A01E0401CBB
:100770000A390A29FBD27047004870474C02002012
:1007800001694A1C02610878704700B58FB0029178
:100790000021059105490193794403911146049084
:1007A0006846FFF7BDFD0FB000BD0000E5FFFFFF8D
:1007B000C06880210840704710B543485421FFF7B6
:1007C00065FE42485421FFF761FE41485421FFF77E
:1007D0005DFE40483C493D4B404A01603E48036055
:1007E0003B4810605A1C0A65411C196501210165CE
:1007F0003C48354A3AA1784400F0ECF8002804D18E
:10080000384878440C3800F087F938482F4A36A128
:10081000784400F0DFF8002804D1344878440C38DC
:1008200000F07AF932482A4A2FA1784400F0D2F831
:10083000002804D12E4878440C3800F06DF940238C
:100840002148DC000021224600F09EF8002804D058
:10085000244878445C3800F05FF91C482246402365
:10086000002100F091F8002804D0204878445C383A
:1008700000F052F9164822461023002100F084F8B7
:10088000002804D01A4878445C3800F045F910BDBF
:100890000F4870B5006D44080B48640000F00EF975
:1008A0000A4800F00BF90A4800F008F909E0206D49
:1008B000450820466D0000F001F9204600F03DF8A3
:1008C0002C46002CF3D170BD50010020A401002063
:1008D000F801002010000020140000201800002063
:1008E00072000000781E000077000000651E000006
:1008F000531E0000004870474C0200207546FFF769
:10090000F9FFAE46050069465346C008C00085465B
:1009100018B020B5FFF754FC60BC00274908B64664
:100920000026C0C5C0C5C0C5C0C5C0C5C0C5C0C5FE
:10093000C0C5403D49008D46704770B50446051F4F
:1009400000F0F0F80068002C1AD0446801E020465E
:100950006468002C01D0AC42F9D301680A18AA429D
:1009600004D12A6805468918016000E045602868BE
:100970004119A14205D16168696021684018286069
:1009800070BD6C6070BD000070B5C468A50713D061
:10099000650211D4D51FF93D0AD0FF3D6D1E07D069
:1009A000FF3DFF3D022D07D101462431012305E023
:1009B000074E5D1EB54201D3012070BD0161C361C8
:1009C00041600F2109028C431443C460002070BDB4
:1009D000FFFFFF00F7B516460C46104600F06EF814
:1009E0002078611C61280AD0722802D0772839D17A
:1009F00002E00125002404E00225042401E02D4D3D
:100A000008240222032301270878491C2B2806D03A
:100A1000622807D02039C87F742807D008E01D431A
:100A20001443F1E7042005433C43EDE71020044361
:100A30000098214601F05EFD411C13D00021316178
:100A400071600121F5604902F1617061200704D5F0
:100A500030460222002100F0E1F8306D3843306565
:100A60003046FEBD0020FEBDF8B50D460646124CD0
:100A7000206DC10704D0410804D044086400F7E7A2
:100A8000224610E0542000F097F8070010D07908B3
:100A9000206D490001221143084354212065384646
:100AA000FFF7F4FC3A4629463046FFF793FFF8BDBE
:100AB0000020F8BD0280000050010020FEB5044671
:100AC000466900690F4F0190E56800200090A80773
:100AD00007D0204600F04CF9304601F0E7FC002832
:100AE00001DA3846FEBD280502D50198FFF725FF3B
:100AF0004C212046FFF7CAFC206D400840002065CD
:100B00000098FEBDFFFFFFFF10B50446C046C0467B
:100B10002046FFF735FB10BD10B500F077F900F067
:100B20006FF910BD004870475402002070477047AD
:100B30007047704738B504460A4600206946C046EB
:100B4000C046002805D002462046009900F085F9ED
:100B5000012038BD10B5012000F0D4F910BDF8B562
:100B6000C046C046054600200C461020C04606463A
:100B7000A819A0420DD9324669460020C046C04699
:100B8000070001D100F0BEF90098A04200D0054650
:100B9000C419FFF7C7FFF61D07460560F008C0003F
:100BA0004619284600F052F9B44204D0314638685C
:100BB000A21B00F052F9F8BD70B50646FFF7B2FF70
:100BC000056830460B30C408E400B44201D8002068
:100BD00070BD68682A46002818D00168A14211D368
:100BE0000B46214608318B4208D3436801194B60FC
:100BF00003681B1B0B605160046001E04168516099
:100C0000001D70BD024640680028E6D121462846F6
:100C1000FFF790FF0028DCD170BD0000F8B5044656
:100C200016460D464769007B800730D0384601F0F4
:100C300053FC00282BD132461026002A25D0012A49
:100C400002D0022A23D104E0204600F020F9451901
:100C50001BE0384601F038FCE16831430028E160D0
:100C600004DA204600F054F80120F8BDC9030BD582
:100C70006268E16A914200D81146A2698918226926
:100C8000891A814200DD08462D18002D01DA022064
:100C9000F8BDE16A6068E268814206D29103E062D1
:100CA00003D5012149048A433243A669AE4211DCCF
:100CB000E16A814201D90B4600E003469F1923698E
:100CC000FF1AAF4206DD814201D90F4600E0074618
:100CD0009F4206D1202002430020A060A562206030
:100CE0000DE0AD1BE669AE1B8142A66000D9084647
:100CF000C01A281A206058196060202082430348D7
:100D000002400020E26040342072F8BDBFCFD7FF20
:100D1000C1688022114392039143C1600021816028
:100D200001607047F7B514460E463348D5685769D9
:100D3000054209D03846A16901F010FC002811DBFA
:100D40002D48C0430540E5602B46324638460099A1
:100D500001F008FC4200A1695208B21A8918002863
:100D6000A16104D02046FFF7D3FF0020C043FEBDA1
:100D700070B504460569C06A6168884200D80846B3
:100D8000E1680522D2049143E160C90314D5A84269
:100D900009D02246411B2846FFF7C4FF002802D095
:100DA0000020C04370BDE56200206560A060E0687F
:100DB000012109048843E060002070BD10B504469D
:100DC000C06820218843E060A16AA06988420ED0F3
:100DD0002046FFF7CDFFE068032109038843102177
:100DE0000843E060A06AA0612069E0626060034996
:100DF000E0680840E06010BD10000200BFBFFFFFC8
:100E000010B5002801D000F01BF810BD10B5014648
:100E100002A000F05DF8012010BD000053494752C8
:100E2000545245443A2052656469726563743A20AD
:100E300063616E2774206F70656E3A2000000000B9
:100E400001491820ABBEFEE7260002000021016028
:100E50004160806070471020704710B503464068BD
:100E600001E003464068002801D08842F9D31868A1
:100E7000C3188B4206D0CB1CD808C000001D411AF5
:100E8000521A0146081D0A60FFF757FD10BD10B544
:100E90000146C268900703D0900607D5886A0AE029
:100EA000FFF76AFC01210160881E10BD8B6948684C
:100EB000C0180B69C01A40310B7A002B02D0497A56
:100EC000401A10BD1103FCD50028FADD401E10BDEC
:100ED00070B505460C460A2000E06D1C01F062FB6F
:100EE000002D06D028780028F7D102E0641C01F01C
:100EF00059FB002C02D020780028F7D10A2001F0FD
:100F000051FB70BD10B500F005F8FFF779FF10BD7B
:100F10007047000010B5012805D0002103A0FFF79D
:100F2000D7FF012010BD09A1F8E70000534947523F
:100F3000544D454D3A204F7574206F6620686561A9
:100F400070206D656D6F7279000000003A20486571
:100F50006170206D656D6F727920636F727275704C
:100F60007465640010B5012000F062F8022000F002
:100F70005FF810BD10B5102000F05AF810BD000049
:100F800070B5044600F03AF90546601C02D00448EA
:100F90000078241800F032F9401BA042FAD370BD4B
:100FA0000000002010B5104902280A680BD0012863
:100FB00010D0102816D10920C00601691020526AED
:100FC00001400AA00CE00E4801690220526A01406B
:100FD0000CA005E00F480069526AC107C90F0EA0B6
:100FE000FFF790F910BD000080000020504320530F
:100FF0004F434B45543A2025782025640A000000D1
:1010000000040048484F5453484F453A2025782063
:1010100025640A00001400484C49474854205345B1
:101020004E534F523A2025782025640A00000000D4
:1010300010B504494A69024202D04861FFF7B2FF85
:1010400010BD000000040140F8B500230324012571
:10105000B5E02E469E40B44632407CD00E79B607AD
:10106000B60F012E01D0022E17D186682746B6464C
:101070005E00B74000967646BE43B646CF68009EF7
:10108000B74076463743876046686746BE430F7968
:10109000FF06FF0F9F40374347600E79F643B607C0
:1010A0000ED0C6682746B4465E00B646B7406646D0
:1010B000BE43B4468F687646B74066463743C7603E
:1010C0000E79B607B60F022E14D1DE08B600361818
:1010D0000096366A5F07B446FE0E0F27B646B74045
:1010E0006646BE43B4460F697646B7406646374308
:1010F000009E376206682746B4465E00B646B74093
:101100006646BE430F79B446BF07BF0F7646B74069
:101110006646374307604E68B603B60F4ED02B4F76
:10112000BE692E43BE61BE699F08F607F60F284EC2
:10113000BF00BE190096B6680F27B4469E07360F4B
:10114000B646B7406646BE430927FF06B446B842D6
:1011500002D100270BE031E01E4FB84201D1012738
:1011600005E01D4FB84201D1022700E00527764671
:10117000B74066463743009EB760184EB6684F6862
:101180009643FF0200D51643144FBE60FE684F68B9
:101190009643BF0200D51643104FFE607E684F682D
:1011A0009643BF0300D516430C4F7E603E684F68E0
:1011B0009643FF0300D51643084A16605B1C0A6875
:1011C0001646DE4000D044E7F8BD000000100240A3
:1011D00000000140000400480008004800040140ED
:1011E000426913460B401B0491430B4383617047D4
:1011F000002A01D081617047816270470148806890
:10120000704700000000002010B5040003D0E06F1C
:10121000002802D007E0012010BD002178200155F0
:10122000204600F00DFD2420E06720680168490891
:1012300049000160204601F021F80128ECD0606AE5
:10124000002802D0204600F022FF206841680922D1
:10125000D2029143416020688168222291438160DB
:10126000206881680822114381602068016801229A
:1012700011430160204600F06FFF10BD02488168F5
:1012800002788918816070470000002010B5064878
:101290000168102211430160032000F007F800F0FC
:1012A00027F8002010BD00000020024070B5044661
:1012B0000D4D7D202978C000FFF72EF901460B481F
:1012C0000068FFF729F900F0B1FB002809D1042CD0
:1012D00007D200222146401E00F030F800206C604A
:1012E00070BD012070BD0000000000200C00002037
:1012F00008B50A4881690122114381618169114061
:101300000091C26901040A43C261C06908400090AB
:101310000348016810221143016008BD001002401B
:1013200000000140002805DBC106C90E01208840ED
:10133000014908607047000000E100E010B501F0CD
:1013400093F810BDF8B50F4606005ED03C4D2868F6
:10135000C007C00FB84209D228684008400038438F
:1013600028602868C007C00FB8424ED13068354C9D
:1013700081070CD5400704D560680721090208439E
:1013800060606068F0218843B1680843606030782D
:10139000C0072BD07068012810D0022810D0032875
:1013A00011D02168890700292FDA6168890889002E
:1013B00001436160FFF722FF009010E0216803E025
:1013C00021688901EFE7616B8903ECE7FFF716FFFE
:1013D0000099411A1C48814201D90320F8BD606878
:1013E0000C210840716889008842EFD12868C00745
:1013F000C00FB8420BD92868400840003843286025
:101400002868C007C00FB84201D00120F8BD30786D
:10141000400706D56068072109028843F168084340
:10142000606000F027F86168084A0906090F515CFE
:10143000C840074908600320FFF738FF0020F8BDC7
:101440000020024000100240881300005A260008C5
:101450000C0000200448054900684968044A490511
:10146000490F515CC84070470C000020001002403A
:101470006A26000870B5154A51680C200B460340D7
:101480001348042B05D0134D082B03D00C2B00D18F
:10149000284670BD8B02104C1B0FE45CD26A0E4BC9
:1014A0001207120F1033C9039A5C890F022901D069
:1014B000032901D0002301E0002328460021FEF784
:1014C0009FFE214600F0B7FF70BD000000100240F3
:1014D00000127A00006CDC023A260008FEB5040017
:1014E00070D02078F94EFA4DC00748D068680007E0
:1014F000800F01281FD068680007800F022804D1E0
:101500006868C003800F022815D06168012919D0CE
:1015100001208004002901D0052917D02968B14392
:101520002960296881432960606800281BD0FFF783
:1015300065FE074613E02868800320D56068002810
:10154000CED01CE0286830432860EDE729680143CD
:101550002960F7E7FFF752FEC01B642870D828689F
:101560008003F7D50BE0FFF749FE074604E0FFF7DD
:1015700045FEC01B6428F1D828688003F7D4207882
:1015800080073FD568680007800F14D0686800079F
:10159000800F022804D16868C003800F01280AD098
:1015A000E068002828681ED0012108432860FFF762
:1015B00025FE07460CE0286880070CD5E068012866
:1015C00000D108E080E1FFF719FEC01B0228C5D852
:1015D00028688007F7D52868F82188432169C90061
:1015E000084328600EE0400840002860FFF706FE30
:1015F000074604E0FFF702FEC01B0228AED82868A9
:101600008007F7D42078000723D5E0690028686AAE
:101610000FD0012108436862FFF7F0FD074604E0A0
:10162000FFF7ECFDC01B022898D8686A8007F7D541
:101630000FE0400840006862FFF7E0FD074605E064
:10164000C3E0FFF7DBFDC01B022887D8686A80076C
:10165000F7D4207804274007002861DA00200190A1
:10166000E869C00008D4E969B8060143E961E9699D
:10167000014001200091019096480168C90511D4EC
:101680000168821511430160FFF7B8FD009005E085
:10169000FFF7B4FD0099401A642898D88D48006877
:1016A000C005F5D5A06801280AD0002801D005287A
:1016B00011D0286A400840002862286AB84302E036
:1016C000286A012108432862A068002812D0FFF789
:1016D00095FD00900AE0286A38432862F0E7FFF79A
:1016E0008DFD0099411A7C4881426ED8286A800796
:1016F000F5D50DE0FFF782FD009006E0FFF77EFDD7
:101700000099411A744881425FD8286A8007F5D44D
:101710000198002804D0E969012000078143E961AC
:101720002078C00635D5606901280CD0401D686B53
:1017300024D038436863686B400840006863FFF753
:101740005DFD074622E0686B38436863686B0121E2
:1017500008436863FFF752FD074604E0FFF74EFDBC
:10176000C01B022831D8686B8007F7D5686BF82159
:101770008843A169C900084368630AE0B843686305
:10178000F4E7FFF73BFDC01B02281ED8686B8007FB
:10179000F7D42078800637D568680007800F0328C3
:1017A00014D068680007800F022804D16868C0035D
:1017B000800F03280AD0206A0028686B16D03043B7
:1017C0006863FFF71BFD06460CE062E0686B800370
:1017D0001AD5206A012877D116E0FFF70FFD801B8C
:1017E000022856D8686B8003F7D50DE0B0436863D4
:1017F000FFF704FD064604E0FFF700FD801B02280A
:1018000047D8686B8003F7D4606A002866D069689F
:101810000907890F022942D00126360602282868C6
:1018200005D0B0432860FFF7E9FC044633E0B0433D
:101830002860FFF7E3FC074604E0FFF7DFFCC01B6E
:10184000022826D828688001F7D4E86A216B0009AD
:1018500000010843E862A16AE06A084369687B22E4
:10186000D203914308436860286830432860FFF73B
:10187000C5FC044604E0FFF7C1FC001B022808D8A1
:1018800028688001F7D529E0FFF7B8FC001B022883
:1018900001D90320FEBD28688001F5D41EE001288F
:1018A000F8D06868E96A0322D203A36A02409A4228
:1018B0000AD10907226B090F914205D10F21890432
:1018C0000840E16A884209D00120FEBD0000010005
:1018D0000010024000700040881300000020F4E770
:1018E000F8B504000CD0606A002500280AD02561F4
:1018F000656126464036A562707F002808D00BE05F
:101900000120F8BD6168C81FFD38F2D0E561F0E73D
:101910003577204600F05CF8022272772068016873
:101920004023994301600723E1681B02994201D9D2
:10193000002001E0012000030F273F02B94202D03E
:10194000994200D0A562FF23616805331940212721
:10195000A368BF023B40194323691340227D19430A
:10196000D207D20F11430123A2695B021A4011432F
:10197000E26938231A401143226A80231A40114336
:10198000A26A9B011A40114322681160A1690422D6
:10199000090C1140626A10231A401143626B08233C
:1019A0001A4011430F23E2681B021A40114301221F
:1019B000120310400143206841602068C169521041
:1019C0009143C1612566012070770020F8BD0000B9
:1019D00010B586B0044614216846FEF757FD11493C
:1019E000206888421CD11048826981140A438261B0
:1019F00082690A400592426949010A43426140698D
:101A000008400590E0200090022001900021032072
:101A100003900291049109206946C006FFF714FB68
:101A200006B010BD0030014000100240094910B559
:101A3000401E884201D9012010BD074C606103217E
:101A4000081F00F011FD0020A06107202061002088
:101A500010BD0000FFFFFF0000E000E0F0B502460F
:101A60002032137F012B1ED00125157702235377D7
:101A700006687468B3687027BC430F6827437760B3
:101A800000680A4CA04205D0AC07A04202D0084C26
:101A9000A04204D180244968A3431943816055774B
:101AA00000201077F0BD0220F0BD0000002C0140A6
:101AB0000004004070B5040005D025462035687F3D
:101AC000002802D006E0012070BD002028772046C3
:101AD00000F014F802206877211D206800F05EFAFB
:101AE00001204034A071A877E87720706070A07062
:101AF000E070207160716877002070BD08B50068E3
:101B000001218907884207D10448C1690122114394
:101B1000C161C0691040009008BD00000010024083
:101B2000014620314A7F012A01D00120704702225C
:101B30004A770068094A0121904205D08A079042FD
:101B400002D0074A904204D182685207520F062AF7
:101B500002D002680A43026000207047002C014056
:101B600000040040F8B5054604462035287F0026CD
:101B7000012817D001202877022068772268906812
:101B80007727FF23B8431B029843906008685028CA
:101B900038D00EDC20284FD006DC00284CD010288E
:101BA0001ED149E00220F8BD302845D0402817D189
:101BB0003AE060282ED0702819D001221203801A32
:101BC0000FD090420CD1CB684A688968206800F039
:101BD00027FA20688168012292031143816000E0A6
:101BE000012601206877002028773046F8BDCB68B1
:101BF0004A688968206800F013FA216888683843C9
:101C00008860EEE7CA684968206800F01CFA502135
:101C1000206806E0CA684968206800F025FA60215B
:101C2000206800F008FADCE7CA684968206800F01C
:101C30000AFA40212068F4E7226801461046F0E7DE
:101C400010B586B0044614216846FEF71FFC114902
:101C5000206888421CD11048C269012149040A4306
:101C6000C261C2690A40059242690A434261406901
:101C700008400590042000901220019001210320CB
:101C800003900291049109206946C006FFF7DCF930
:101C900006B010BD0044004000100240FFB50446ED
:101CA000C06F83B017460D46202802D0022007B02F
:101CB000F0BD002D0BD0002F09D00120A16800033A
:101CC000814206D12069002803D1E80701D0012014
:101CD000EDE70021842001512120E067FFF78EFA13
:101CE000264640360190378277820120A1680003A2
:101CF000814202D12069002802D02F46002511E040
:101D000000270FE000228021204600F04FFB002832
:101D100015D1002F17D02168387808857F1C708A6C
:101D2000401E7082708A019B002806980090E9D1BD
:101D300000224021204600F039FB00280AD0202054
:101D4000E0670320B3E728882168C005C00D088537
:101D5000AD1CE4E72020E0670020A8E7FEE70000D4
:101D6000F0B587B014216846FEF790FB354842690C
:101D7000012189040A43426142690A40059242698D
:101D800009010A43426142690A40059242694911C8
:101D90000A434261406901220840059002212A4815
:101DA000FFF726FA092001220321C006FFF720FAD7
:101DB000092000220821C006FFF71AFAFF2001308F
:101DC000002700900197694602972048FFF73CF9E9
:101DD0003126012536046A46E0C269461A48FFF7F3
:101DE00033F902246846B0C0694617480397FFF7E5
:101DF0002BF90B206946A1C109206946C00603974B
:101E0000FFF722F910206A46C1C209206946C006C0
:101E1000FFF71AF96A46D0C269460C48FFF714F971
:101E2000002211460520FFF789FA0520FFF77AFA0C
:101E3000002211460720FFF781FA0720FFF772FA08
:101E400007B0F0BD00100240001400480004004834
:101E500010B511480F490160FF2105314160002193
:101E60000722816012020161C260012241615202B7
:101E70008261016218224162C26181620722C262EC
:101E8000016308214163FFF72BFD002801D072B6E2
:101E9000FEE710BD003001401C00002010B586B0E8
:101EA00000240094012116480194029403940494A0
:101EB0008907059401602F21846041600461611EDF
:101EC0008461C160FFF7F6FD002801D072B6FEE71D
:101ED00001200003009069460948FFF743FE0028EF
:101EE00001D072B6FEE7049404A905480594FFF7F3
:101EF000B5FD002801D072B6FEE706B010BD0000A7
:101F00008000002010B50C480A490160E121490217
:101F1000416000218160C16001618161C16108226D
:101F2000016242614162FFF76FF9002801D072B689
:101F3000FEE710BD00440040C8000020FEE77047E7
:101F4000704710B5FFF79AF910BD10B592B0342163
:101F50006846FEF79BFA00240F94202000900D9411
:101F600001200E940890109409946846FFF7B6FA81
:101F7000002801D072B6FEE707200D9003200E90D6
:101F80000F94012110940DA8FFF7DCF9002801D06F
:101F900072B6FEE712B010BD70470000F0B50268DF
:101FA0001A4B0124A4071A4D984203D0A04201D035
:101FB000A84203D17026B2434E683243154E164FE5
:101FC00098420AD0A04208D0A84206D0134CA042A2
:101FD00003D0B04201D0B84204D103242402A2436A
:101FE000CC6822438024A2434C69224302608A6861
:101FF000C2620A688262984203D0B04201D0B842FD
:1020000001D10969016301214161F0BD002C01404A
:10201000000400400044014000480140002000400E
:1020200030B58468FF252D021B021343AC430B43DC
:102030002343836030BD826870239A430A4307219B
:102040000A438260704730B5036A046A640864001A
:1020500004628469F025AC43120122430A24A3439D
:102060000B438261036230BD30B5036A1024A34381
:1020700003628469036A0F252D031203AC432243D4
:10208000A024A343090119438261016230BD10B548
:10209000818CC90707D001684A6801235B049A4311
:1020A000836A1A434A60818C890707D501684A68A8
:1020B00001231B049A43C36A1A434A60818C49076F
:1020C00007D501684A6801239B049A43036B1A43AE
:1020D0004A60818C090707D501684A680123DB0340
:1020E0009A43436B1A434A60818CC90607D502683C
:1020F000916801231B039943836B19439160818C81
:10210000890607D501688A6801235B039A43C36B7C
:102110001A438A60818C490612D503685A680121E6
:102120000905046C8A4322435A60026C8A4207D133
:102130000268516803235B059943436C194351605E
:10214000818C090607D501684A680123DB04806C8D
:102150009A4302434A6010BDFEB50746002580370A
:1021600004467D60FFF74AF8019020680068264623
:1021700000076036002819DA274800900121002264
:1021800049052046019B00F011F900280ED0EFF31D
:102190001080012181F3108821680A6880239A4306
:1021A0000A6080F310882020E06729E0206800683A
:1021B000400728D5184800900121002289052046B3
:1021C000019B00F0F3F800281DD0EFF310800121EF
:1021D00081F3108821680A68FF2321339A430A603B
:1021E00080F31088EFF31080012181F310882168BB
:1021F0008A68520852008A6080F310882020386074
:1022000035760320FEBD2020E067386025666566D0
:1022100035760020FEBD0000FFFFFF0110B5EFF393
:102220001081012282F3108802681368FF24213490
:10223000A343136081F31088EFF31081012282F32E
:102240001088026893685B085B00936081F31088D4
:10225000016E01290BD1EFF31081012282F3108866
:10226000026813681024A343136081F310882022AE
:1022700080210A5000210166816610BD70B50446B8
:1022800080682169E2690843616900251143226879
:10229000084311683F4B19400143116021684868A9
:1022A000032212039043E26810434860A169206A48
:1022B000084321688A680B231B029A4302438A6001
:1022C00035492068884210D13448006B8007800F60
:1022D0000ED0012805D0022805D003280AD10221FA
:1022E00009E0042107E0082105E02D49884201D1D9
:1022F000002100E010210120E369C003294A2A4E91
:10230000834222D1002906D0022907D0042907D010
:10231000082935D108E0FFF79DF803E0104603E0F7
:10232000FFF7A8F8002830D0616840004A088018FC
:10233000FEF7F2F801461039B14221D81A49491C7A
:1023400001400007400F08431DE0002906D0022984
:1023500007D0042907D0082912D108E0FFF77AF83E
:1023600003E0104603E0FFF785F800280DD0616810
:102370004A081018FEF7D0F801461039B14201D9C9
:10238000012502E080B22168C8600020A066E066F6
:10239000284670BDF369FFEF00380140001002408D
:1023A0000044004000127A00EFFF0000FFB506462F
:1023B00081B080360546044660350A9F2EE0781CC1
:1023C0002CD0FEF71BFF0499401AB84214D8002FF6
:1023D00012D020680168490720D5C169C94309079F
:1023E0000CD4082707622046FFF718FF776000200B
:1023F0002876012005B0F0BD0320FBE7C069C0438B
:1024000000050BD401202168C00208622046FFF7B6
:1024100005FF2020706000202876EDE72068C16964
:102420000298884305D0002103988142C7D000203C
:10243000E0E70121F8E7F8B5040C8BB2264682B23A
:102440005E430D0C1046370C5843360480190021AA
:10245000794116466E43370C360480197941264679
:102460006E438919F8BD00008307FF22DB0E9A40F6
:102470008907090E9940002808DB830809489B005A
:102480001B18186890430843186070470007000F36
:102490000838830804489B001B18D86990430843F8
:1024A000D861704700E400E000ED00E00549401805
:1024B00004D0012803D0022801D00814704700205E
:1024C00070470000FF7FFFFF0249401800D0002046
:1024D00070470000FF7FFFFF0549401805D0012825
:1024E00002D0022801D00020704701207047000070
:1024F000FF7FFFFF70B5114D040014D020783A28FB
:1025000011D10FA12046FDF7C3FF00280DD00EA169
:102510002046FDF7BDFF002809D00DA12046FDF79C
:10252000B7FF002806D0284670BD0B4870BD0A488A
:10253000401C70BD0848801C70BD0000FFFFFFFFFD
:102540003A535444494E00003A5354444F555400B2
:102550003A53544445525200018000000020C043C9
:102560007047000070B50D460C49144641180C48E0
:1025700012D0012902D002290ED107E0002C0AD086
:1025800028786D1C00F056F8641EF7E7002C02D086
:1025900000BE641EFAE7002070BD0000FF7FFFFF51
:1025A000FFFFFFFF10B500F047F810BD13B564231F
:1025B000012269460248FFF771FB00981CBD00002C
:1025C000C8000020FEF762FEFFF7BFFCFFF7C8FB64
:1025D000FFF73EFCFFF796FCFFF760FC0848FFF7AB
:1025E0009FFA08A0FDF78EFE0924E4067D25ED0084
:1025F00008212046FEF7F4FD2846FEF7C1FCF7E768
:1026000080000020556E7469746C65642053687591
:1026100074746572205370656564205465737465C5
:10262000722064656B754E756B656D203230323388
:102630000D0A0000002070477047020304050607DA
:1026400008090A0B0C0D0E0F1010010203040506F9
:102650000708090A0B0C0D0E0F1000000000000007
:10266000000001020304060708090000000001023F
:1026700003043A535444494E003A5354444F55547A
:10268000003A5354444552520030313233343536D7
:1026900037383941424344454640305800303132A2
:1026A0003334353637383961626364656640307873
:1026B00000000000D4260008000000201C000000DC
:1026C00004010008F02600081C0000209408000007
:1026D00020010008010000000400000000000000CC
:1026E00000127A000000000000000000000000005E
:04000005080000C12E
:00000001FF
