:020000040800F2
:10000000580B002085010008E5200008051F0008A6
:1000100000000000000000000000000000000000E0
:10002000000000000000000000000000C5220008E1
:100030000000000000000000E7200008C7220008C0
:10004000B5010008B5010008B5010008B5010008B8
:10005000B5010008ED0F0008B5010008FD0F00080C
:10006000B5010008B5010008B5010008B501000898
:10007000B5010008B5010008B5010008B501000888
:10008000B50100080000000000000000B5010008F4
:1000900000000000B5010008B5010008B501000826
:1000A00000000000B5010008B5010008B501000816
:1000B000B501000800000000B5010008B501000806
:1000C00000F002F800F04EF80CA030C808382418F0
:1000D0002D18A246671EAB4654465D46AC4201D180
:1000E00000F040F87E460F3E0FCCB6460126334264
:1000F00000D0FB1AA246AB4633431847D842000053
:10010000F8420000103A02D378C878C1FAD85207F2
:1001100001D330C830C101D504680C6070470000BD
:100120000023002400250026103A01D378C1FBD813
:10013000520700D330C100D50B60704710B5642959
:1001400002D100F0E9F810BD002010BD1FB50098E5
:10015000019900F048FD00F073FB1FBD10B500F0E1
:10016000DBFB10BD00F00EFC1146FFF7EFFF02F0C5
:100170000FFC00F00DFD03B4FFF7F0FF03BC00F02F
:10018000A3FE00000F4880F308880F480168090E9D
:100190000E4A914205D10E480E4901600E480F49A2
:1001A00001600F4880470F480047FEE7FEE7FEE783
:1001B000FEE7FEE7FEE700000B480C490C4A0D4B3A
:1001C00070470000580B0020040000001F000000D2
:1001D0001810024001000000000001400000000073
:1001E0001D230008C100000858050020580B0020FE
:1001F0005807002058070020FEB5054610460C465B
:10020000184373D0AE468C460020AD1A01469C417F
:1002100067D36646002701243D46B61A9D4102D3A6
:1002200013463A462124654676462F04360C3E4353
:100230002D0CB61A9D4104D3150C1B042B4312043C
:100240001034654676462F06360A3E432D0AB61A06
:100250009D4104D3150E1B022B4312020834654640
:1002600076462F0736093E432D09B61A9D4104D321
:10027000150F1B012B431201241D65467646AF075F
:10028000B6083E43AD08B61A9D4104D3950F9B00B6
:100290002B439200A41C65467646EF0776083E4342
:1002A0006D08B61A9D411AD392185B41641C16E082
:1002B0000018764665464941B71A9D410191009064
:1002C00009D36046B11A98418E4684460098019938
:1002D0000025401C6941DD0752082A435B08641E63
:1002E000E6D57246634603B0F0BDFFE70020014645
:1002F000C046C0462A462346F5E700000FB405492C
:1003000010B503AA029800F06BFA10BC08BC04B048
:10031000184700004C040020F7B500257529106827
:10032000009914A611D0C046C046002802DA404207
:1003300011A608E0009909688A0701D50FA602E016
:10034000490704D50EA6012501E0C046C046009F1E
:100350000024243704E000F057FA30313955641C8A
:100360000028F8D12B4632462146009800F0C8F903
:10037000FEBD0000000000002D0000002B0000006A
:1003800020000000F3B50446002081B02062204622
:10039000E168884700287AD0252802D06268A168E1
:1003A00071E0E16820460025884706460020E061AC
:1003B0000746A0612A2E0AD0304602F039FA0028FA
:1003C00027D0B8000019303E0090866119E00298ED
:1003D000BA00121902C8916102902046E16888476C
:1003E000012F064617D1E06900281FDA2020854337
:1003F0001CE000980A218069484300998019303830
:1004000088612046E1688847064602F011FA002814
:10041000EFD1012F0AD02E2E08D12046E16888475F
:100420000646202005437F1C022FC3DBA06900285D
:1004300003DA4042A06101200543E80701D0102003
:100440008543002E23D030464138192803D8012097
:10045000C00205432036204625603146029A1546E3
:10046000FFF76CFE00280BD0012806D0ED1DE80830
:10047000C000083002908AE709E02D1D029586E74A
:1004800062683046A1689047206A401C7EE7206A77
:10049000FEBD000030B5441C03E00178401C00297B
:1004A0000DD08107F9D10B4BDD0104C8D11A91435E
:1004B0002940FAD0001B0A0603D0C01E30BD001B25
:1004C00030BD0A0401D0801E30BD0902FCD0401EA0
:1004D00030BD00000101010101E004C0091F042931
:1004E000FBD28B0701D50280801CC90700D00270A7
:1004F000704700290BD0C30702D00270401C491E70
:10050000022904D3830702D50280801C891EE3E7F9
:100510000022EEE70022DFE7024670B50A439207A9
:100520002AD11E4DEE0104C808C9541B944334401F
:1005300017D0D0B2D9B2401A2106014310D190B2DF
:1005400099B2401A210401430AD110021902000A8B
:10055000090A401A2102014302D1100E190E401A55
:1005600070BD9A42DFD010BA19BA884201D9012071
:1005700070BD0020C04370BD02780B78401C491C40
:10058000002A09D09A4207D102780B78401C491CF6
:10059000002A01D09A42EFD0D01A70BD01010101AA
:1005A000002203098B422CD3030A8B4211D3002370
:1005B0009C464EE003460B433CD4002243088B424A
:1005C00031D303098B421CD3030A8B4201D39446D7
:1005D0003FE0C3098B4201D3CB01C01A52418309CA
:1005E0008B4201D38B01C01A524143098B4201D384
:1005F0004B01C01A524103098B4201D30B01C01AAF
:100600005241C3088B4201D3CB00C01A5241830828
:100610008B4201D38B00C01A524143088B4201D355
:100620004B00C01A5241411A00D2014652411046B5
:1006300070475DE0CA0F00D04942031000D340422A
:10064000534000229C4603098B422DD3030A8B4260
:1006500012D3FC22890112BA030A8B420CD38901FE
:1006600092118B4208D3890192118B4204D38901E4
:100670003AD0921100E08909C3098B4201D3CB0122
:10068000C01A524183098B4201D38B01C01A5241D7
:1006900043098B4201D34B01C01A524103098B42DB
:1006A00001D30B01C01A5241C3088B4201D3CB00C6
:1006B000C01A524183088B4201D38B00C01A5241A9
:1006C000D9D243088B4201D34B00C01A5241411A80
:1006D00000D20146634652415B10104601D34042AE
:1006E000002B00D54942704763465B1000D340425F
:1006F00001B50020C046C04602BD70477047704734
:10070000FFB504460D4681B024300090216888066C
:1007100004D51022E0699143216000E00120A84245
:1007200001DD471B00E000270498A1697A19101821
:10073000081AA0612078C00602D42046C046C046F0
:10074000002608E003986268A168805D9047206AEF
:10075000401C761C206204988642F3DB2078C00699
:100760000AD52046C046C04606E06268A16830202F
:100770009047206A401C206238467F1E0028F4DC27
:1007800007E000986268A168405D9047206A401CBD
:10079000206228466D1E0028F3DC2046C046C04675
:1007A0002078000602D5022005B0F0BD0120FBE74D
:1007B00001694A1C02610878704700B58FB0029148
:1007C0000021059105490193794403911146049054
:1007D0006846FFF7D7FD0FB000BD0000E5FFFFFF43
:1007E000084B70B50D467B44FFF7E7FF04462846EB
:1007F00000F022F8002802D00020C04370BD20463F
:1008000070BD00008F21000001468008081A02090F
:100810001018020A1018020C1018C00882001218D2
:100820005200891A01E0401C0A390A29FBD270479C
:1008300000487047F4040020C068802108407047D9
:1008400010B543485421FFF765FE42485421FFF795
:1008500061FE41485421FFF75DFE40483C493D4B55
:10086000404A01603E4803603B4810605A1C0A65DC
:10087000411C1965012101653C48354A3AA178447B
:1008800000F0ECF8002804D1384878440C3800F027
:1008900087F938482F4A36A1784400F0DFF800285D
:1008A00004D1344878440C3800F07AF932482A4AA6
:1008B0002FA1784400F0D2F8002804D12E487844C3
:1008C0000C3800F06DF940232148DC00002122465D
:1008D00000F09EF8002804D0244878445C3800F0EA
:1008E0005FF91C4822464023002100F091F80028BF
:1008F00004D0204878445C3800F052F9164822466B
:100900001023002100F084F8002804D01A4878440D
:100910005C3800F045F910BD0F4870B5006D440813
:100920000B48640000F00EF90A4800F00BF90A4881
:1009300000F008F909E0206D450820466D0000F040
:1009400001F9204600F03DF82C46002CF3D170BD93
:10095000F80300204C040020A00400203C000020EC
:10096000400000204400002072000000103B000006
:1009700077000000FD3A0000EB3A000000487047A5
:10098000F40400207546FFF7F9FFAE4605006946FE
:100990005346C008C000854618B020B5FFF70CFCD0
:1009A00060BC00274908B6460026C0C5C0C5C0C502
:1009B000C0C5C0C5C0C5C0C5C0C5403D49008D4605
:1009C000704770B50446051F00F0F0F80068002C71
:1009D0001AD0446801E020466468002C01D0AC4283
:1009E000F9D301680A18AA4204D12A680546891871
:1009F000016000E0456028684119A14205D16168A5
:100A0000696021684018286070BD6C6070BD00008E
:100A100070B5C468A50713D0650211D4D51FF93D80
:100A20000AD0FF3D6D1E07D0FF3DFF3D022D07D1CF
:100A300001462431012305E0074E5D1EB54201D376
:100A4000012070BD0161C36141600F2109028C4327
:100A50001443C460002070BDFFFFFF00F7B51646C9
:100A60000C46104600F06EF82078611C61280AD010
:100A7000722802D0772839D102E00125002404E051
:100A80000225042401E02D4D08240222032301271E
:100A90000878491C2B2806D0622807D02039C87F47
:100AA000742807D008E01D431443F1E704200543F0
:100AB0003C43EDE7102004430098214601F0E4FE9A
:100AC000411C13D00021316171600121F5604902A0
:100AD000F1617061200704D530460222002100F048
:100AE000E1F8306D384330653046FEBD0020FEBD74
:100AF000F8B50D460646124C206DC10704D04108DA
:100B000004D044086400F7E7224610E0542000F0C7
:100B100097F8070010D07908206D49000122114391
:100B20000843542120653846FFF7F4FC3A4629462D
:100B30003046FFF793FFF8BD0020F8BD02800000AB
:100B4000F8030020FEB50446466900690F4F019086
:100B5000E56800200090A80707D0204600F04CF977
:100B6000304601F06DFE002801DA3846FEBD28054A
:100B700002D50198FFF725FF4C212046FFF7CAFC5C
:100B8000206D4008400020650098FEBDFFFFFFFF7C
:100B900010B50446C046C0462046FFF7ECFA10BD2B
:100BA00010B500F077F900F06FF910BD00487047FC
:100BB000FC040020704770477047704738B5044602
:100BC0000A4600206946C046C046002805D00246B5
:100BD0002046009900F085F9012038BD10B50120AC
:100BE00000F0D4F910BDF8B5C046C0460546002057
:100BF0000C461020C0460646A819A0420DD9324620
:100C000069460020C046C046070001D100F0BEF989
:100C10000098A04200D00546C419FFF7C7FFF61D93
:100C200007460560F008C0004619284600F052F952
:100C3000B44204D031463868A21B00F052F9F8BD26
:100C400070B50646FFF7B2FF056830460B30C408A2
:100C5000E400B44201D8002070BD68682A4600282C
:100C600018D00168A14211D30B46214608318B42AE
:100C700008D3436801194B6003681B1B0B6051606C
:100C8000046001E041685160001D70BD024640688B
:100C90000028E6D121462846FFF790FF0028DCD146
:100CA00070BD0000F8B5044616460D464769007B46
:100CB000800730D0384601F0D9FD00282BD13246CC
:100CC0001026002A25D0012A02D0022A23D104E0CE
:100CD000204600F020F945191BE0384601F0BEFD22
:100CE000E16831430028E16004DA204600F054F85E
:100CF0000120F8BDC9030BD56268E16A914200D8B2
:100D00001146A26989182269891A814200DD0846C4
:100D10002D18002D01DA0220F8BDE16A6068E26852
:100D2000814206D29103E06203D5012149048A433E
:100D30003243A669AE4211DCE16A814201D90B4619
:100D400000E003469F192369FF1AAF4206DD814286
:100D500001D90F4600E007469F4206D120200243FA
:100D60000020A060A56220600DE0AD1BE669AE1B0F
:100D70008142A66000D90846C01A281A2060581976
:100D8000606020208243034802400020E26040343B
:100D90002072F8BDBFCFD7FFC168802211439203F4
:100DA0009143C1600021816001607047F7B514462E
:100DB0000E463348D5685769054209D03846A169BF
:100DC00001F096FD002811DB2D48C0430540E56089
:100DD0002B4632463846009901F08EFD4200A1694B
:100DE0005208B21A89180028A16104D02046FFF7E2
:100DF000D3FF0020C043FEBD70B504460569C06A3C
:100E00006168884200D80846E1680522D20491430F
:100E1000E160C90314D5A84209D02246411B2846E7
:100E2000FFF7C4FF002802D00020C04370BDE56278
:100E300000206560A060E068012109048843E0604B
:100E4000002070BD10B50446C06820218843E060D2
:100E5000A16AA06988420ED02046FFF7CDFFE06866
:100E600003210903884310210843E060A06AA061C0
:100E70002069E06260600349E0680840E06010BDFE
:100E800010000200BFBFFFFF10B5002801D000F026
:100E90001BF810BD10B5014602A000F05DF801205E
:100EA00010BD000053494752545245443A20526500
:100EB0006469726563743A2063616E2774206F7091
:100EC000656E3A200000000001491820ABBEFEE725
:100ED0002600020000210160416080607047102000
:100EE000704710B50346406801E00346406800289B
:100EF00001D08842F9D31868C3188B4206D0CB1CA6
:100F0000D808C000001D411A521A0146081D0A6087
:100F1000FFF757FD10BD10B50146C268900703D01A
:100F2000900607D5886A0AE0FFF782FC012101607C
:100F3000881E10BD8B694868C0180B69C01A403103
:100F40000B7A002B02D0497A401A10BD1103FCD550
:100F50000028FADD401E10BD70B505460C460A207B
:100F600000E06D1C01F0E8FC002D06D02878002878
:100F7000F7D102E0641C01F0DFFC002C02D02078E5
:100F80000028F7D10A2001F0D7FC70BD10B500F0A1
:100F900005F8FFF779FF10BD7047000010B5012874
:100FA00005D0002103A0FFF7D7FF012010BD09A144
:100FB000F8E7000053494752544D454D3A204F75CC
:100FC00074206F662068656170206D656D6F727941
:100FD000000000003A2048656170206D656D6F72F9
:100FE0007920636F727275707465640010B50120AA
:100FF00000F04AF8022000F047F810BD10B51020AC
:1010000000F042F810BD000070B5044600F01AF977
:101010000546601C02D004480078241800F012F93C
:10102000401BA042FAD370BD2C00002000B502285E
:101030000ED0102816D0012809D110480069C00729
:10104000C00F01F013FD01460D4801F0D7FE00BDB1
:101050000C4800690221084001F008FD01460848DB
:101060002838F2E70920C00600691021084001F085
:10107000FDFC014602481438E7E700000014004870
:10108000A40300200004004810B504494A69024244
:1010900002D04861FFF7CAFF10BD00000004014004
:1010A000F8B5002303240125B5E02E469E40B44642
:1010B00032407CD00E79B607B60F012E01D0022E39
:1010C00017D186682746B6465E00B740009676463A
:1010D000BE43B646CF68009EB7407646374387602A
:1010E00046686746BE430F79FF06FF0F9F403743B0
:1010F00047600E79F643B6070ED0C6682746B44659
:101100005E00B646B7406646BE43B4468F68764634
:10111000B74066463743C7600E79B607B60F022E52
:1011200014D1DE08B60036180096366A5F07B4465A
:10113000FE0E0F27B646B7406646BE43B4460F695B
:101140007646B74066463743009E376206682746B4
:10115000B4465E00B646B7406646BE430F79B44615
:10116000BF07BF0F7646B7406646374307604E68F5
:10117000B603B60F4ED02B4FBE692E43BE61BE697B
:101180009F08F607F60F284EBF00BE190096B668F6
:101190000F27B4469E07360FB646B7406646BE4395
:1011A0000927FF06B446B84202D100270BE031E020
:1011B0001E4FB84201D1012705E01D4FB84201D1B1
:1011C000022700E005277646B74066463743009E73
:1011D000B760184EB6684F689643FF0200D51643B5
:1011E000144FBE60FE684F689643BF0200D5164399
:1011F000104FFE607E684F689643BF0300D51643CC
:101200000C4F7E603E684F689643FF0300D516433F
:10121000084A16605B1C0A681646DE4000D044E7A8
:10122000F8BD00000010024000000140000400482A
:101230000008004800040140002A01D08161704785
:101240008162704701488068704700002C000020D0
:1012500010B5040003D0E06F002802D007E00120A1
:1012600010BD002178200155204600F0BDFD24204E
:10127000E06720680168490849000160204601F0E4
:10128000BFF90128ECD0606A002802D0204601F0A6
:10129000C0F8206841680922D20291434160206869
:1012A000816822229143816020688168082211436D
:1012B000816020680168012211430160204601F02D
:1012C0000DF910BD02488168027889188160704765
:1012D0002C00002010B5064801681022114301605F
:1012E000032000F007F800F027F8002010BD0000F0
:1012F0000020024070B504460D4D7D202978C000C5
:10130000FFF74EF901460B480068FFF749F900F076
:1013100061FC002809D1042C07D200222146401E7E
:1013200000F030F800206C6070BD012070BD00003E
:101330002C0000203800002008B50A4881690122ED
:1013400011438161816911400091C26901040A431E
:10135000C261C0690840009003480168102211432F
:10136000016008BD0010024000000140002805DBBC
:10137000C106C90E0120884001490860704700007D
:1013800000E100E010B501F031FA10BDF8B50F46EC
:1013900006005ED03C4D2868C007C00FB84209D295
:1013A000286840084000384328602868C007C00FFC
:1013B000B8424ED13068354C81070CD5400704D572
:1013C000606807210902084360606068F021884373
:1013D000B168084360603078C0072BD0706801287E
:1013E00010D0022810D0032811D0216889070029C5
:1013F0002FDA61688908890001436160FFF722FFE5
:10140000009010E0216803E021688901EFE7616B3B
:101410008903ECE7FFF716FF0099411A1C48814247
:1014200001D90320F8BD60680C210840716889006B
:101430008842EFD12868C007C00FB8420BD928688E
:1014400040084000384328602868C007C00FB842F1
:1014500001D00120F8BD3078400706D5606807212B
:1014600009028843F1680843606000F027F861686A
:10147000084A0906090F515CC84007490860032063
:10148000FFF738FF0020F8BD0020024000100240A6
:10149000881300007A4300083800002004480549FA
:1014A00000684968044A4905490F515CC8407047C3
:1014B00038000020001002408A43000870B5154A29
:1014C00051680C200B4603401348042B05D0134DE4
:1014D000082B03D00C2B00D1284670BD8B02104C7A
:1014E0001B0FE45CD26A0E4B1207120F1033C903B4
:1014F0009A5C890F022901D0032901D0002301E061
:10150000002328460021FEF777FE214601F055F919
:1015100070BD00000010024000127A00006CDC0276
:101520005A430008FEB5040070D02078F94EFA4DF9
:10153000C00748D068680007800F01281FD068687E
:101540000007800F022804D16868C003800F0228BA
:1015500015D06168012919D001208004002901D02B
:10156000052917D02968B14329602968814329607A
:10157000606800281BD0FFF765FE074613E0286867
:10158000800320D560680028CED01CE02868304356
:101590002860EDE7296801432960F7E7FFF752FE6D
:1015A000C01B642870D828688003F7D50BE0FFF7CC
:1015B00049FE074604E0FFF745FEC01B6428F1D84A
:1015C00028688003F7D4207880073FD56868000733
:1015D000800F14D068680007800F022804D1686863
:1015E000C003800F01280AD0E068002828681ED0B8
:1015F000012108432860FFF725FE07460CE0286814
:1016000080070CD5E068012800D108E080E1FFF7F1
:1016100019FEC01B0228C5D828688007F7D528689E
:10162000F82188432169C900084328600EE040087A
:1016300040002860FFF706FE074604E0FFF702FEC1
:10164000C01B0228AED828688007F7D4207800078E
:1016500023D5E0690028686A0FD001210843686239
:10166000FFF7F0FD074604E0FFF7ECFDC01B022882
:1016700098D8686A8007F7D50FE040084000686294
:10168000FFF7E0FD074605E0C3E0FFF7DBFDC01B09
:10169000022887D8686A8007F7D420780427400793
:1016A000002861DA00200190E869C00008D4E969E7
:1016B000B8060143E961E969014001200091019008
:1016C00096480168C90511D401688215114301606B
:1016D000FFF7B8FD009005E0FFF7B4FD0099401A50
:1016E000642898D88D480068C005F5D5A068012801
:1016F0000AD0002801D0052811D0286A40084000EF
:101700002862286AB84302E0286A01210843286257
:10171000A068002812D0FFF795FD00900AE0286A23
:1017200038432862F0E7FFF78DFD0099411A7C48A5
:1017300081426ED8286A8007F5D50DE0FFF782FD5B
:10174000009006E0FFF77EFD0099411A744881423F
:101750005FD8286A8007F5D40198002804D0E96989
:10176000012000078143E9612078C00635D5606912
:1017700001280CD0401D686B24D038436863686B27
:10178000400840006863FFF75DFD074622E0686B94
:1017900038436863686B012108436863FFF752FDB3
:1017A000074604E0FFF74EFDC01B022831D8686BE6
:1017B0008007F7D5686BF8218843A169C900084301
:1017C00068630AE0B8436863F4E7FFF73BFDC01BBA
:1017D00002281ED8686B8007F7D42078800637D59A
:1017E00068680007800F032814D068680007800F1E
:1017F000022804D16868C003800F03280AD0206A39
:101800000028686B16D030436863FFF71BFD06465F
:101810000CE062E0686B80031AD5206A012877D15A
:1018200016E0FFF70FFD801B022856D8686B800377
:10183000F7D50DE0B0436863FFF704FD064604E00A
:10184000FFF700FD801B022847D8686B8003F7D4A0
:10185000606A002866D069680907890F022942D0AA
:10186000012636060228286805D0B0432860FFF715
:10187000E9FC044633E0B0432860FFF7E3FC074689
:1018800004E0FFF7DFFCC01B022826D8286880018F
:10189000F7D4E86A216B000900010843E862A16AF5
:1018A000E06A084369687B22D20391430843686079
:1018B000286830432860FFF7C5FC044604E0FFF7C2
:1018C000C1FC001B022808D828688001F7D529E050
:1018D000FFF7B8FC001B022801D90320FEBD2868D1
:1018E0008001F5D41EE00128F8D06868E96A032277
:1018F000D203A36A02409A420AD10907226B090F58
:10190000914205D10F2189040840E16A884209D03B
:101910000120FEBD000001000010024000700040E8
:10192000881300000020F4E7F8B504000CD0606ACA
:10193000002500280AD02561656126464036A5624B
:10194000707F002808D00BE00120F8BD6168C81F37
:10195000FD38F2D0E561F0E73577204600F05CF81D
:1019600002227277206801684023994301600723AF
:10197000E1681B02994201D9002001E00120000327
:101980000F273F02B94202D0994200D0A562FF233F
:101990006168053319402127A368BF023B40194302
:1019A00023691340227D1943D207D20F114301232B
:1019B000A2695B021A401143E26938231A401143BD
:1019C000226A80231A401143A26A9B011A401143E4
:1019D00022681160A1690422090C1140626A102377
:1019E0001A401143626B08231A4011430F23E26827
:1019F0001B021A40114301221203104001432068C8
:101A000041602068C16952109143C161256601207F
:101A100070770020F8BD000010B586B00446142190
:101A20006846FEF777FD1149206888421CD11048AE
:101A3000826981140A43826182690A40059242697F
:101A400049010A434261406908400590E020009046
:101A500002200190002103200390029104910920AB
:101A60006946C006FFF71CFB06B010BD0030014000
:101A700000100240FFB5054604464035287F002788
:101A800081B01646012809D001202877FFF7DAFB3C
:101A90000090687F012804D0022797E0022005B05B
:101AA000F0BD0298002874D0002E72D00320687711
:101AB000002020660299A163A687E6872064A8809B
:101AC000E8802065E0640122A068D20340219042B2
:101AD00008D1206802688A430260206802680B020D
:101AE0001A43026020680268520602D402680A4360
:101AF00002600721E06809028842606828D900284E
:101B000001D0012E1ED1A06B21680088C86006E0BC
:101B100020688168890709D5A16B0988C160A06B1D
:101B2000801CA063E08F401EE0870BE0FFF78AFB7C
:101B30000099411A0498814202D3401C02D005E06A
:101B4000002803D0E08F0028E2D128E003273BE003
:101B5000002801D0012E1FD1A06B216800780873E6
:101B600006E020688168890709D5A16B09780173AF
:101B7000A06B401CA063E08F401EE0870CE0FFF7E5
:101B800061FB0099411A0498814203D3401C03D0A1
:101B9000DCE717E00028D9D0E08F0028E1D120460B
:101BA000009A049900F0A0FA002801D020202066B5
:101BB000A068002803D12068C16880680090206E6A
:101BC000002801D0012701E0012068770020287754
:101BD000384664E7094910B5401E884201D9012002
:101BE00010BD074C60610321081F00F0FFFD0020BD
:101BF000A06107202061002010BD0000FFFFFF0052
:101C000000E000E0F0B502462032137F012B1ED029
:101C1000012515770223537706687468B368702727
:101C2000BC430F682743776000680A4CA04205D088
:101C3000AC07A04202D0084CA04204D180244968DD
:101C4000A34319438160557700201077F0BD02202F
:101C5000F0BD0000002C01400004004070B50400FD
:101C600005D025462035687F002802D006E00120F7
:101C700070BD00202877204600F014F80220687715
:101C8000211D206800F04CFB01204034A071A87792
:101C9000E87720706070A070E070207160716877E4
:101CA000002070BD08B5006801218907884207D16E
:101CB0000448C16901221143C161C069104000900C
:101CC00008BD000000100240014620314A7F012A71
:101CD00001D00120704702224A770068094A012199
:101CE000904205D08A07904202D0074A904204D120
:101CF00082685207520F062A02D002680A43026025
:101D000000207047002C014000040040F8B5054653
:101D100004462035287F0026012817D00120287787
:101D200002206877226890687727FF23B8431B0258
:101D3000984390600868502838D00EDC20284FD097
:101D400006DC00284CD010281ED149E00220F8BD46
:101D5000302845D0402817D13AE060282ED070288E
:101D600019D001221203801A0FD090420CD1CB68F7
:101D70004A688968206800F015FB206881680122A4
:101D800092031143816000E0012601206877002062
:101D900028773046F8BDCB684A688968206800F02B
:101DA00001FB2168886838438860EEE7CA684968A3
:101DB000206800F00AFB5021206806E0CA684968E4
:101DC000206800F013FB6021206800F0F6FADCE7E1
:101DD000CA684968206800F0F8FA40212068F4E7F2
:101DE000226801461046F0E710B586B0044614217B
:101DF0006846FEF78FFB1149206888421CD11048C5
:101E0000C269012149040A43C261C2690A400592BC
:101E100042690A43426140690840059004200090ED
:101E200012200190012103200390029104910920C6
:101E30006946C006FFF734F906B010BD0044004003
:101E400000100240FFB50446C06F83B017460D4630
:101E5000202802D0022007B0F0BD002D0BD0002FAB
:101E600009D00120A1680003814206D12069002821
:101E700003D1E80701D00120EDE7002184200151C2
:101E80002120E067FFF7DEF92646403601903782D1
:101E900077820120A1680003814202D120690028D5
:101EA00002D02F46002511E000270FE000228021FC
:101EB000204600F03DFC002815D1002F17D02168E6
:101EC000387808857F1C708A401E7082708A019B5A
:101ED000002806980090E9D100224021204600F019
:101EE00027FC00280AD02020E0670320B3E72888D9
:101EF0002168C005C00D0885AD1CE4E72020E0671F
:101F00000020A8E7FEE70000F0B587B0142168467E
:101F1000FEF700FB35484269012189040A4342610A
:101F200042690A400592426909010A4342614269D5
:101F30000A400592426949110A43426140690122FF
:101F40000840059002212A48FFF776F9092001226E
:101F50000321C006FFF770F9092000220821C006FE
:101F6000FFF76AF9FF2001300027009001976946CA
:101F700002972048FFF794F83126012536046A4677
:101F8000E0C269461A48FFF78BF802246846B0C0E1
:101F9000694617480397FFF783F80B206946A1C1EC
:101FA00009206946C0060397FFF77AF810206A46B1
:101FB000C1C209206946C006FFF772F86A46D0C25E
:101FC00069460C48FFF76CF8002211460520FFF720
:101FD000D9F90520FFF7CAF9002211460720FFF7BB
:101FE000D1F90720FFF7C2F907B0F0BD0010024099
:101FF000001400480004004810B511480F49016062
:10200000FF21053141600021072281601202016138
:10201000C260012241615202826101621822416262
:10202000C26181620722C262016308214163FFF736
:102030007BFC002801D072B6FEE710BD00300140E5
:102040004802002010B586B00024009401211648F3
:1020500001940294039404948907059401602F214C
:10206000846041600461611E8461C160FFF7F6FD18
:10207000002801D072B6FEE70120000300906946F7
:102080000948FFF743FE002801D072B6FEE704942A
:1020900004A905480594FFF7B5FD002801D072B6E4
:1020A000FEE706B010BD0000AC02002010B50C48E1
:1020B0000A490160E1214902416000218160C1605B
:1020C00001618161C1610822016242614162FFF7E1
:1020D000BFF8002801D072B6FEE710BD00440040F2
:1020E000F4020020FEE77047F8B50F460B46154690
:1020F0000092032104460022C90200F01BF82026AA
:10210000002812D13B46002280212046009500F095
:102110007DF8002809D103213B46002249022046D0
:10212000009500F007F8002803D0206E30432066A9
:102130000320F8BDFFB585B00E4604460020694671
:102140000E9D17460871FFF77DF8411B0898451A48
:10215000FFF778F80390206823210C3002902A487A
:1021600000684843000D684346E003204002864271
:1021700006D1002F04D102980178684601710079D8
:102180000898401C39D0FFF75DF80399401AA8421F
:1021900005D2002D03D0009800282BD02BE020681A
:1021A0004168E022914341606068C11FFD390CD154
:1021B0000121A068C903884202D04911884204D194
:1021C000206801684022914301600120A16A400318
:1021D000814207D121680A6882430A6021680A683F
:1021E00002430A60012040346077002020770320FA
:1021F00009B0F0BD0025401E009020688068304086
:10220000B842B2D10020F3E738000020FFB581B01A
:102210001E4604460A9DFFF715F8401B351AFFF7C6
:1022200011F80746264800684001000D684339E070
:10223000701C38D0FFF706F8C01BA84205D2002D4D
:1022400003D0009800282BD02BE020684168E022C2
:10225000914341606068C11FFD390CD10121A06824
:10226000C903884202D04911884204D1206801681C
:102270004022914301600120A16A4003814207D1BD
:1022800021680A6882430A6021680A6802430A607A
:1022900001204034607700202077032005B0F0BD96
:1022A0000025401E0090206881680298884305D070
:1022B000002103988142BBD10020EFE70121F8E71C
:1022C00038000020704710B5FEF7FCFF10BD10B5B8
:1022D00092B034216846FEF71DF900240F942020A7
:1022E00000900D9401200E94089010940994684673
:1022F000FFF718F9002801D072B6FEE707200D900D
:1023000003200E900F94012110940DA8FFF73EF8C2
:10231000002801D072B6FEE712B010BD7047000071
:10232000F0B502681A4B0124A4071A4D984203D055
:10233000A04201D0A84203D17026B2434E68324376
:10234000154E164F98420AD0A04208D0A84206D097
:10235000134CA04203D0B04201D0B84204D10324B0
:102360002402A243CC6822438024A2434C69224326
:1023700002608A68C2620A688262984203D0B042F0
:1023800001D0B84201D10969016301214161F0BD69
:10239000002C01400004004000440140004801407E
:1023A0000020004030B58468FF252D021B02134336
:1023B000AC430B432343836030BD826870239A4350
:1023C0000A4307210A438260704730B5036A046AF2
:1023D0006408640004628469F025AC43120122435E
:1023E0000A24A3430B438261036230BD30B5036A04
:1023F0001024A34303628469036A0F252D0312038B
:10240000AC432243A024A343090119438261016222
:1024100030BD10B5818CC90707D001684A68012317
:102420005B049A43836A1A434A60818C890707D503
:1024300001684A6801231B049A43C36A1A434A602D
:10244000818C490707D501684A6801239B049A4398
:10245000036B1A434A60818C090707D501684A68F3
:102460000123DB039A43436B1A434A60818CC906FC
:1024700007D50268916801231B039943836B1943B5
:102480009160818C890607D501688A6801235B0306
:102490009A43C36B1A438A60818C490612D503683C
:1024A0005A6801210905046C8A4322435A60026C70
:1024B0008A4207D10268516803235B059943436C44
:1024C00019435160818C090607D501684A680123C8
:1024D000DB04806C9A4302434A6010BDFEB5074698
:1024E0000025803704467D60FEF7ACFE0190206831
:1024F0000068264600076036002819DA2748009051
:102500000121002249052046019B00F011F9002815
:102510000ED0EFF31080012181F3108821680A6842
:1025200080239A430A6080F310882020E06729E026
:1025300020680068400728D5184800900121002233
:1025400089052046019B00F0F3F800281DD0EFF329
:102550001080012181F3108821680A68FF2321334C
:102560009A430A6080F31088EFF31080012181F311
:10257000108821688A68520852008A6080F31088A7
:102580002020386035760320FEBD2020E0673860CB
:102590002566656635760020FEBD0000FFFFFF0161
:1025A00010B5EFF31081012282F3108802681368DE
:1025B000FF242134A343136081F31088EFF31081CB
:1025C000012282F31088026893685B085B009360C5
:1025D00081F31088016E01290BD1EFF310810122E4
:1025E00082F31088026813681024A343136081F3F8
:1025F0001088202280210A5000210166816610BDCA
:1026000070B5044680682169E26908436169002564
:1026100011432268084311683F4B19400143116080
:1026200021684868032212039043E268104348601F
:10263000A169206A084321688A680B231B029A4318
:1026400002438A6035492068884210D13448006BC3
:102650008007800F0ED0012805D0022805D003285E
:102660000AD1022109E0042107E0082105E02D49F3
:10267000884201D1002100E010210120E369C0035C
:10268000294A2A4E834222D1002906D0022907D0A6
:10269000042907D0082935D108E0FEF7FFFE03E042
:1026A000104603E0FEF70AFF002830D061684000C2
:1026B0004A088018FDF774FF01461039B14221D84D
:1026C0001A49491C01400007400F08431DE000293A
:1026D00006D0022907D0042907D0082912D108E022
:1026E000FEF7DCFE03E0104603E0FEF7E7FE0028FD
:1026F0000DD061684A081018FDF752FF01461039E5
:10270000B14201D9012502E080B22168C8600020F1
:10271000A066E066284670BDF369FFEF003801400F
:10272000001002400044004000127A00EFFF000059
:10273000FFB5064681B080360546044660350A9FDF
:102740002EE0781C2CD0FEF77DFD0499401AB8428B
:1027500014D8002F12D020680168490720D5C1691C
:10276000C94309070CD4082707622046FFF718FF62
:10277000776000202876012005B0F0BD0320FBE73C
:10278000C069C04300050BD401202168C002086263
:102790002046FFF705FF2020706000202876EDE737
:1027A0002068C1690298884305D0002103988142BE
:1027B000C7D00020E0E70121F8E7F8B5040C8BB2A0
:1027C000264682B25E430D0C1046370C5843360441
:1027D00080190021794116466E43370C3604801962
:1027E000794126466E438919F8BD00008307FF2210
:1027F000DB0E9A408907090E9940002808DB830800
:1028000009489B001B1818689043084318607047DC
:102810000007000F0838830804489B001B18D8697C
:1028200090430843D861704700E400E000ED00E009
:1028300030380A2801D2012070470020704700007C
:102840000549401804D0012803D0022801D00814FB
:102850007047002070470000FF7FFFFF02494018CB
:1028600000D0002070470000FF7FFFFF054940189F
:1028700005D0012802D0022801D000207047012095
:1028800070470000FF7FFFFF70B5114D040014D0AA
:1028900020783A2811D10FA12046FDF73DFE0028EF
:1028A0000DD00EA12046FDF737FE002809D00DA15E
:1028B0002046FDF731FE002806D0284670BD0B48A3
:1028C00070BD0A48401C70BD0848801C70BD0000E7
:1028D000FFFFFFFF3A535444494E00003A5354441B
:1028E0004F5554003A535444455252000180000061
:1028F0000020C0437047000070B50D460C491446D7
:1029000041180C4812D0012902D002290ED107E04B
:10291000002C0AD028786D1C00F0B8FA641EF7E786
:10292000002C02D000BE641EFAE7002070BD00003B
:10293000FF7FFFFFFFFFFFFF10B500F0A9FA10BDFA
:1029400048438021081AC10F0818401000B200281F
:1029500000DA0020C0B2704730B5044600200346BC
:1029600006E0E55C954201D1401CC0B25B1CDBB2C5
:102970008B42F6D330BD000013B5642301226946B3
:102980000248FFF75FFA00981CBD0000F402002027
:10299000FEF7A0FCFFF79BFCFFF7B6FAFFF72CFB56
:1029A000FFF784FBFFF74EFB00F0CCF81C48FFF765
:1029B0008BF91B48D03000F093F81948E43000F050
:1029C0008FF81748F83000F08BF816A0FDF796FC4A
:1029D00000F058F81F4C1920FEF716FB1048002194
:1029E000D03000F00BFA20700D480021E43000F0E8
:1029F00005FA60700A480021F83000F0FFF9A07075
:102A000003466278217814A0FDF778FC04220321A4
:102A10001048FFF7A1FF014612A0FDF76FFCDAE7AF
:102A2000AC020020556E7469746C6564205368753F
:102A300074746572205370656564205465737465A1
:102A4000722064656B754E756B656D203230323364
:102A50000D0A00001B000020256420256420256449
:102A60000A00000025640A2D2D2D0A0009220821E4
:102A7000D206002802D091620220704791610120A5
:102A80007047000010B5002000F04AF8114CA06813
:102A9000FDF700FDC0B20B21FFF752FF002100F04F
:102AA000DDF80D48012306C8A06800F091F9E06840
:102AB000FDF7F0FCC0B20721FFF742FF142100F040
:102AC000CDF80648012306C8E06800F081F900F05F
:102AD000DBF810BD180000201000002008000020C6
:102AE0000021016041608160C160016170470000A8
:102AF00030B580280ED220290CD24D0701236D0F4E
:102B0000AB40C908054CC9010818215C012A02D054
:102B10009943215430BD1943FBE7000048000020D1
:102B200010B50021064B01225202002805D0FF24D7
:102B30005C54491C9142F8D310BD0024F8E7000012
:102B40004800002010B500F063F86420FEF75CFA3E
:102B5000002000F089F8202000F0FCF8002000F0B0
:102B6000F9F8B02000F0F6F8C02000F0F3F80020EB
:102B700000F0F0F8102000F0EDF8402000F0EAF846
:102B8000FF2000F061F8A02000F0E4F8A62000F09B
:102B9000E1F8A82000F0DEF81F2000F0DBF8A42008
:102BA00000F0D8F8D32000F0D5F8002000F0D2F8DB
:102BB000D52000F0CFF8F02000F0CCF8D92000F0BC
:102BC000C9F8222000F0C6F8DA2000F0C3F802208D
:102BD00000F0C0F8DB2000F0BDF8202000F0BAF8CB
:102BE0008D2000F0B7F8142000F0B4F8012000F0B8
:102BF0003BF80020FFF794FF00F046F8034800215F
:102C0000018041800121017110BD00000000002001
:102C100010B5012202210B48FEF70EFB0924E40641
:102C2000002201212046FEF707FB0A20FEF7ECF9FF
:102C3000012211462046FEF7FFFA0A20FEF7E4F9CA
:102C400010BD00000014004810B50446812000F0BB
:102C500081F8204600F07EF810BD0000014A108087
:102C6000518070470000002010B50649002802D0AE
:102C7000AF20012201E0AE2000224A7100F06AF884
:102C800010BD00000000002070B50B4D0024204650
:102C9000B030C0B200F05EF8002000F05BF8102009
:102CA00000F058F8E0014019802100F071F8641C30
:102CB000E4B2042CEBD370BD48000020FFB582B015
:102CC0000298203801905F280BD221486A4601887B
:102CD000177BC919802904D84088567B8019202881
:102CE00002D9002006B0F0BD002526E00198049925
:102CF000704340194000085A002400901AE00098E0
:102D0000A040000408D51248059A81780078491936
:102D10000019C9B2C0B20AE00598002815D00022F7
:102D20000B488178007849190019C9B2C0B2FFF781
:102D3000DFFE641CA742E2D86D1CAE42D6D8044820
:102D40000188C91901800298CCE70122E8E7000058
:102D50000000002031B50C4C002202212046FEF775
:102D60006BFA092000220221C006FEF765FA002353
:102D7000DB43012269460548FEF77CFE0122022161
:102D80002046FEF759FA38BD0014004848020020DA
:102D900070B50D4E0D460446002202213046FEF766
:102DA0004BFA092001220221C006FEF745FA002352
:102DB000AAB2DB4321460548FEF75CFE0122022150
:102DC0003046FEF739FA70BD001400484802002072
:102DD000F0B51D460E46174604460AE02B463A4615
:102DE0003146FFF76BFF2178884201D0C8B2F0BDB1
:102DF000641C20780028F1D1C0B2F0BD30B5026863
:102E000001241F4D002A0AD02B461B68012A0DD031
:102E1000022A16D0012A0BD0022A14D02EE0012952
:102E20002CD104602968496A416027E0022902D058
:102E3000002910D022E0022101602968496A8160DE
:102E40001CE0012902D000290DD017E004600169BF
:102E5000491C016112E0596A4268891A094A914283
:102E60000CD9032109E05A6A8168074B521A9A4229
:102E700004D94268891AC16004210160007830BD1C
:102E8000AC02002080969800C8140500002070470E
:102E9000704700000000000000000000000000007B
:102EA00000000000000000100010001000100010D2
:102EB000001000000010000000000028002800287A
:102EC00000000000000000000000000000000024DE
:102ED0000024007C00240048007C004800480000DA
:102EE0000000003800540050003800140054005412
:102EF0000038001000000020005400580030002866
:102F000000540014000800000000001000280028F1
:102F10000010003400480048003400000000001099
:102F20000010001000000000000000000000000081
:102F300000000008001000200020002000200020D9
:102F40000020001000080020001000080008000801
:102F500000080008000800100020001000380010D1
:102F60000028000000000000000000000000000039
:102F7000000000100010007C001000100000000095
:102F80000000000000000000000000000000000041
:102F90000010001000100000000000000000000001
:102FA00000380000000000000000000000000000E9
:102FB00000000000000000000010000000000008F9
:102FC0000008001000100010001000200020000079
:102FD0000000003800440044005400440044004411
:102FE00000380000000000100030005000100010F9
:102FF00000100010001000000000003800440044E1
:103000000004000800100020007C000000000038D0
:1030100000440004001800040004004400380000CC
:10302000000000080018002800280048007C000864
:10303000000800000000007C004000400078000410
:103040000004004400380000000000380044004044
:103050000078004400440044003800000000007C78
:1030600000040008001000100020002000200000D4
:10307000000000380044004400380044004400448C
:103080000038000000000038004400440044003CC8
:1030900000040044003800000000000000000010A0
:1030A0000000000000000000001000000000000010
:1030B00000000000001000000000000000100010E0
:1030C000001000000000000C003000400030000C38
:1030D000000000000000000000000000007C000074
:1030E000007C000000000000000000000000006004
:1030F0000018000400180060000000000000003804
:10310000004400040008001000100000001000003F
:10311000000000380044004C0054005C00400040B7
:1031200000380000000000100028002800280028B7
:10313000007C00440044000000000078004400448B
:10314000007800440044004400780000000000388B
:1031500000440040004000400040004400380000AF
:10316000000000700048004400440044004400484F
:10317000007000000000007C00400040007C004027
:1031800000400040007C00000000007C0040004047
:10319000007800400040004000400000000000387F
:1031A000004400400040005C00440044003800003F
:1031B0000000004400440044007C004400440044FB
:1031C0000044000000000038001000100010001043
:1031D000001000100038000000000004000400048B
:1031E0000004000400040044003800000000004413
:1031F00000480050006000500048004800440000B3
:1032000000000040004000400040004000400040FE
:10321000007C000000000044006C006C005400447E
:1032200000440044004400000000004400640064C6
:1032300000540054004C004C0044000000000038D2
:1032400000440044004400440044004400380000AE
:103250000000007800440044004400780040004032
:1032600000400000000000380044004400440044D6
:10327000004400540038000400000078004400447A
:103280000044007800480048004400000000003876
:1032900000440040003000080004004400380000F2
:1032A0000000007C00100010001000100010001042
:1032B00000100000000000440044004400440044AA
:1032C0000044004400380000000000440044004472
:1032D0000028002800280010001000000000004412
:1032E0000044005400540054006C002800280000E2
:1032F00000000044002800280010001000280028CA
:103300000044000000000044004400280028001091
:1033100000100010001000000000007C00040008F5
:103320000010001000200040007C00000000001889
:10333000001000100010001000100010001000100D
:1033400000180020002000100010001000100008DD
:1033500000080000000000300010001000100010F5
:10336000001000100010001000300010002800288D
:103370000044000000000000000000000000000009
:10338000000000000000000000000000000000003D
:1033900000FE0020001000000000000000000000FF
:1033A0000000000000000000000000380044003C65
:1033B0000044004C00340000000000400040005871
:1033C0000064004400440064005800000000000055
:1033D0000000003800440040004000440038000075
:1033E0000000000400040034004C00440044004C81
:1033F0000034000000000000000000380044007CA1
:1034000000400044003800000000000C0010007C68
:10341000001000100010001000100000000000005C
:1034200000000034004C00440044004C0034000410
:10343000007800400040005800640044004400440C
:103440000044000000000010000000700010001098
:1034500000100010001000000000001000000070BC
:1034600000100010001000100010001000E00040DC
:103470000040004800500060005000480044000038
:10348000000000700010001000100010001000106C
:1034900000100000000000000000007800540054FC
:1034A00000540054005400000000000000000058C8
:1034B0000064004400440044004400000000000098
:1034C000000000380044004400440044003800007C
:1034D0000000000000000058006400440044006444
:1034E000005800400040000000000034004C004440
:1034F0000044004C003400040004000000000058A8
:103500000064004000400040004000000000000057
:10351000000000380044003000080044003800007B
:103520000000002000200078002000200020002063
:1035300000180000000000000000004400440044A7
:103540000044004C00340000000000000000004473
:10355000004400280028002800100000000000009F
:103560000000005400540054006C002800280000A3
:103570000000000000000044002800100010002897
:103580000044000000000000000000440044002847
:103590000028001000100010006000000000007CF7
:1035A0000008001000200040007C0000000000180F
:1035B000001000100010002000200010001000106B
:1035C0000018001000100010001000100010001073
:1035D0000010001000100030001000100010000853
:1035E0000008001000100010003000000000000073
:1035F0000074004C0000000000000000000000000B
:1036000000000000000000000000000000000000BA
:1036100000000000000000000000000000000000AA
:1036200000000000000C000C000C000C000C000C52
:10363000000C000C000C000C000C0000000C000C36
:103640000000000000000000001B001B001B001B0E
:10365000001B00000000000000000000000000004F
:103660000000000000000000000000008019801928
:1036700080198019C07FC07F80190033C07FC07F50
:10368000003300330033003300000000000000006E
:10369000001E003F807580650074003C001E00071E
:1036A0008005806580658075003F001E0004000471
:1036B00000000000007000D840D8C0D880D9007346
:1036C0000006000C801BC036C066C046C0068003E2
:1036D0000000000000000000001E003F0033003327
:1036E0000033001E000CC03CC066806380618063B4
:1036F000C03E801C0000000000000000000C000C18
:10370000000C000C000C0000000000000000000095
:103710000000000000000000000000000000800029
:1037200000010003000600060004000C000C000C61
:10373000000C000C000C0004000600060003000151
:103740008000002000100018000C000C000400068F
:10375000000600060006000600060004000C000C2F
:103760000018001000200000000C002D003F001E7B
:103770000033000000000000000000000000000016
:103780000000000000000000000000000000000039
:10379000000C000C000C000CC0FFC0FF000C000C63
:1037A000000C000C00000000000000000000000001
:1037B0000000000000000000000000000000000009
:1037C0000000000000000000000C000C00040004D9
:1037D00000080000000000000000000000000000E1
:1037E00000000000001E001E00000000000000009D
:1037F00000000000000000000000000000000000C9
:1038000000000000000000000000000000000000B8
:10381000000C000C0000000000000000000300038A
:1038200000030006000600060006000C000C000C59
:10383000000C001800180018000000000000000034
:10384000001E003F0033806180618061806D806D6B
:103850008061806180610033003F001E0000000035
:10386000000000000006000E001E003600260006C4
:103870000006000600060006000600060006000618
:103880000000000000000000001E003F8073806107
:103890008061800100030006000C00180030006009
:1038A000807F807F0000000000000000001C003EC0
:1038B000006300630003000E000E0003800180011E
:1038C00080618073003F001E0000000000000000C7
:1038D0000006000E000E001E001E00160036003608
:1038E0000066807F807F0006000600060000000062
:1038F00000000000007F007F006000600060006E3C
:10390000007F80638001800180618073003F001E22
:103910000000000000000000001E003F80338061B6
:103920000060006E007F8073806180618061803301
:10393000003F001E0000000000000000807F807F2C
:1039400080010003000300060006000C000C000CC0
:103950000008001800180018000000000000000017
:10396000001E003F8063806180610021001E003FD7
:103970008061806180618061003F001E0000000066
:1039800000000000001E003F0073806180618061C4
:103990008073803F801D800180610073003F001EA6
:1039A0000000000000000000000000000000000017
:1039B000000C000C000000000000000000000000EF
:1039C000000C000C000000000000000000000000DF
:1039D000000000000000000C000C000000000000CF
:1039E00000000000000C000C0004000400080000AF
:1039F00000000000000080008003000E003800601E
:103A00000038000E8003800000000000000000006D
:103A1000000000000000000000000000807F807FA8
:103A200000000000807F807F000000000000000098
:103A30000000000000000000000000000000004046
:103A40000070001C000780010007001C007000408F
:103A5000000000000000000000000000001F803F88
:103A6000C071C060C000C00180030007000E000CE0
:103A7000000C0000000C000C000000000000000022
:103A8000001E003F803180718063806F806D806D8B
:103A9000806F806700600032003E001C0000000064
:103AA00000000000000E000E001B001B001B001B8E
:103AB00080318031803F803F8031C060C060C06015
:103AC0000000000000000000007C007E0063006336
:103AD00000630063007E007E00638061806180631C
:103AE000007F007E0000000000000000001E003F7C
:103AF00080318061006000600060006000600060F4
:103B000080618031003F001E0000000000000000C6
:103B1000007C007F006380638061806180618061E0
:103B20008061806100630063007E007C0000000013
:103B300000000000807F807F006000600060006007
:103B4000007F007F0060006000600060807F807FF9
:103B50000000000000000000807F807F00600060A7
:103B600000600060007F007F006000600060006017
:103B7000006000600000000000000000001E003F28
:103B800080318061006000600060806380638061DC
:103B900080618031803F001E0000000000000000B6
:103BA000806180618061806180618061807F807FD1
:103BB00080618061806180618061806100000000BF
:103BC00000000000003F003F000C000C000C000C47
:103BD000000C000C000C000C000C000C003F003F1F
:103BE00000000000000000008001800180018001D1
:103BF000800180018001800180018061806180738B
:103C0000003F001E0000000000000000C060806156
:103C1000006300660066006C0078007C0066006649
:103C2000006380618061C06000000000000000004F
:103C30000060006000600060006000600060006084
:103C40000060006000600060807F807F00000000F6
:103C500000000000C071C071C07BC07AC06AC06A39
:103C6000C06EC064C060C060C060C060C060C06042
:103C70000000000000000000807180718079807970
:103C80008079806D806D806D8065806780678067DA
:103C9000806380630000000000000000001E003F01
:103CA00000338061806180618061806180618061BA
:103CB00080610033003F001E000000000000000093
:103CC000007E007F80638061806180618063007F0F
:103CD000007E006000600060006000600000000086
:103CE00000000000001E003F0033806180618061A1
:103CF000806180618061806580670033803F401E05
:103D00000000000000000000007E007F80638061F2
:103D100080618063007F007E0066006300638061D5
:103D20008061C0600000000000000000000E001F65
:103D30008031803100300038001E00078003806130
:103D400080618031003F001E000000000000000084
:103D5000C0FFC0FF000C000C000C000C000C000C9D
:103D6000000C000C000C000C000C000C000000000B
:103D700000000000806180618061806180618061FD
:103D8000806180618061806180618073003F001E7E
:103D90000000000000000000C060C060C060803112
:103DA00080318031001B001B001B001B000E000E29
:103DB000000E00040000000000000000C0C0C0C0F1
:103DC000C0C0C0C0C0C0C0CC804C804C805E80529F
:103DD000805280738061806100000000000000005C
:103DE000C0C0806080610033003B001E000C000CEE
:103DF000001E001F003B80718061C0C000000000F9
:103E000000000000C0C08061806100330033001EEC
:103E1000001E000C000C000C000C000C000C000C30
:103E20000000000000000000803F803F8001000390
:103E300000030006000C000C0018001800300060A1
:103E4000807F807F000000000000000F000F000C4A
:103E5000000C000C000C000C000C000C000C000C02
:103E6000000C000C000C000C000C000F000F0000F8
:103E7000001800180018000C000C000C000C0006C4
:103E80000006000600060003000300030000000017
:103E90000000001E001E00060006000600060006C8
:103EA00000060006000600060006000600060006E2
:103EB0000006001E001E0000000C000C001E001278
:103EC00000330033806180610000000000000000CA
:103ED00000000000000000000000000000000000E2
:103EE00000000000000000000000000000000000D2
:103EF00000000000000000000000E0FF00000000E3
:103F000000380018000C0000000000000000000055
:103F100000000000000000000000000000000000A1
:103F2000000000000000000000000000001F803FB3
:103F300080618001801F803F80618063807FC03806
:103F400000000000000000000060006000600060F1
:103F5000006E007F8073806180618061806180730A
:103F6000007F006E00000000000000000000000064
:103F700000000000001E003F807380610060006050
:103F800080618073003F001E000000000000000000
:103F90008001800180018001801D803F80738061ED
:103FA0008061806180618073803F801D000000001F
:103FB000000000000000000000000000001E003FA4
:103FC00000738061807F807F00608071003F001EF1
:103FD0000000000000000000C007C00F000C000C33
:103FE000807F807F000C000C000C000C000C000C8B
:103FF000000C000C000000000000000000000000A9
:104000000000801D803F80738061806180618061DD
:104010008073803F801D80018063007F003E000030
:104020000060006000600060006F807F80718061D0
:10403000806180618061806180618061000000003A
:10404000000000000006000600000000003E003EE8
:104050000006000600060006000600060006000630
:104060000000000000000006000600000000003E06
:10407000003E0006000600060006000600060006D8
:10408000000600060046007E003C00000060006064
:1040900000600060806100630066006C007C007658
:1040A000006300638061C060000000000000000049
:1040B000003E003E00060006000600060006000660
:1040C00000060006000600060006000600000000CC
:1040D00000000000000000000000000080DDC0FFC4
:1040E000C0CEC0CCC0CCC0CCC0CCC0CCC0CCC0CC6E
:1040F00000000000000000000000000000000000C0
:10410000006F807F807180618061806180618061EB
:1041100080618061000000000000000000000000DD
:1041200000000000001E003F80738061806180619C
:1041300080618073003F001E00000000000000004E
:10414000000000000000006E007F807380618061CD
:10415000806180618073007F006E0060006000609D
:1041600000600000000000000000801D803F8073A0
:1041700080618061806180618073803F801D8001EB
:1041800080018001800100000000000000000000AC
:104190000067803F003900300030003000300030D0
:1041A00000300030000000000000000000000000AF
:1041B00000000000001E803F80610060007F803FA3
:1041C00080018061007F001E0000000000000000F0
:1041D0000000000800180018007F007F0018001879
:1041E0000018001800180018801F800F0000000041
:1041F00000000000000000000000000080618061FD
:10420000806180618061806180618063807F803DAA
:10421000000000000000000000000000000000009E
:10422000C060803180318031001B001B001B000EFC
:10423000000E00060000000000000000000000006A
:104240000000000080DD80DD80DD00550055005558
:10425000007700770022002200000000000000002C
:104260000000000000000000806100330033001EE9
:10427000000C000C001E00330033806100000000C1
:1042800000000000000000000000806180618031BB
:1042900000330033001B001B001B000E000E000E3D
:1042A000001C007C00700000000000000000000006
:1042B000C07FC07F800100030006000C00180030A2
:1042C000C07FC07F00000000000080038007000660
:1042D0000006000600060006000E001C001C000E72
:1042E00000060006000600060006800780030006A0
:1042F000000600060006000600060006000600068E
:10430000000600060006000600060006000600067D
:1043100000060038003C000C000C000C000C000CE7
:10432000000E00070007000E000C000C000C000C33
:10433000000C003C003800000000000000000000FD
:10434000000000008038807F00470000000000006F
:104350000000000000000000000002030405060742
:1043600008090A0B0C0D0E0F1010010203040506BC
:104370000708090A0B0C0D0E0F10000000000000CA
:104380000000010203040607080900000000010202
:1043900003043A535444494E003A5354444F55543D
:1043A000003A5354444552520000000050756C735B
:1043B0006548505400000000524541445900000037
:1043C000496E666F3A2050756C73654850542E6381
:1043D0006F6D0000F443000800000020480000005A
:1043E000040100083C44000848000020100B0000B5
:1043F000200100080000000000000000070A000083
:10440000922E00080B120000FE350008000100008B
:1044100000000000B8430008C0430008AC43000897
:1044200001000000040000000000000000127A00FB
:0C44300000000000000000000000000080
:04000005080000C12E
:00000001FF
