:020000040800F2
:1000000078090020AD010008D1230008592200081A
:1000100000000000000000000000000000000000E0
:10002000000000000000000000000000B1250008F2
:100030000000000000000000D3230008B3250008E2
:10004000DD010008DD010008DD010008DD01000818
:10005000DD0100082F160008DD0100083F1600082A
:10006000DD010008DD010008DD010008DD010008F8
:10007000DD010008DD010008DD010008DD010008E8
:10008000DD0100080000000000000000DD010008A4
:1000900000000000DD010008DD010008DD010008AE
:1000A00000000000DD010008DD010008DD0100089E
:1000B000DD01000800000000DD010008DD0100088E
:1000C00000F002F800F046F80CA030C808382418F8
:1000D0002D18A246671EAB4654465D46AC4201D180
:1000E00000F038F87E460F3E0FCCB646012633426C
:1000F00000D0FB1AA246AB4633431847045A00000F
:10010000245A0000103A02D378C878C1FAD85207AE
:1001100001D330C830C101D504680C6070470000BD
:100120000023002400250026103A01D378C1FBD813
:10013000520700D330C100D50B60704710B5642959
:1001400002D100F041F910BD002010BD1FB51FBD48
:1001500010B510BD01F03CFA1146FFF7F7FF02F0B1
:10016000F1FF01F054FA03B4FFF7F2FF03BC01F012
:1001700057FA000070B505460C46164602E00FCC53
:100180000FC5103E102EFAD2082E02D303CC03C5A1
:10019000083E042E07D301CC01C5361F03E02178A9
:1001A0002970641C6D1C761EF9D270BD0F4880F357
:1001B00008880F480168090E0E4A914205D10E4881
:1001C0000E4901600E480F4901600F4880470F48F3
:1001D0000047FEE7FEE7FEE7FEE7FEE7FEE700007A
:1001E0000B480C490C4A0D4B704700007809002061
:1001F000040000001F000000181002400100000071
:10020000000001400000000009260008C1000008AD
:100210007803002078090020780500207805002068
:10022000FEB5054610460C46184373D0AE468C46C4
:100230000020AD1A01469C4167D366460027012481
:100240003D46B61A9D4102D313463A4621246546DF
:1002500076462F04360C3E432D0CB61A9D4104D32E
:10026000150C1B042B4312041034654676462F06EA
:10027000360A3E432D0AB61A9D4104D3150E1B02C1
:100280002B4312020834654676462F0736093E4353
:100290002D09B61A9D4104D3150F1B012B431201E2
:1002A000241D65467646AF07B6083E43AD08B61A2C
:1002B0009D4104D3950F9B002B439200A41C6546DF
:1002C0007646EF0776083E436D08B61A9D411AD36D
:1002D00092185B41641C16E0001876466546494159
:1002E000B71A9D410191009009D36046B11A984117
:1002F0008E468446009801990025401C6941DD071F
:1003000052082A435B08641EE6D57246634603B072
:10031000F0BDFFE700200146C046C0462A462346FE
:10032000F5E700000FB41CB50C0007AA009001D03F
:100330000019401E084B7B4469460190069800F066
:100340002EFF002C03D06946002000F03BFF1CBCB0
:1003500008BC04B018470000950E0000F8B50E4622
:100360000446002020622046E1688847002829D002
:10037000252802D06268A16820E0E16820460027B5
:10038000884705001ED028464138192802D8012781
:10039000FF0220353246204627602946FFF7CEFE71
:1003A000002808D0012804D0F61DF608F60008360B
:1003B000D9E7361DD7E762682846A1689047206ACA
:1003C000401CCFE7206AF8BDF7B5002575291068F5
:1003D000009914A611D0C046C046002802DA404257
:1003E00011A608E0009909688A0701D50FA602E066
:1003F000490704D50EA6012501E0C046C046009F6E
:100400000024243704E000F0EAFE30313955641C42
:100410000028F8D12B4632462146009800F062FEB3
:10042000FEBD0000000000002D0000002B000000B9
:1004300020000000F8B5042A2CD3830712D00B78D3
:10044000491C0370401C521E83070BD00B78491CBB
:100450000370401C521E830704D00B78491C0370A4
:10046000401C521E8B079B0F05D0C91ADF002023AA
:10047000DE1B08C90AE0FFF77DFEF8BD1D4608C96E
:10048000FD401C46B4402C4310C0121F042AF5D274
:10049000F308C91A521EF0D40B78491C0370401C93
:1004A000521EEAD40B78491C0370401C012AE4D484
:1004B00009780170F8BD431A70B593421BD28918B0
:1004C000801804E0491E401E0B78521E03709307EB
:1004D000F8D106E01039103878C9103978C01038D2
:1004E000103A102AF6D203E0091F001F0B680360C0
:1004F000121FF9D570BDFFF73DFE70BDF8B5064679
:1005000014460843800707D0751AA54219D2081966
:10051000102D13D2311907E03046FFF7CCFFF8BD9C
:10052000401E491E02780A70641EF9D2F8BD471BAE
:100530002A463946FFF77EFF641B3846A542F6D3AC
:10054000011B22463046FFF775FFF8BD01E004C0ED
:10055000091F0429FBD28B0701D50280801CC90723
:1005600000D00270704700290BD0C30702D0027080
:10057000401C491E022904D3830702D50280801C37
:10058000891EE3E70022EEE70022DFE700220309ED
:100590008B422CD3030A8B4211D300239C464EE09E
:1005A00003460B433CD4002243088B4231D303095A
:1005B0008B421CD3030A8B4201D394463FE0C3090C
:1005C0008B4201D3CB01C01A524183098B4201D324
:1005D0008B01C01A524143098B4201D34B01C01A0F
:1005E000524103098B4201D30B01C01A5241C30887
:1005F0008B4201D3CB00C01A524183088B4201D3F6
:100600008B00C01A524143088B4201D34B00C01AE1
:100610005241411A00D201465241104670475DE0F6
:10062000CA0F00D04942031000D340425340002279
:100630009C4603098B422DD3030A8B4212D3FC2222
:10064000890112BA030A8B420CD3890192118B42A1
:1006500008D3890192118B4204D389013AD09211B7
:1006600000E08909C3098B4201D3CB01C01A524172
:1006700083098B4201D38B01C01A524143098B423B
:1006800001D34B01C01A524103098B4201D30B0124
:10069000C01A5241C3088B4201D3CB00C01A524149
:1006A00083088B4201D38B00C01A5241D9D2430830
:1006B0008B4201D34B00C01A5241411A00D201466D
:1006C000634652415B10104601D34042002B00D5D7
:1006D0004942704763465B1000D3404201B5002099
:1006E000C046C04602BD7047704770470246C80FFB
:1006F000C00781434B0030B54B405B009B0D20D0C1
:100700001923DB06C91801231B05994220DB0324AA
:10071000A40704251346AB400BD3002B04D1EB06F2
:1007200013409B00E34204D4012464070023121900
:100730005941FF231B0599420BD2C9000143500FB9
:1007400009E0CB0204D501430803024305D0054864
:1007500030BDFF21C905084330BD08460721090502
:10076000884330BD0000C07FF0B5F94D0C091E096B
:100770002C402E402F468BB0A7437DD0B543FCD0F4
:10078000002E7AD0002CFCD00D465D40ED0F2543A5
:10079000AC1BFF25AD0464190894C502440DC902C1
:1007A0002143500DDC0204430120C00701430443F0
:1007B000D2020191200C110C00958C4601042346B5
:1007C0008B430A9161460904E24D8A430991010A6B
:1007D0007D4449198039097805464D4301266D1835
:1007E000F605751B6943C90C640B891C4C436418DE
:1007F000B5012C1B250C2E04B4434C434D43210C56
:10080000691889090591009DE90701D00121C907EF
:1008100004912C4601996708CD072F434C08059D8C
:10082000E10B4D432D0C29466646754302950D4656
:1008300045432E46029D7D1BB44100950D465D4308
:1008400001942C0C2F040D465543AE462D0C3D4310
:10085000029503947546049C2D04641B049406D2EF
:10086000029C039D641C002675410395029401AC13
:1008700070CC009F7D1B01E03EE162E1B4410904C0
:100880000095079101940599A4086143090C0C4651
:100890004443650BE7040C4666467443A646640B66
:1008A0003C43039502947446049DE4042C1B049479
:1008B00006D2029C039D641C002675410395029498
:1008C00001AC70CC009F7D1BB44101940C465C438D
:1008D0000095650FE7000C465443A646640F3C4361
:1008E000039502947446049DE4002C1B049406D2E4
:1008F000029C039D641C002675410395029401AC83
:1009000070CC009F7D1BB441AE09AF06049DC900A9
:10091000AD092F43049DA406AD060495079D3443FD
:1009200069180791059DE10B4D432D0C294666463C
:10093000754302950D4645432E46029D7D1BB441ED
:1009400000950D465D4301942C0C2F040D46554334
:10095000AE462D0C3D43029503947546049C2D0430
:10096000641B049406D2029C039D641C00267541FE
:100970000395029401AC70CC009F7D1BB44101949F
:100980008C050694079C890A611800950791019CC3
:100990000599A4086143090C0D464543680BEF0413
:1009A0000D46644665436C0B3C43049FED047D1B80
:1009B000AC4602D20025641C6841009E019D371B95
:1009C00085410846584301950C46460FC5005443DF
:1009D000600F28436546E4002C1B02D20025401C12
:1009E0006E41019D3F1AB5412846BD098006284346
:1009F0008446A009BF064E020699A406761807434E
:100A0000079D002068410A99079019430020099B1F
:100A100000906046FF1913434041E20F64003A43DF
:100A2000A4460446D71A8C41A04203D90120009065
:100A300020463A46C70F941840416246D20F2243DF
:100A4000644664000494009CBE466400D71AA44621
:100A5000044602978C417746002F01D1A04204D969
:100A60006046401C8446029A2046C40FA64694184D
:100A70004041049A0546D20F224364466400D31ACB
:100A80008D417146002901D1A84202D928461A4653
:100A9000641C10430122002800D01643610200208C
:100AA000079B891904465C410223002C02DB49188C
:100AB00013466441089DCE0A2D145D194B05670548
:100AC000E10A2C050D1908993E43C9076940002B1E
:100AD00008D0934006D30022761C5141002B01D14F
:100AE000760876001C4A002D43DB154241D0AA430C
:100AF0003FD030460BB0F0BD06180D464D41174CA7
:100B00007642AC411AD395181C465C41134A6D429B
:100B1000A24113D3012252054C00D4420AD15C00F9
:100B2000D4420BD04B4002D592021143E2E7490078
:100B30004908DFE75940C90FC90718E000200849F4
:100B4000D8E7054801420DD10342F7D0F2E7000093
:100B50000000FF07465100000000F07F0000E0FFAA
:100B60000000F87F114859400143C0124140002065
:100B7000C0E70123089A9B069A4205DC032252072C
:100B80008918C90FC907B5E7052252078918074A0E
:100B90001143D2125140ADE770B515461C460246CE
:100BA0000B4628462146FFF7DFFD70BDFFFFFF7FA4
:100BB00030B50346CA02400D1043164D164C0A15B7
:100BC00002D02043002A06DBAA1A002A12DDD040F8
:100BD000FF2A0BDC30BD5205520D01D14000400808
:100BE000AA1A07D4D0404042FF2A01DD002030BDC0
:100BF0000028FCDD4A00002B01D0012000E000208D
:100C0000101801225205D042F0D8C817C0436040E6
:100C100030BD00001E040000000000801F22030CF5
:100C200002D10F22000402D0030E03D004E0002002
:100C3000014670470002083A030F01D10001121F5C
:100C4000830F01D18000921E002801DB4000521E5C
:100C5000120551184205C012411810467047C10FC5
:100C6000C90700D04042012292071143D6E7012173
:100C70008907D3E7F0B58B4C0F09254689B0BD43F2
:100C80007BD01D092646AE43FAD00E465E40274073
:100C9000F60F3E43254071D024012142FBD0FF24B2
:100CA000AD19A4042D1B039501252D05DB02DB0ADC
:100CB000C9022B43C90A29431E010901040F130F5E
:100CC000050121431701880B820391432D098C46AE
:100CD000A90B1E438A039543B30B9A0396433F091E
:100CE000BA0B9403A74302962E467E430497B6465A
:100CF0004E19D7190C460196544305977E43371B6E
:100D00007646BF1B3601B646BE0B361900967646B0
:100D1000BC043719009C01D3641C00946400002FAC
:100D200001D001263443029E049F754366467E43EC
:100D30000496760034196E0034190094029C019ECA
:100D40001C196643751BAE46069465464519059CFD
:100D500005956C43594375460891691A0191049EA3
:100D600001465143A41B0491611A009C0791E106BE
:100D700005D061090122114302E072E06EE06109D1
:100D8000089D00272C0A2D066918049D7C412A0A1B
:100D90002D066918019D6241AC0DAD026D185441DC
:100DA000079A910D920255196141029A644658437F
:100DB0005443069B059A5A43121A131B9A0E9B0121
:100DC0005B187A41010B0005C3185141220A200625
:100DD00044195A419A4200D2491C012040028142E2
:100DE00003D315230226F64302E014230326F64319
:100DF0002020C51AA9401746AF40DA400A432046D2
:100E00000399D8400914731819055118039A3843E7
:100E1000D2075140AC4009D00122944006D30022B1
:100E2000401C5141002C01D1400840001E4A934211
:100E300012D3012203989206904207DB0520400757
:100E400009181A480143C012414004E0032040073A
:100E50000818C10FC907002009B0F0BD0020F10734
:100E6000FAE705180C464C4111486D42A04115D3D4
:100E700094181A465A410E48644290410ED30120FC
:100E80004A004005824209D35A00824206D35940A3
:100E9000C90F084AC90700201143DDE700200649B1
:100EA000DAE700000000FF07FE070000FFFFFF7FFA
:100EB0000000E0FF0000F07F0000F87F0121C9057D
:100EC0000123411842001B06D3185B0E0AD0C11043
:100ED0000722D206891840075242D14201D552005A
:100EE00089187047090208D50146002A03D0C10FAE
:100EF000C9070020704710467047420202D0002008
:100F000002497047072109050143F4E70000F87F13
:100F1000F0B5FF252D04C609C209FF2704462E405F
:100F20000137CB093E4348402A402B400746002A60
:100F30006BD0002B69D0AA4267D0AB4265D00028A5
:100F400000DA32460125ED0529432C43090220022F
:100F5000090AD21A4B0C7F24E31A434C000A7C4442
:100F6000E35C7D242404121914145B00A218884247
:100F700001D3521C00E0400049420C465C4324115E
:100F80005C43DB016415E318040A5C43C502200DD1
:100F90000C4644436419250A5D432303EC0C0D46BB
:100FA000654300030019EB184C42A34201D35B18C0
:100FB000401CD4052018002B07D05B00C91804D3AF
:100FC000401C002901D1400840003F2189048A4289
:100FD00009D3002A08DC1106090F04D003214907B0
:100FE0004018C00FC007F0BD012241001206891849
:100FF0007F2252069142F6D205214907C84201D507
:101000009010F0BDFF20C005F0BD002F00DA324681
:101010001648AA4207D2AB4205D21902090E17D0D0
:10102000F80FC007F0BDFF2563002D06AB42F9D8CD
:101030004900A942F6D8AB4201D1A942F2D0A94257
:1010400001D1002101E061004908D0050843F0BD4D
:101050001102090EFBD0FF200243D005F0BD0A4665
:101060000146104654E70000384A00000000C07FE7
:101070001F22030C02D10F2200041CD0030E01D149
:101080000002083A030F01D10001121F830F01D1A2
:101090008000921E002801DB4000521ED20551182C
:1010A000021251181922904004D3491C002801D182
:1010B0004908490008467047C10FC90700D040429F
:1010C000012292071143D3E701218907D0E710B528
:1010D00000F09AF8006810BD10B5044600F094F8CE
:1010E000046010BDFFB504460D4681B02430009069
:1010F0002168880604D51022E0699143216000E050
:101100000120A84201DD471B00E000270498A169E7
:101110007A191018081AA0612078C00602D4204657
:10112000C046C046002608E003986268A168805D5A
:101130009047206A401C761C206204988642F3DBAC
:101140002078C0060AD52046C046C04606E0626840
:10115000A16830209047206A401C206238467F1EDC
:101160000028F4DC07E000986268A168405D9047C1
:10117000206A401C206228466D1E0028F3DC2046B1
:10118000C046C0462078000602D5022005B0F0BD5A
:101190000120FBE701694A1C02610878704700B52D
:1011A0008FB0029100210591054901937944039183
:1011B000114604906846FFF7D1F80FB000BD00005B
:1011C000E5FFFFFF0A681070521C0A6070470CC9E7
:1011D00008399A4202D2531C0B60107070470146C6
:1011E0008008081A02091018020A1018020C1018B8
:1011F000C008820012185200891A01E0401C0A3906
:101200000A29FBD2704700000048704714030020F1
:10121000F0B50C46871A9C410D46861A9D4103D2B3
:10122000C01BA141D21963410D0D1F0DC94EEC1B0E
:10123000AE435CD07F057F0D0026002F51D02D05D9
:10124000AC46A943DD020123ED0A1B051D43202303
:101250001B1B24D41746E740381871412F46E7403E
:10126000CC199D402818314661410C0D27D16144AD
:101270009A4013D50023401C594152000ED140081A
:10128000400001224B005205D34207D305204007FE
:10129000C14201D5B04900E0B0493046F0BD6B0015
:1012A000002A00D001229A181F23203C1B1B01D5C5
:1012B000002302E0E540281871410C0DD7D001242D
:1012C00024050919C407CD0740084908E40F28433D
:1012D0006144002CD5D00024401C61419A40D0D1FB
:1012E000CDE76A05520DD9D1C90FC907D5E79C4D85
:1012F0004E00002801D0012400E0002434195F00D2
:10130000002A01D0012600E00026BE19954FAC420C
:101310000CD8AE420AD8B44206D001256D05EC4285
:10132000BCD010461946F0BD9942FCD00020394689
:10133000F0BDF0B51FB40C460F46811A9F412546FB
:10134000861A9D4106D20125ED076F40401ABC4127
:1013500052187B41210D1E0D8D1BAC467D4D8D43DA
:101360007ED075056D0D7CD00D05AE46AC431B03DC
:101370001B0B794D52429D41202366469B1B14D383
:101380001746F740381800260090744160462F46F3
:101390000741E41900989D402818664116D471460B
:1013A00071189A4025D5012320E093182A466A41F6
:1013B0005200002B00D0521C1E23203E9B1B002BF2
:1013C00061DD3541EE1728186641E8D500187641F1
:1013D0005B1C9A4000D3401C4B05F3181524E340D6
:1013E00010D3002B52D071467118D30FC01802D3FE
:1013F000491C05B0F0BD0123DB079A42F9D1400832
:101400004000F6E701225205B21801D1002853D05E
:101410000123CC0ADB029943891E002A08D1020C61
:1014200003D0020C0004103902E0024600202039EB
:101430000023550B05D112020823550B01D152018F
:101440000D23550C01D112011B1DD50C01D19200A9
:101450009B1C150D01D152005B1C2025EE1A01E0EA
:101460002CE022E00546F54015439840CA1AE107F2
:1014700069181305C918002ABBDA032040070818A9
:10148000C10FC9070FE071466118B2E7F1074008C4
:101490000843711071444A000CD001235B059A4245
:1014A000A7D2C90FC9070020A3E74905490D26D1D6
:1014B000002001E00028F4D100219AE7284D6600C1
:1014C000002801D0012100E0002171185F00002AEE
:1014D00001D0012600E00026BE19224FA94210D8F3
:1014E000AE420ED8B14208D001256D05E94206D0C2
:1014F0001946A802414010467BE79C4201D0214694
:1015000077E70020394674E710B50C465C4005D5F6
:101510000124E4076340FFF70CFF10BDFFF778FEDE
:1015200010BD30B40C465C4004D50124E407634090
:1015300030BC6DE630BCFCE670B50124E4076140C8
:101540000D465D4002D4FFF763FE70BD6340FFF7B8
:10155000F0FE70BDFF0700000000F0FF0000F07F0C
:101560000000E0FF0000F87F70B505464800440D1C
:10157000124B0020002C0AD0634008D09A4206DAB1
:101580006642B24203DD12054019514170BD002C84
:1015900008D0002B09D0C90FC907002AF6DB084A7A
:1015A000114370BDC90FC90770BD28460A03104317
:1015B00002D00020034970BD284670BDFF0700001F
:1015C0000000F07F0000F87F0048704714030020FF
:1015D0007546FFF7F9FFAE46050069465346C00859
:1015E000C000854618B020B5FEF7FAFD60BC0027A4
:1015F0004908B6460026C0C5C0C5C0C5C0C5C0C5DF
:10160000C0C5C0C5C0C5403D49008D46704710B536
:101610000446C046C0462046FEF7A5FD10BD0000AA
:1016200001491820ABBEFEE726000200704710B546
:10163000012000F01DF8022000F01AF810BD10B5CE
:10164000102000F015F810BD70B5044600F0F6F853
:101650000546601C02D004480078241800F0EEF81B
:10166000401BA042FAD370BD180000207047000054
:1016700010B504494A69024202D04861FFF7F6FFFB
:1016800010BD000000040140F8B50023032401252B
:10169000B5E02E469E40B44632407CD00E79B60767
:1016A000B60F012E01D0022E17D186682746B64606
:1016B0005E00B74000967646BE43B646CF68009EB1
:1016C000B74076463743876046686746BE430F7922
:1016D000FF06FF0F9F40374347600E79F643B6077A
:1016E0000ED0C6682746B4465E00B646B74066468A
:1016F000BE43B4468F687646B74066463743C760F8
:101700000E79B607B60F022E14D1DE08B6003618D1
:101710000096366A5F07B446FE0E0F27B646B740FE
:101720006646BE43B4460F697646B74066463743C1
:10173000009E376206682746B4465E00B646B7404C
:101740006646BE430F79B446BF07BF0F7646B74023
:101750006646374307604E68B603B60F4ED02B4F30
:10176000BE692E43BE61BE699F08F607F60F284E7C
:10177000BF00BE190096B6680F27B4469E07360F05
:10178000B646B7406646BE430927FF06B446B84290
:1017900002D100270BE031E01E4FB84201D10127F2
:1017A00005E01D4FB84201D1022700E0052776462B
:1017B000B74066463743009EB760184EB6684F681C
:1017C0009643FF0200D51643144FBE60FE684F6873
:1017D0009643BF0200D51643104FFE607E684F68E7
:1017E0009643BF0300D516430C4F7E603E684F689A
:1017F0009643FF0300D51643084A16605B1C0A682F
:101800001646DE4000D044E7F8BD0000001002405C
:1018100000000140000400480008004800040140A6
:10182000426913460B401B0491430B43836170478D
:10183000002A01D081617047816270470148806849
:10184000704700001800002010B5040003D0E06FBE
:10185000002802D007E0012010BD002178200155AA
:10186000204600F0CBFC2420E0672068016849088E
:1018700049000160204600F0BFFF0128ECD0606AFB
:10188000002802D0204600F0C0FE206841680922EE
:10189000D202914341602068816822229143816095
:1018A0002068816808221143816020680168012254
:1018B00011430160204600F00DFF10BD0248816811
:1018C00002788918816070471800002010B506481A
:1018D0000168102211430160032000F007F800F0B6
:1018E00027F8002010BD00000020024070B504461B
:1018F0000D4D7D202978C000FEF748FE01460B48BB
:101900000068FEF743FE00F061FC002809D1042CBA
:1019100007D200222146401E00F030F800206C6003
:1019200070BD012070BD00001800002024000020C0
:1019300008B50A488169012211438161816911401A
:101940000091C26901040A43C261C0690840009065
:101950000348016810221143016008BD00100240D5
:1019600000000140002805DBC106C90E01208840A7
:10197000014908607047000000E100E010B501F087
:1019800047F810BDF8B50F4606005ED03C4D2868FC
:10199000C007C00FB84209D2286840084000384349
:1019A00028602868C007C00FB8424ED13068354C57
:1019B00081070CD5400704D5606807210902084358
:1019C00060606068F0218843B168084360603078E7
:1019D000C0072BD07068012810D0022810D003282F
:1019E00011D02168890700292FDA616889088900E8
:1019F00001436160FFF722FF009010E0216803E0DF
:101A000021688901EFE7616B8903ECE7FFF716FFB7
:101A10000099411A1C48814201D90320F8BD606831
:101A20000C210840716889008842EFD12868C007FE
:101A3000C00FB8420BD928684008400038432860DE
:101A40002868C007C00FB84201D00120F8BD307827
:101A5000400706D56068072109028843F1680843FA
:101A6000606000F027F86168084A0906090F515CB8
:101A7000C840074908600320FFF738FF0020F8BD81
:101A800000200240001002408813000002590008A4
:101A9000240000200448054900684968044A4905B3
:101AA000490F515CC84070472400002000100240DC
:101AB0001259000870B5154A51680C200B460340B6
:101AC0001348042B05D0134D082B03D00C2B00D149
:101AD000284670BD8B02104C1B0FE45CD26A0E4B83
:101AE0001207120F1033C9039A5C890F022901D023
:101AF000032901D0002301E0002328460021FEF73E
:101B00008FFB214600F055FF70BD00000010024021
:101B100000127A00006CDC02E2580008FEB50400F6
:101B200070D02078F94EFA4DC00748D06868000799
:101B3000800F01281FD068680007800F022804D199
:101B40006868C003800F022815D06168012919D088
:101B500001208004002901D0052917D02968B1434C
:101B60002960296881432960606800281BD0FFF73D
:101B700065FE074613E02868800320D560680028CA
:101B8000CED01CE0286830432860EDE72968014387
:101B90002960F7E7FFF752FEC01B642870D8286859
:101BA0008003F7D50BE0FFF749FE074604E0FFF797
:101BB00045FEC01B6428F1D828688003F7D420783C
:101BC00080073FD568680007800F14D06868000759
:101BD000800F022804D16868C003800F01280AD052
:101BE000E068002828681ED0012108432860FFF71C
:101BF00025FE07460CE0286880070CD5E068012820
:101C000000D108E080E1FFF719FEC01B0228C5D80B
:101C100028688007F7D52868F82188432169C9001A
:101C2000084328600EE0400840002860FFF706FEE9
:101C3000074604E0FFF702FEC01B0228AED8286862
:101C40008007F7D42078000723D5E0690028686A68
:101C50000FD0012108436862FFF7F0FD074604E05A
:101C6000FFF7ECFDC01B022898D8686A8007F7D5FB
:101C70000FE0400840006862FFF7E0FD074605E01E
:101C8000C3E0FFF7DBFDC01B022887D8686A800726
:101C9000F7D4207804274007002861DA002001905B
:101CA000E869C00008D4E969B8060143E961E96957
:101CB000014001200091019096480168C90511D4A6
:101CC0000168821511430160FFF7B8FD009005E03F
:101CD000FFF7B4FD0099401A642898D88D48006831
:101CE000C005F5D5A06801280AD0002801D0052834
:101CF00011D0286A400840002862286AB84302E0F0
:101D0000286A012108432862A068002812D0FFF742
:101D100095FD00900AE0286A38432862F0E7FFF753
:101D20008DFD0099411A7C4881426ED8286A80074F
:101D3000F5D50DE0FFF782FD009006E0FFF77EFD90
:101D40000099411A744881425FD8286A8007F5D407
:101D50000198002804D0E969012000078143E96166
:101D60002078C00635D5606901280CD0401D686B0D
:101D700024D038436863686B400840006863FFF70D
:101D80005DFD074622E0686B38436863686B01219C
:101D900008436863FFF752FD074604E0FFF74EFD76
:101DA000C01B022831D8686B8007F7D5686BF82113
:101DB0008843A169C900084368630AE0B8436863BF
:101DC000F4E7FFF73BFDC01B02281ED8686B8007B5
:101DD000F7D42078800637D568680007800F03287D
:101DE00014D068680007800F022804D16868C00317
:101DF000800F03280AD0206A0028686B16D0304371
:101E00006863FFF71BFD06460CE062E0686B800329
:101E10001AD5206A012877D116E0FFF70FFD801B45
:101E2000022856D8686B8003F7D50DE0B04368638D
:101E3000FFF704FD064604E0FFF700FD801B0228C3
:101E400047D8686B8003F7D4606A002866D0696859
:101E50000907890F022942D0012636060228286880
:101E600005D0B0432860FFF7E9FC044633E0B043F7
:101E70002860FFF7E3FC074604E0FFF7DFFCC01B28
:101E8000022826D828688001F7D4E86A216B000967
:101E900000010843E862A16AE06A084369687B229E
:101EA000D203914308436860286830432860FFF7F5
:101EB000C5FC044604E0FFF7C1FC001B022808D85B
:101EC00028688001F7D529E0FFF7B8FC001B02283D
:101ED00001D90320FEBD28688001F5D41EE0012849
:101EE000F8D06868E96A0322D203A36A02409A42E2
:101EF0000AD10907226B090F914205D10F218904EC
:101F00000840E16A884209D00120FEBD00000100BE
:101F10000010024000700040881300000020F4E729
:101F2000F8B504000CD0606A002500280AD02561AD
:101F3000656126464036A562707F002808D00BE018
:101F40000120F8BD6168C81FFD38F2D0E561F0E7F7
:101F50003577204600F05CF802227277206801682D
:101F60004023994301600723E1681B02994201D98C
:101F7000002001E0012000030F273F02B94202D0F8
:101F8000994200D0A562FF236168053319402127DB
:101F9000A368BF023B40194323691340227D1943C4
:101FA000D207D20F11430123A2695B021A401143E9
:101FB000E26938231A401143226A80231A401143F0
:101FC000A26A9B011A40114322681160A169042290
:101FD000090C1140626A10231A401143626B0823F6
:101FE0001A4011430F23E2681B021A4011430122D9
:101FF000120310400143206841602068C1695210FB
:102000009143C1612566012070770020F8BD000072
:1020100010B586B0044614216846FEF7B5FA11499A
:10202000206888421CD11048826981140A43826169
:1020300082690A400592426949010A434261406946
:1020400008400590E020009002200190002103202C
:1020500003900291049109206946C006FFF714FB22
:1020600006B010BD0030014000100240FFB505462B
:1020700004464035287F002781B01646012809D044
:1020800001202877FFF7DAFB0090687F012804D051
:10209000022797E0022005B0F0BD0298002874D016
:1020A000002E72D003206877002020660299A16379
:1020B000A687E6872064A880E8802065E064012286
:1020C000A068D2034021904208D1206802688A4368
:1020D0000260206802680B021A43026020680268EE
:1020E000520602D402680A4302600721E06809022E
:1020F0008842606828D9002801D0012E1ED1A06B2B
:1021000021680088C86006E020688168890709D5D1
:10211000A16B0988C160A06B801CA063E08F401E8A
:10212000E0870BE0FFF78AFB0099411A049881428F
:1021300002D3401C02D005E0002803D0E08F002825
:10214000E2D128E003273BE0002801D0012E1FD177
:10215000A06B21680078087306E020688168890711
:1021600009D5A16B09780173A06B401CA063E08FB7
:10217000401EE0870CE0FFF761FB0099411A0498CC
:10218000814203D3401C03D0DCE717E00028D9D0FC
:10219000E08F0028E1D12046009A049900F01AF956
:1021A000002801D020202066A068002803D12068E4
:1021B000C16880680090206E002801D0012701E0EE
:1021C0000120687700202877384664E7094910B570
:1021D000401E884201D9012010BD074C60610321D7
:1021E000081F00F015FC0020A061072020610020DE
:1021F00010BD0000FFFFFF0000E000E010B586B05A
:10220000044614216846FEF7BFF911492068884248
:102210001CD11048C269012149040A43C261C26944
:102220000A40059242690A434261406908400590AC
:1022300004200090122001900121032003900291BC
:10224000049109206946C006FFF71EFA06B010BDCA
:102250000044004000100240FEE70000F0B587B0E7
:1022600014216846FEF790F9354842690121890436
:102270000A43426142690A400592426909010A43E0
:10228000426142690A400592426949110A4342612A
:10229000406901220840059002212A48FFF7C8FA48
:1022A000092001220321C006FFF7C2FA09200022FB
:1022B0000821C006FFF7BCFAFF200130002700907C
:1022C0000197694602972048FFF7DEF9112601259C
:1022D00036046A46E0C269461A48FFF7D5F9022477
:1022E0006846B0C0694617480397FFF7CDF90B2041
:1022F0006946A1C109206946C0060397FFF7C4F9E2
:1023000010206A46C1C209206946C006FFF7BCF921
:102310006A46D0C269460C48FFF7B6F9002211465A
:102320000520FFF72BFB0520FFF71CFB00221146C1
:102330000720FFF723FB0720FFF714FB07B0F0BDD2
:1023400000100240001400480004004810B5114875
:102350000F490160FF2105314160002107228160A2
:1023600012020161C2600122416152028261016276
:1023700018224162C26181620722C26201630821A0
:102380004163FFF7CDFD002801D072B6FEE710BD16
:10239000003001402800002010B50C480A490160B7
:1023A000E1214902416000218160C16001618161D8
:1023B000C1610822016242614162FFF745FA0028CB
:1023C00001D072B6FEE710BD004400408C00002032
:1023D000FEE77047F8B50F460B46154600920321FD
:1023E00004460022C90200F01BF82026002812D162
:1023F0003B46002280212046009500F07DF8002811
:1024000009D103213B46002249022046009500F0F5
:1024100007F8002803D0206E304320660320F8BD63
:10242000FFB585B00E460446002069460E9D17464E
:102430000871FFF703FA411B0898451AFFF7FEF9E8
:102440000390206823210C3002902A4800684843FA
:10245000000D684346E003204002864206D1002F6B
:1024600004D1029801786846017100790898401CEF
:1024700039D0FFF7E3F90399401AA84205D2002D9D
:1024800003D0009800282BD02BE020684168E02280
:10249000914341606068C11FFD390CD10121A068E2
:1024A000C903884202D04911884204D120680168DA
:1024B0004022914301600120A16A4003814207D17B
:1024C00021680A6882430A6021680A6802430A6038
:1024D00001204034607700202077032009B0F0BD50
:1024E0000025401E0090206880683040B842B2D17C
:1024F0000020F3E724000020FFB581B01E4604460B
:102500000A9DFFF79BF9401B351AFFF797F907461D
:10251000264800684001000D684339E0701C38D03F
:10252000FFF78CF9C01BA84205D2002D03D00098FC
:1025300000282BD02BE020684168E02291434160C5
:102540006068C11FFD390CD10121A068C903884210
:1025500002D04911884204D1206801684022914389
:1025600001600120A16A4003814207D121680A6805
:1025700082430A6021680A6802430A6001204034ED
:10258000607700202077032005B0F0BD0025401EB5
:102590000090206881680298884305D00021039844
:1025A0008142BBD10020EFE70121F8E724000020A1
:1025B000704710B5FFF782F910BD10B592B0342105
:1025C0006846FDF7E1FF00240F94202000900D9451
:1025D00001200E940890109409946846FFF79EFA23
:1025E000002801D072B6FEE707200D9003200E9060
:1025F0000F94012110940DA8FFF7C4F9002801D011
:1026000072B6FEE712B010BD704710B5818CC907D5
:1026100007D001684A6801235B049A43836A1A431E
:102620004A60818C890707D501684A6801231B0429
:102630009A43C36A1A434A60818C490707D50168E7
:102640004A6801239B049A43036B1A434A60818CB6
:10265000090707D501684A680123DB039A43436BE6
:102660001A434A60818CC90607D502689168012324
:102670001B039943836B19439160818C890607D5AD
:1026800001688A6801235B039A43C36B1A438A601B
:10269000818C490612D503685A6801210905046C2A
:1026A0008A4322435A60026C8A4207D10268516809
:1026B00003235B059943436C19435160818C0906E0
:1026C00007D501684A680123DB04806C9A43024302
:1026D0004A6010BDFEB507460025803704467D6080
:1026E000FFF7ACF8019020680068264600076036C6
:1026F000002819DA274800900121002249052046C8
:10270000019B00F011F900280ED0EFF31080012199
:1027100081F3108821680A6880239A430A6080F355
:1027200010882020E06729E020680068400728D54D
:10273000184800900121002289052046019B00F0E5
:10274000F3F800281DD0EFF31080012181F31088E9
:1027500021680A68FF2321339A430A6080F31088B6
:10276000EFF31080012181F3108821688A685208F4
:1027700052008A6080F3108820203860357603206C
:10278000FEBD2020E067386025666566357600204E
:10279000FEBD0000FFFFFF0110B5EFF31081012225
:1027A00082F3108802681368FF242134A343136066
:1027B00081F31088EFF31081012282F31088026800
:1027C00093685B085B00936081F31088016E0129B8
:1027D0000BD1EFF31081012282F310880268136895
:1027E0001024A343136081F31088202280210A5013
:1027F00000210166816610BD70B5044680682169BC
:10280000E2690843616900251143226808431168A1
:102810003F4B1940014311602168486803221203AD
:102820009043E26810434860A169206A0843216828
:102830008A680B231B029A4302438A603549206849
:10284000884210D13448006B8007800F0ED00128D9
:1028500005D0022805D003280AD1022109E004216D
:1028600007E0082105E02D49884201D1002100E060
:1028700010210120E369C003294A2A4E834222D154
:10288000002906D0022907D0042907D0082935D10C
:1028900008E0FFF7FFF803E0104603E0FFF70AF94E
:1028A000002830D0616840004A088018FDF76EFEAD
:1028B00001461039B14221D81A49491C014000078C
:1028C000400F08431DE0002906D0022907D0042943
:1028D00007D0082912D108E0FFF7DCF803E0104622
:1028E00003E0FFF7E7F800280DD061684A081018E8
:1028F000FDF74CFE01461039B14201D9012502E035
:1029000080B22168C8600020A066E066284670BDDD
:10291000F369FFEF0038014000100240004400401E
:1029200000127A00EFFF0000FFB5064681B0803646
:102930000546044660350A9F2EE0781C2CD0FEF731
:102940007DFF0499401AB84214D8002F12D0206895
:102950000168490720D5C169C94309070CD4082774
:1029600007622046FFF718FF7760002028760120D5
:1029700005B0F0BD0320FBE7C069C04300050BD4E0
:1029800001202168C00208622046FFF705FF2020D1
:10299000706000202876EDE72068C16902988843BE
:1029A00005D0002103988142C7D00020E0E7012133
:1029B000F8E7F8B5040C8BB2264682B25E430D0CE4
:1029C0001046370C584336048019002179411646C9
:1029D0006E43370C36048019794126466E438919B7
:1029E000F8BD00004900CA020243100000D00420D4
:1029F0004A0D01D001221043044A490D914201D1F0
:102A000002210843012800D105207047FF0700007C
:102A10008307FF22DB0E9A408907090E99400028A0
:102A200008DB830809489B001B181868904308437B
:102A3000186070470007000F0838830804489B009F
:102A40001B18D86990430843D861704700E400E040
:102A500000ED00E0F7B596B014460021A160D1600A
:102A6000179909914D00CD496D088D4205DC1799E4
:102A700061602060002019B0F0BDC949C94E8D4287
:102A800038DAD32709997F050029C74A17993346B1
:102A900017DDFEF746FDB54206D0C44AC44BFEF72B
:102AA00040FD6160206009E03A46C14BFEF739FD08
:102AB000C04AC14BFEF735FD61602060012019B0AE
:102AC000F0BDFEF721FDB54206D0B84AB84BFEF77F
:102AD0001BFD6160206009E03A46B54BFEF714FD2E
:102AE000B44AB54BFEF710FD616020600020C04382
:102AF00019B0F0BDB1498D42179977DC49004908FA
:102B00000746AF4AAF4B0491FEF7B4F80022AE4B34
:102B1000FEF7FAFCFEF74CF80A90FEF7A0F8A24A7E
:102B2000334603910290FEF7A5F83A46049BFEF760
:102B300003FD06460F469D4A9D4B03990298FEF7FA
:102B400099F82A0D01250C9232463B46FEF7F4FC1B
:102B500061602060032D39D04800410D0C98401A67
:102B6000690169181139814230DA9849280179449C
:102B700008960D9008180497436802680399029814
:102B8000FEF778F802460B460791069004990898DC
:102B9000FEF7C7FC06460F46049B089AFEF7CCFCDE
:102BA000079B069AFEF7BDFC05918949049079447C
:102BB0000D984018C368826803990298FEF75AF886
:102BC000059B049AFEF7ADFC6D1CBDE70998002833
:102BD00009DA01226068D207504060600A9819B093
:102BE0004042F0BD02E00A9819B0F0BD090301228D
:102BF000090B12050E90891817981091400075491D
:102C0000400D40184111C006C00E0D9113902021B7
:102C1000081A1490002006900525079013980028A4
:102C20000D980CD0401982006B487844875813994E
:102C30008F40101841681498C1400F4304E04019B8
:102C4000810066487844475810993846FFF7B1FE2E
:102C500006460A9138460E99FFF7ABFE8A190A9B81
:102C60008A4201D2012100E00021C9188C46AF0040
:102C7000694679188B684E68C318834201D20120D7
:102C800000E0002096193618002802D0964202D99A
:102C900003E0964201D2012000E0002062461218B3
:102CA0004E6068468B60C25128466D1E0028B5DC18
:102CB0000121029849074018800F13900298059946
:102CC0008000039E049D0B91FDF7C9FF0746304627
:102CD0000891FDF7CCFF1D22D243FEF745FC109072
:102CE0000F912846FDF7C3FF3D22D243FEF73CFC7F
:102CF0000E900D910B98FDF7BAFF5D22D243FEF7BF
:102D000033FC0B910C900D9B0E9AFEF7FDFB0F9B75
:102D1000109AFEF7F9FB3A46089BFEF7F5FB0025F3
:102D20000E463A462846089BFEF7FBFB0F9B109A7F
:102D3000FEF7F7FB0D9B0E9AFEF7F3FB0B9B0C9A2D
:102D4000FEF7FAFB264A274BFDF794FF07460D9145
:102D5000254A264B31462846FDF78CFF3A460D9B07
:102D6000FEF7D2FB0F4615220C9092061D4B314602
:102D70002846FDF77FFF3B460C9AFEF7C5FB179AE6
:102D8000002A05DA139A524213920122D2075140C7
:102D900061602060139819B0F0BD0000FB21E93F8D
:102DA0007CD90240FB21F93F000040543163621A94
:102DB00061B4D03D7370032E8A19A33BFB213941C6
:102DC00083C8C96D305FE43F0000E03F9E2E0000E5
:102DD0005E2E00000BFCFFFF122E0000F82D0000FD
:102DE000182D4454FB21F93D3326A611460B113C06
:102DF000F0B51FB44E00F9207608800584B00F4668
:102E0000864204DA0498FDF7D3FE002838D0049AED
:102E10003B4610461946FDF72DFF044602462C4856
:102E20000D460B460621784400F05CF822462B46FE
:102E3000FDF720FF019100903946079B069A049800
:102E4000FDF718FF0746029120462946019B009A8C
:102E5000FDF710FF3A46029BFEF763FB0746002290
:102E60000091D24320462946FEF77EFB194A96423E
:102E70000ADA3A46009BFEF754FB0022164B23E089
:102E80000020154909B0F0BD144A964202DD002425
:102E9000134D03E001225205B51A002422462B46A9
:102EA000FEF73FFB0646019122462B4600200A49C9
:102EB000FEF737FB0D4604463A463046009B019923
:102EC000FEF72FFB22462B46FEF736FB09B0F0BD7E
:102ED000B62B00003333D33F0000F03F0000E93F42
:102EE0000000D23FF8B504464F1EC800083821182C
:102EF00015461E46086849683A4606239A4310D08C
:102F00002A463346FDF7B6FE3A46D200083AA318E1
:102F10001A687F1E5B68FEF7F7FA06223B4693436A
:102F2000EED1022F23D0042F11D0062F2FD12A4605
:102F30003346FDF79FFEE36AA26AFEF7E5FA2A46EA
:102F40003346FDF797FE636A226AFEF7DDFA2A46EA
:102F50003346FDF78FFEE369A269FEF7D5FA2A46EC
:102F60003346FDF787FE63692269FEF7CDFA2A46EC
:102F70003346FDF77FFEE368A268FEF7C5FA2A46EE
:102F80003346FDF777FE63682268FEF7BDFAF8BDA9
:102F9000F0B51FB4054648000C46F92140088905E4
:102FA00086B088420BDA28462146FFF71BFD04282D
:102FB00001D100F071F8284621460BB0F0BD2A4639
:102FC000234610461946FDF755FE06460F462A468B
:102FD0002346FDF74FFE00902548019132463B46BF
:102FE00005217844FFF77EFF029010980391002896
:102FF00029D0204A204B01990098FDF73BFE049010
:10300000059168460FC8FDF735FE0022019100903A
:10301000D24309990898FEF7A7FA019B009AFEF798
:1030200080FA32463B46FDF725FE099B089AFEF7DB
:1030300078FA059B049AFEF774FA2A462346FEF7AF
:103040007BFA0BB0F0BD0B4630463946029AFDF7CD
:1030500011FE084A084BFEF757FA019B009AFDF74C
:1030600009FE2A462346FEF74FFA0BB0F0BD0000DA
:10307000F22A0000495555555555C5BF10B50122D6
:10308000FEF772FA10BD002210B513461046114625
:10309000FDF76AFB10BD0000034A10B500201107C0
:1030A000FEF762FA10BD000001FDFFFF00B54A0007
:1030B000224B520887B09A4202DC0022134625E0D8
:1030C0001F4B9A4208D1002808D10120FEF704F8CE
:1030D000FFF7D9FF07B000BD9A4203DBFFF7CEFF31
:1030E00007B000BD02AAFFF7B5FC8107890F0BD01E
:1030F000012001290ED0022916D0009002A80FC885
:10310000FFF746FF07B000BD02A80FC8FFF770FE2B
:1031100007B000BD009002A80FC8FFF739FF0122D9
:10312000D207514007B000BD02A80FC8FFF760FEEC
:103130000122D207514007B000BD0000FB21E93F4A
:103140000000F07FFEF7C2FBFFF737FAFFF786F8C3
:10315000FFF7FCF8FFF720F90924E4067D25ED00D0
:1031600008212046FEF75CFB00F002FC2846FEF733
:103170006BFAF5E700B54A00234B520887B09A4234
:1031800003DC00221346009229E0204B9A4208D12A
:10319000002808D10120FDF79FFFFFF774FF07B05B
:1031A00000BD9A4203DBFFF769FF07B000BD02AA2A
:1031B000FFF750FC8107890F012000290CD001295D
:1031C00011D0022915D002A80FC8FFF711FE012265
:1031D000D207514007B000BD009002A80FC8FFF70A
:1031E000D7FE07B000BD02A80FC8FFF701FE07B069
:1031F00000BD009002A80FC8FFF7CAFE0122D20747
:10320000514007B000BD0000FB21E93F0000F07F06
:1032100010B5FDF753FE054A054BFDF72BFD0022C7
:10322000044BFDF7A1FAFDF761FA10BD1F85EB51C4
:10323000B81E094000806640FFB58FB01D46189843
:1032400000F03BFB0446284600F037FB2421FF2515
:10325000484369352946FDF799F906462046242159
:1032600048432946FDF792F90746FDF72DFF05462D
:103270002046FDF729FF29460D90FDF749FE0190F4
:1032800062E03046FDF720FF019900F025FEFFF7D0
:10329000BFFF03901198FDF7EAFC04460D4602912A
:1032A0000398FDF70BFE04910390FFF763FF22469E
:1032B0002B46FDF7DFFCFDF77BFC0F994018C0B2F1
:1032C000099004990398FFF7F1FE22462B46FDF77B
:1032D000D1FCFDF76DFC1099761C4018C0B205902A
:1032E000BE4206D03046FDF7EFFE019900F0F4FD36
:1032F00000E00D98FFF78CFF02990C91FDF7DEFDC1
:1033000005460491FFF736FF22460C9BFDF7B2FC01
:10331000FDF74EFC0F994018C0B20299069000913B
:1033200028460499FFF7C2FE2246009BFDF7A2FC47
:10333000FDF73EFC1099069A4018C3B21998009008
:103340000599099800F078FABE429AD313B0F0BDFF
:10335000FFB591B00E46002107461C461A9803910E
:10336000029100F0AAFA0090204600F0A6FA24216B
:10337000FF25484369352946FDF708F904460098BA
:10338000242148432946FDF701F90546FDF79CFE37
:1033900001900098FDF798FE0F900199FDF7B8FD98
:1033A00001902046FDF790FE019900F095FDFFF792
:1033B0002FFF00901398FDF75AFC049005910C9094
:1033C00009910098FDF77AFD00910890FFF7D2FE71
:1033D000099B0C9AFDF74EFCFDF7EAFBC019C0B241
:1033E0000A900498059909910C9000990898FFF7A4
:1033F0005DFE099B0C9AFDF73DFCFDF7D9FB80199A
:10340000C0B20B9066E02046FDF75EFE019900F029
:1034100063FDFFF7FDFE02460599049803910890AD
:103420001046FDF74BFD02910090FFF7A3FE039BB2
:10343000089AFDF71FFCFDF7BBFBC019C0B2059948
:10344000099003910498089002990098FFF72EFEC6
:10345000039B089AFDF70EFCFDF7AAFB8019C0B28A
:10346000641C0890AC4206D02046FDF72DFE019961
:1034700000F032FD00E00F98FFF7CAFE059A0499AC
:1034800003920E91FDF71AFD02910090FFF772FE74
:10349000039B0E9AFDF7EEFBFDF78AFBC019C0B245
:1034A0000390049805990C900D9102990098FFF7EC
:1034B000FDFD0D9B0C9AFDF7DDFBFDF779FB8019F7
:1034C000C0B202901B980090029B039A0899099839
:1034D00000F0B2F9AC4296D31B98009031463846C2
:1034E0000B9B0A9A00F0A8F91B98009031463846C9
:1034F000029B039A00F0A0F915B0F0BDFFB5D81DEE
:1035000082B0C0080190029800261F4680282AD267
:103510000398202827D2002522E00199002428467C
:103520004843009014E0600702D07006060E04E0E5
:103530000499E20800985118465C300606D50298B6
:103540000C9A0019C0B2039900F054F8641CE4B25C
:10355000BC42E8D36D1C0398EDB2401CC0B203908E
:103560000B988542D9D306B0F0BDFFB50F46500089
:10357000022183B00C1A039855420026802837D2C6
:10358000202F35D2B819C1B200900398401B01908A
:10359000C0B2069A00F02EF80098069AC1B20398BD
:1035A00040190290C0B200F025F8B81BC1B20090DB
:1035B0000298069AC0B200F01DF80098069AC1B2AF
:1035C0000198C0B200F016F82046B44208DC761C20
:1035D00071000C18641CF54202D1A84200DC0020E6
:1035E000A84203DD6D1C68000419641C002DC9DDB0
:1035F00007B0F0BD30B580280ED220290CD24D077F
:1036000001236D0FAB40C908054CC9010818215CA6
:10361000012A02D09943215430BD1943FBE7000031
:1036200014010020FFB581B00A9C17460E460546DE
:103630000B46009400F000F93A46009431461046DB
:10364000049B00F0F9F8049B00942A46194638467A
:1036500000F0F2F82A46334600941046049900F030
:10366000EBF805B0F0BD000010B50021064B0122BB
:103670005202002805D0FF245C54491C9142F8D323
:1036800010BD0024F8E7000014010020FFB5500031
:10369000022184B0081A0090049854420025802822
:1036A00038D20598202835D205984019C7B2049819
:1036B000001B03900498001902900598401B01908C
:1036C0000FE00398C6B206E039463046079AFFF786
:1036D00091FF761EF6B20298B042F5DD7F1E01988A
:1036E000FFB2B842EDDD0098A84209DC6D1C6A000B
:1036F0001118491C0091EC4202D1A04200DC0020CC
:10370000A04205DD641C009861000818401C009070
:10371000002CC9DD08B0F0BDF8B5904201D80446D0
:1037200000E014460094904200D8104604469942A6
:1037300001D80E4600E01E46994200D819460F46B1
:103740000EE0009D06E031462846069AFFF752FF3C
:103750006D1CEDB2A54201D8802DF4D3761CF6B2D3
:10376000BE4201D8202EECD3F8BD000010B500F009
:10377000C3F86420FDF768FF002000F0E9F820207E
:1037800000F056FB002000F053FBB02000F050FB8F
:10379000C82000F04DFB002000F04AFB102000F094
:1037A00047FB402000F044FBFF2000F0C1F8A120BF
:1037B00000F03EFBA62000F03BFBA82000F038FB09
:1037C0001F2000F035FBA42000F032FBD32000F0D6
:1037D0002FFB002000F02CFBD52000F029FBF0206F
:1037E00000F026FBD92000F023FB222000F020FB74
:1037F000DA2000F01DFB022000F01AFBDB2000F0B5
:1038000017FB202000F014FB8D2000F011FB14208A
:1038100000F00EFB012000F09BF80020FFF724FFD2
:1038200000F0A0FA034800210180418001210171CC
:1038300010BD000000000020FFB584B007460698C8
:103840000E46C41B00D564420798801B00D5404239
:10385000009000200699C0438F4201D2012100E070
:103860000146039107998E4200D2012002900098F0
:103870000D9A251A0698FFF7BDFE00984042019068
:1038800013E0314638460D9AFFF7B4FE01996800FF
:10389000884204DD00996D1A03997918CFB2A042CD
:1038A00003DA02982D193018C6B206988742E8D17B
:1038B00007988642E5D108B0F0BDFF216931884202
:1038C00002D9002800D108467047F8B517460E46C1
:1038D00005000FD001240BE06100009748194378E0
:1038E0006A5C2038C17F807FFFF7A6FF641CA4B20A
:1038F000B442F1D3F8BD000010B5012202210B48FB
:10390000FDF796FF0924E406002201212046FDF779
:103910008FFF0A20FDF798FE012211462046FDF791
:1039200087FF0A20FDF790FE10BD0000001400483C
:1039300010B50446812000F07BFA204600F078FAAA
:1039400010BD0000014A1080518070470000002027
:1039500010B50649002802D0AF20012201E0AE20B8
:1039600000224A7100F064FA10BD0000000000203F
:1039700010B5FFF7FBFE00F0E5F81F4C2046FDF701
:1039800063FE00F052F800F063F92046FDF75CFE9C
:103990002046FDF759FE0020FFF766FE00F0A8F96B
:1039A00000F082F92046FDF74FFE0020FFF75CFE95
:1039B00000F0B5F92046FDF747FE0020FFF754FE62
:1039C00000F086F92046FDF73FFE0020FFF74CFE91
:1039D00000F014F82046FDF737FE0020FFF744FE04
:1039E00000F055F82046FDF72FFE00F071F8204654
:1039F000FDF72AFE10BD0000B80B00007CB5FF24C7
:103A00001E2201250F3414231146104601950094FF
:103A1000FFF712FC1E230A22372150200195009443
:103A2000FFF796FC00F09EF97CBD70B50020FFF713
:103A30001BFE00252C46002221462846FFF7DAFD12
:103A4000002C03D17F2D01D26D1C0AE07F2D03D104
:103A50001F2C01D2641C07E01F2C04D1002D02D0C2
:103A60006D1EEDB201E0641EE4B20122214628463B
:103A7000FFF7C0FD00F076F90520FDF7E5FD2846CB
:103A80002043D8D17D20C000FDF7DEFD70BD10B50C
:103A900000242046142148431E30C0B201230A22CC
:103AA0000F21FFF762FD641C052CF2D30024204691
:103AB000172148430F30C0B201230A222821FFF703
:103AC000E5FD641C052CF2D300F04CF910BD00009C
:103AD0007CB50120FFF7C8FD002540248023164A4D
:103AE0002946284601950094FFF708FD00F03AF9B1
:103AF000124E3046FDF7A8FD0020FFF7B5FD01206E
:103B0000019040230E4A002100942020FFF7F6FC8C
:103B100000F028F93046FDF797FD0120FFF7A4FDDE
:103B20004023074A0021202001950094FFF7E6FC7E
:103B300000F018F97CBD0000D4520008B80B00005A
:103B4000D4560008F0B593B00120FFF78DFDFDF7C6
:103B500075FE064630A207CA6B4607C300273946E2
:103B60000220FFF7EFFE2F4C002306CC2EA0083CCE
:103B700000F09CF924210220FFF7E4FE06CC00238C
:103B80002CA0083C00F092F912210220FFF7DAFE87
:103B900006CC00236846083C00F088F900F0E2F803
:103BA000684605780A22411CFCF7A8FC6846857225
:103BB0007F1CFDF743FE0546811B21488142E3D36C
:103BC000FDF742FDA81BFDF752F800221D4BFCF744
:103BD000CBFD05460E463846FDF76EFAFDF76EF949
:103BE0002A463346FCF7C0FDFCF7E2FF034616A267
:103BF000402103A8FCF796FB0120FFF735FD0221C9
:103C00000846FFF79FFE06CC002303A800F04EF9FC
:103C100000F0A8F813B0F0BD414243444546474880
:103C2000494A4B001000002054657374696E672E7A
:103C30002E2E0000303132333435363738394100DA
:103C40008813000000408F407E25642046505300BA
:103C500010B500242046FFF707FD21460220FFF79C
:103C600071FE0948012306C808A000F01FF91221BF
:103C70000220FFF767FE0848012306C807A000F0EE
:103C800015F900F06FF810BD10000020466F6E743B
:103C9000203131783138000008000020466F6E7402
:103CA000203678380000000038B501241F237F2219
:103CB000214620460094FFF7BFFD01221F23114635
:103CC0007F200094FFF7B8FD00F04CF838BD0000ED
:103CD0001FB5064B6C460FCB0FC401220721684667
:103CE000FFF7F3FD00F03EF81FBD0000D4580008B8
:103CF000F8B5002401251F267F27A0002018311ABF
:103D0000CBB2391ACAB2401CC1B2C0B20095FFF79B
:103D100089FC641C052CF0D300F024F8F8BD38B5FC
:103D200001242323412221461F200094FFF7F4FCA5
:103D30003C2346222D210A200094FFF7EDFC2D2381
:103D400064220A214B200094FFF7E6FC0020372371
:103D5000009050221E211846FFF7DEFC00F002F80A
:103D600038BD000070B50B4D00242046B030C0B205
:103D700000F05EF8002000F05BF8102000F058F82A
:103D8000E0014019802100F071F8641CE4B2042CB9
:103D9000EBD370BD14010020FFB582B0029820382B
:103DA00001905F280BD221486A460188177BC91908
:103DB000802904D84088567B8019202802D9002009
:103DC00006B0F0BD002526E0019804997043401923
:103DD0004000085A002400901AE00098A040000417
:103DE00008D51248059A8178007849190019C9B296
:103DF000C0B20AE00598002815D000220B4881784F
:103E0000007849190019C9B2C0B2FFF7F3FB641C6E
:103E1000A742E2D86D1CAE42D6D804480188C91921
:103E200001800298CCE70122E8E7000000000020B2
:103E300031B50C4C002202212046FDF7F9FC092087
:103E400000220221C006FDF7F3FC0023DB43012220
:103E500069460548FEF70AF9012202212046FDF7CE
:103E6000E7FC38BD001400482800002070B50D4E56
:103E70000D460446002202213046FDF7D9FC0920F8
:103E800001220221C006FDF7D3FC0023AAB2DB43C6
:103E900021460548FEF7EAF8012202213046FDF7E7
:103EA000C7FC70BD0014004828000020F0B51D4676
:103EB0000E46174604460AE02B463A463146FFF7BF
:103EC0006BFF2178884201D0C8B2F0BD641C207815
:103ED0000028F1D1C0B2F0BD70B5420064414B0082
:103EE0005C41120E39D01B0E38D0FF2A3CD0FF2B7C
:103EF0003AD040024902400A490A060045184E439A
:103F0000000A090AD2184843ED017F3A0104731AE6
:103F10004019190C4318990F04D001215B08490777
:103F20005B1A521CD80904D3401CF50301D19D062D
:103F300007D0FF2A08D2D50506D0E4072043401950
:103F400070BD0125A843F4E7002A01DCE00770BD3D
:103F50002402FF202043C00570BD1B0EFF2A03D0A2
:103F6000FF2B01D0E00770BDFF2645003606B542A5
:103F700006D84D00B54203D8D218FF2A00D0E7E793
:103F8000004870BD0000C07F00000000000000007D
:103F90000000000000000000000000000000000021
:103FA0000000000000000000000000000000000C05
:103FB000000C000C000C000C000C000C000C000CA1
:103FC000000C000C0000000C000C000000000000C1
:103FD0000000001B001B001B001B001B000000005A
:103FE00000000000000000000000000000000000D1
:103FF0000000000000008019801980198019C07F1E
:10400000C07F80190033C07FC07F0033003300338E
:1040100000330000000000000000001E003F80751B
:1040200080650074003C001E000780058065806587
:104030008075003F001E00040004000000000070B6
:1040400000D840D8C0D880D900730006000C801B6F
:10405000C036C066C046C0068003000000000000F5
:104060000000001E003F003300330033001E000C30
:10407000C03CC066806380618063C03E801C0000DD
:10408000000000000000000C000C000C000C000CF4
:104090000000000000000000000000000000000020
:1040A0000000000000000000800000010003000686
:1040B00000060004000C000C000C000C000C000CAE
:1040C000000400060006000300018000002000102C
:1040D0000018000C000C0004000600060006000694
:1040E000000600060004000C000C00180010002060
:1040F0000000000C002D003F001E003300000000F7
:1041000000000000000000000000000000000000AF
:1041100000000000000000000000000C000C000C7B
:10412000000CC0FFC0FF000C000C000C000C0000D5
:10413000000000000000000000000000000000007F
:10414000000000000000000000000000000000006F
:104150000000000C000C0004000400080000000037
:104160000000000000000000000000000000001E31
:10417000001E000000000000000000000000000021
:10418000000000000000000000000000000000002F
:1041900000000000000000000000000C000C000007
:1041A00000000000000000030003000300060006FA
:1041B00000060006000C000C000C000C0018001893
:1041C00000180000000000000000001E003F003347
:1041D000806180618061806D806D806180618061BF
:1041E0000033003F001E0000000000000000000639
:1041F000000E001E0036002600060006000600061F
:104200000006000600060006000600000000000090
:104210000000001E003F8073806180618001000308
:104220000006000C001800300060807F807F0000D6
:10423000000000000000001C003E0063006300035B
:10424000000E000E00038001800180618073003F3A
:10425000001E00000000000000000006000E000E1E
:10426000001E001E0016003600360066807F807F2C
:104270000006000600060000000000000000007FAD
:10428000007F006000600060006E007F806380013E
:10429000800180618073003F001E0000000000006C
:1042A0000000001E003F803380610060006E007FD0
:1042B00080738061806180618033003F001E000058
:1042C000000000000000807F807F80010003000369
:1042D00000060006000C000C000C00080018001876
:1042E00000180000000000000000001E003F806376
:1042F000806180610021001E003F806180618061DB
:104300008061003F001E0000000000000000001E51
:10431000003F00738061806180618073803F801DF9
:10432000800180610073003F001E0000000000005B
:1043300000000000000000000000000C000C000065
:1043400000000000000000000000000C000C000055
:10435000000000000000000000000000000000005D
:10436000000C000C00000000000000000000000C29
:10437000000C000400040008000000000000000021
:1043800080008003000E003800600038000E8003BB
:10439000800000000000000000000000000000009D
:1043A000000000000000807F807F00000000807F10
:1043B000807F0000000000000000000000000000FE
:1043C000000000000000000000400070001C00071A
:1043D00080010007001C0070004000000000000089
:1043E000000000000000001F803FC071C060C000DE
:1043F000C00180030007000E000C000C0000000C40
:10440000000C0000000000000000001E003F803192
:1044100080718063806F806D806D806F80670060C9
:104420000032003E001C0000000000000000000EF2
:10443000000E001B001B001B001B80318031803FE1
:10444000803F8031C060C060C0600000000000009C
:104450000000007C007E0063006300630063007E58
:10446000007E0063806180618063007F007E0000C9
:10447000000000000000001E003F803180610060ED
:104480000060006000600060006080618031003F7B
:10449000001E0000000000000000007C007F0063A0
:1044A0008063806180618061806180618061006380
:1044B0000063007E007C0000000000000000807FA0
:1044C000807F0060006000600060007F007F00600F
:1044D000006000600060807F807F000000000000BE
:1044E0000000807F807F0060006000600060007FCF
:1044F000007F0060006000600060006000600000FD
:10450000000000000000001E003F8031806100605C
:104510000060006080638063806180618031803FE3
:10452000001E0000000000000000806180618061CA
:10453000806180618061807F807F80618061806137
:104540008061806180610000000000000000003F89
:10455000003F000C000C000C000C000C000C000CC8
:10456000000C000C000C003F003F000000000000A9
:1045700000008001800180018001800180018001B4
:1045800080018001806180618073003F001E000017
:10459000000000000000C0608061006300660066EB
:1045A000006C0078007C00660066006380618061BA
:1045B000C0600000000000000000006000600060BB
:1045C00000600060006000600060006000600060EB
:1045D0000060807F807F0000000000000000C0714C
:1045E000C071C07BC07AC06AC06AC06EC064C0605F
:1045F000C060C060C060C060C0600000000000001B
:10460000000080718071807980798079806D806D03
:10461000806D80658067806780678063806300004D
:10462000000000000000001E003F00338061806138
:104630008061806180618061806180610033003FC2
:10464000001E0000000000000000007E007F80636C
:104650008061806180618063007F007E0060006017
:104660000060006000600000000000000000001E0C
:10467000003F003380618061806180618061806182
:10468000806580670033803F401E0000000000000E
:104690000000007E007F8063806180618063007F16
:1046A000007E00660063006380618061C06000007E
:1046B000000000000000000E001F8031803100303B
:1046C0000038001E00078003806180618031003F58
:1046D000001E0000000000000000C0FFC0FF000C32
:1046E000000C000C000C000C000C000C000C000C6A
:1046F000000C000C000C00000000000000008061B5
:1047000080618061806180618061806180618061A1
:10471000806180618073003F001E00000000000087
:104720000000C060C060C060803180318031001BFB
:10473000001B001B001B000E000E000E00040000FA
:10474000000000000000C0C0C0C0C0C0C0C0C0C0E9
:10475000C0CC804C804C805E8052805280738061DF
:1047600080610000000000000000C0C08060806127
:104770000033003B001E000C000C001E001F003B1D
:1047800080718061C0C00000000000000000C0C057
:104790008061806100330033001E001E000C000C9D
:1047A000000C000C000C000C000C000000000000CD
:1047B0000000803F803F8001000300030006000CE2
:1047C000000C0018001800300060807F807F00001F
:1047D00000000000000F000F000C000C000C000C8B
:1047E000000C000C000C000C000C000C000C000C69
:1047F000000C000C000F000F00000018001800183B
:10480000000C000C000C000C000600060006000660
:10481000000300030003000000000000001E001E53
:104820000006000600060006000600060006000658
:10483000000600060006000600060006001E001E18
:104840000000000C000C001E0012003300338061D9
:104850008061000000000000000000000000000077
:104860000000000000000000000000000000000048
:104870000000000000000000000000000000000038
:1048800000000000E0FF0000000000380018000CED
:104890000000000000000000000000000000000018
:1048A0000000000000000000000000000000000008
:1048B000000000000000001F803F80618001801F19
:1048C000803F80618063807FC0380000000000006E
:1048D00000000060006000600060006E007F807378
:1048E00080618061806180618073007F006E000064
:1048F0000000000000000000000000000000001E9A
:10490000003F807380610060006080618073003FC1
:10491000001E0000000000000000800180018001F6
:104920008001801D803F8073806180618061806133
:104930008073803F801D0000000000000000000028
:10494000000000000000001E003F00738061807FB7
:10495000807F00608071003F001E000000000000AA
:104960000000C007C00F000C000C807F807F000C8F
:10497000000C000C000C000C000C000C000C0000E3
:10498000000000000000000000000000801D803FCB
:10499000807380618061806180618073803F801D51
:1049A00080018063007F003E0000006000600060C6
:1049B0000060006F807F80718061806180618061B4
:1049C000806180618061000000000000000000063E
:1049D000000600000000003E003E00060006000643
:1049E00000060006000600060006000000000000A9
:1049F0000006000600000000003E003E0006000623
:104A00000006000600060006000600060006004636
:104A1000007E003C0000006000600060006080617B
:104A200000630066006C007C0076006300638061B8
:104A3000C0600000000000000000003E003E0006D4
:104A40000006000600060006000600060006000636
:104A50000006000600060000000000000000000044
:104A600000000000000080DDC0FFC0CEC0CCC0CC84
:104A7000C0CCC0CCC0CCC0CCC0CC0000000000007A
:104A800000000000000000000000006F807F8071C7
:104A900080618061806180618061806180610000EF
:104AA0000000000000000000000000000000001EE8
:104AB000003F807380618061806180618073003F0E
:104AC000001E0000000000000000000000000000C8
:104AD000006E007F8073806180618061806180737F
:104AE000007F006E00600060006000600000000059
:104AF00000000000801D803F8073806180618061C4
:104B000080618073803F801D800180018001800171
:104B1000000000000000000000000067803F003936
:104B20000030003000300030003000300030000035
:104B30000000000000000000000000000000001E57
:104B4000803F80610060007F803F80018061007F46
:104B5000001E000000000000000000000008001817
:104B60000018007F007F00180018001800180018B7
:104B70000018801F800F00000000000000000000EF
:104B800000000000000080618061806180618061C0
:104B9000806180618063807F803D000000000000B4
:104BA00000000000000000000000C0608031803183
:104BB0008031001B001B001B000E000E00060000D1
:104BC000000000000000000000000000000080DD88
:104BD00080DD80DD0055005500550077007700220C
:104BE00000220000000000000000000000000000A3
:104BF0000000806100330033001E000C000C001E1A
:104C0000003300338061000000000000000000005D
:104C10000000000080618061803100330033001BA0
:104C2000001B001B000E000E000E001C007C00701C
:104C300000000000000000000000C07FC07F800175
:104C400000030006000C00180030C07FC07F000089
:104C50000000000080038007000600060006000632
:104C60000006000E001C001C000E000600060006D8
:104C70000006000680078003000600060006000606
:104C800000060006000600060006000600060006F4
:104C90000006000600060006000600060038003C7C
:104CA000000C000C000C000C000C000E00070007AC
:104CB000000E000C000C000C000C000C003C003836
:104CC000000000000000000000000000000080382C
:104CD000807F00470000000000000000000000008E
:104CE00000000000000000000000000000000000C4
:104CF0000000000000200020002000200020000014
:104D00000020000000500050005000000000000093
:104D1000000000000050005000F8005000F8005063
:104D2000005000000020007800A00070002800F073
:104D30000020000000C000C80010002000400098C3
:104D400000180000004000A000A0004000A8009053
:104D5000006800000030003000200040000000002B
:104D60000000000000100020004000400040002033
:104D70000010000000400020001000100010002073
:104D800000400000002000A8007000F8007000A89B
:104D90000020000000000020002000F8002000207B
:104DA00000000000000000000000000000300030A3
:104DB0000020000000000000000000F800000000DB
:104DC00000000000000000000000000000000030B3
:104DD00000300000000000080010002000400080AB
:104DE0000000000000700088009800A800C800883B
:104DF0000070000000200060002000200020002043
:104E000000700000007000880008007000800080C2
:104E100000F8000000F800080010003000080088CA
:104E200000700000001000300050009000F80010EA
:104E30000010000000F8008000F000080008008862
:104E40000070000000380040008000F000880088FA
:104E50000070000000F8000800080010002000406A
:104E600000800000007000880088007000880088C2
:104E700000700000007000880088007800080010B2
:104E800000E0000000000000002000000020000002
:104E900000000000000000000020000000200020B2
:104EA000004000000008001000200040002000101A
:104EB000000800000000000000F8000000F80000FA
:104EC000000000000040002000100008001000203A
:104ED0000040000000700088000800300020000042
:104EE000002000000070008800A800B800B000801A
:104EF00000780000002000500088008800F800883A
:104F00000088000000F00088008800F00088008819
:104F100000F00000007000880080008000800088A1
:104F20000070000000F00088008800880088008879
:104F300000F0000000F80080008000F00080008099
:104F400000F8000000F80080008000F00080008081
:104F500000800000007800880080008000980088B1
:104F60000078000000880088008800F80088008829
:104F70000088000000700020002000200020002099
:104F800000700000003800100010001000100090A9
:104F9000006000000088009000A000C000A0009009
:104FA0000088000000800080008000800080008079
:104FB00000F80000008800D800A800A800A8008819
:104FC000008800000088008800C800A800980088B9
:104FD0000088000000700088008800880088008831
:104FE0000070000000F00088008800F00080008061
:104FF00000800000007000880088008800A80090F1
:105000000068000000F00088008800F000A0009018
:105010000088000000700088008000700008008890
:105020000070000000F800A80020002000200020F0
:105030000020000000880088008800880088008820
:1050400000700000008800880088008800880050F8
:105050000020000000880088008800A800A800A8A0
:105060000050000000880088005000200050008898
:1050700000880000008800880050002000200020E8
:105080000020000000F800080010007000400080C0
:1050900000F8000000780040004000400040004060
:1050A0000078000000000080004000200010000890
:1050B0000000000000780008000800080008000850
:1050C0000078000000200050008800000000000070
:1050D00000000000000000000000000000000000D0
:1050E00000F80000006000600020001000000000D8
:1050F0000000000000000000006000100070009040
:10510000007800000080008000B000C8008800C85F
:1051100000B00000000000000070008800800088DF
:1051200000700000000800080068009800880098DF
:1051300000680000000000000070008800F8008097
:1051400000700000001000280020007000200020E7
:105150000020000000000000007000980098006827
:10516000000800000080008000B000C800880088AF
:1051700000880000002000000060002000200020C7
:1051800000700000001000000010001000100090DF
:105190000060000000800080009000A000C000A01F
:1051A000009000000060002000200020002000206F
:1051B000007000000000000000D000A800A800A8B7
:1051C00000A800000000000000B000C800880088AF
:1051D000008800000000000000700088008800883F
:1051E000007000000000000000B000C800C800B05F
:1051F000008000000000000000680098009800682F
:10520000000800000000000000B000C8008000801E
:10521000008000000000000000780080007000089E
:1052200000F000000020002000F8002000200028EE
:10523000001000000000000000880088008800982E
:10524000006800000000000000880088008800500E
:1052500000200000000000000088008800A800A8CE
:1052600000500000000000000088005000200050A6
:105270000088000000000000008800880078000816
:10528000008800000000000000F80010002000402E
:1052900000F8000000100020002000400020002046
:1052A000001000000020002000200000002000204E
:1052B00000200000004000200020001000200020FE
:1052C00000400000004000A80010000000000000A6
:1052D00000000000000000000000000000000000CE
:1052E00000000000000000000007FF0000000000B8
:1052F0000000000000000000001FFFF87FE0000039
:105300000000000000000000003FFFCFFFFE000093
:105310000000000000000000003FFBE3FFF38000FE
:105320000000000000000000003FC0F3FFF8E000B4
:105330000000000000000000001F001FD9FC380022
:105340000000000000000000000D000F001E0C0017
:1053500000000000000000000C0C0E1FF803040009
:1053600000000000000000000387F0070001860035
:105370000000000000000000183B80180030C3004F
:10538000000000000000000000FE00600018C301E3
:10539000C0000000000000003FFC0180000FC38F30
:1053A000C00000000000000007F00300000C07F040
:1053B00000000000000000000FE00C00000C07FFE0
:1053C000F80000000000000038C0180000080FFFBF
:1053D000F0000000000000007180300000080FFCA9
:1053E000FC00000000000000F700600000183FFE15
:1053F0000000000000000001FF00600000187FFEB8
:105400000000000000000003FF00C0000030FF1F8C
:10541000000000000000000383E0C0000060000303
:105420000000000000000007031FFFFFFFC0000393
:10543000800000000000000E0100E7C00380000FA4
:10544000800000000000000F0180E000060000FF67
:10545000800000000000000F837FF000380026FF6E
:10546000800000000000000FDC181F87E00026EF1E
:10547000800000000000000FB80E1800300004CFBC
:10548000800000000000000F300FC0001800008FE7
:105490008000000000000007303870001800000F86
:1054A000000000000000000718001F00183B800EDD
:1054B00000000000000000038E000380701FF81C35
:1054C0000000000000000001FF800003E01FFFF863
:1054D00000000000000000007F86003F1F07FFE083
:1054E00000000000000000000FC300003F01FF802B
:1054F000000000000000000001FF80003FC7FC002A
:1055000000000000000000000073E007FFFFF8004B
:10551000000000000000000000C00007C03FF800CD
:10552000000000000000000003000000003FF80041
:1055300000000000000000000E000000003EF80027
:1055400000000000000000001800000000A4F000AF
:1055500000000000000000007000001601C078008C
:105560000000000000000000E000001E01C03E003E
:105570000000000000000001C000000C01803F009E
:1055800000000000000000038000000401F3FFC0E1
:1055900000000000000000070000000C01EFF7E031
:1055A000000000000000000E000000180007F0607E
:1055B000000000000000000C0000001800078070D0
:1055C000000000000000001800000030000604F099
:1055D000000000000000003800000060000C1CF01B
:1055E0000000000000000030000000C0001FFFF0BD
:1055F0000000000000000030000001800001FDF00C
:105600000000000000000030000003000000FDF07A
:105610000000000000000030000007000001C1E0B1
:10562000000000000000001800000700000381E0F7
:10563000000000000000000C000007000007FFC091
:105640000000000000000006000003C00039FF80D9
:105650000000000000000003800001F001E3FF00F3
:105660000000000000000000E000001F038DFE00AD
:1056700000000000000000001E000003FC3DFE00D2
:10568000000000000000000001F80003C03FFE0021
:1056900000000000000000000007FFFFC03FFE0008
:1056A00000000000000000000003FFF1C03FFE000A
:1056B00000000000000000000003FFE0C03FFE000B
:1056C00000000000000000000003FFE0C03F9E005B
:1056D000000000000000001FF8000000000003FFB1
:1056E000FF80000000000FFFFFF0000000003FFF00
:1056F000FFFC00000000FFFFFFFF00000003FFFFB2
:10570000FFFFC0000007FFFFFFFFE000000FFFFFEB
:10571000FFFFF000003FFFFFFFFFFC00007FFFFFE7
:10572000FFFFFE0000FFFFFFFFFFFF0000FFFFFF86
:10573000FFFFFF0001FFFFFFFFFFFF8003FE3FFFB2
:10574000FFFC7FC007FE07FFFFE07FE007FE01F8D8
:105750001FC03FE00FFC000000003FF00FFC000006
:1057600000003FF01FFC000000003FF81FFC00009D
:1057700000003FF83FFE000000003FFC3FFE00003D
:1057800000007FFC7FFC000000003FFC7FFC00006D
:1057900000001FFE7FF8000000001FFE7FF80000E1
:1057A00000000FFE7FF0000000000FFEFFF0000081
:1057B00000000FFFFFF0000000000FFFFFF00000EF
:1057C000000007FFFFF00000000007FFFFF00000EF
:1057D000000007FFFFF0000000000FFFFFF00000D7
:1057E00000000FFFFFF0000000000FFFFFF00000BF
:1057F00000000FFFFFF0000000000FFF7FF8000027
:1058000000001FFE7FF8000000001FFE7FFC00006C
:1058100000003FFE7FFC000000003FFE7FFE000016
:1058200000007FFC3FFF00000000FFFC3FFFC000C6
:105830000001FFFC1F9FE0000007FFF81F87FC002E
:10584000003FFFF80FC3FFC001FFFFF00FE1FF8033
:1058500001FFFFF007F1FF8000FFFFE007F0FF000E
:1058600000FFFFE003F83F0000FFFFC001F8000069
:1058700000FFFF8000FC000000FFFF0000FE0000B2
:1058800000FFFF00007F000000FFFE00003FFF0060
:1058900000FFFC00000FFF0000FFF0000007FF000A
:1058A00000FFE0000003FF0000FFC0000000FF0059
:1058B00000FF000000003F0000FC000000000F009F
:1058C00000F00000000000000000000000000000E8
:1058D00000000000232828142D1C320A2D10320A43
:1058E000351002030405060708090A0B0C0D0E0FFC
:1058F00010100102030405060708090A0B0C0D0E1F
:105900000F10000000000000000001020304060761
:105910000809000000000102030480807F7E7D7C76
:105920007B7A7978777676757473727171706F6E31
:105930006E6D6C6C6B6A6A696868676666656464DC
:10594000636362616160605F5F5E5E5D5D5C5C5B66
:105950005B5A5A59595858575756565555555454D5
:10596000535352525251515050504F4F4F4E4E4D33
:105970004D4D4C4C4C4B4B4B4A4A4A49494948487F
:1059800048474747474646464545454444444443BF
:10599000434343424242424141418182838485865E
:1059A0008788898B8C8D8E8F919293959697999AF3
:1059B0009C9D9FA0A2A3A5A7A8AAACAEB0B2B3B568
:1059C000B7B9BCBEC0C2C5C7C9CCCED1D4D7D9DC4B
:1059D000DFE2E6E9ECF0F3F7FAFE00000000000079
:1059E0004C5555555555A53F7751C1166CC156BFFD
:1059F0009015CB19A001FA3EAD529C804F7E92BE0D
:105A0000C4B1B4BD9EEE213ED43888BEE9FAA8BD2B
:105A100000004054FB21F93F3163621A61B4D03D6C
:105A20000000601A61B4D03D7370032E8A19A33B45
:105A30000000002E8A19A33BC14920259A837B3997
:105A400000000000000000006E83F9A22915444EFA
:105A5000D15727FCC0DD34F5999562DB4190433C7A
:105A6000AB6351FE61C5BBDE3A6E24B7E0D24D4256
:105A7000EA2E49061C92D1091CEB1DFE3EA729B156
:105A8000F53582E88444BB2E26709CE9417E5FB4E4
:105A900039D69139F43953838B5F849C3B28F9BD07
:105AA000FF97F81F0F9805DE8B112FEF1F6D0A5A15
:105AB000CF7E366DB709CB27663F464F2DEA5F9EF6
:105AC000C7BA27757BF1E5EBF739073DEA92528AB1
:105AD000B15FFB6B085D8D1FA6F810111111813F9E
