:020000040800F2
:10000000580B0020A90100083132000849300008CF
:1000100000000000000000000000000000000000E0
:100020000000000000000000000000001134000883
:100030000000000000000000333200081334000804
:10004000D9010008D9010008D9010008D901000828
:10005000D901000831210008D90100084121000818
:10006000D9010008D9010008D9010008D901000808
:10007000D9010008D9010008D9010008D9010008F8
:10008000D90100080000000000000000D9010008AC
:1000900000000000D9010008D9010008D9010008BA
:1000A00000000000D9010008D9010008D9010008AA
:1000B000D901000800000000D9010008D90100089A
:1000C00000F002F800F060F80CA030C808382418DE
:1000D0002D18A246671EAB4654465D46AC4201D180
:1000E00000F052F87E460F3E0FCCB6460126334252
:1000F00000D0FB1AA246AB46334318470C5D000004
:100100002C5D0000103A02D378C878C1FAD85207A3
:1001100001D330C830C101D504680C6070470000BD
:100120000023002400250026103A01D378C1FBD813
:10013000520700D330C100D50B60704710B5662957
:1001400002D104F02BFB10BD642902D100F00AF9A2
:1001500010BD752902D100F005F910BD002010BDB9
:100160001FB50098019901F0E0FD01F051F804007D
:100170000020002104F0FCFAE06001F003FC1FBD48
:1001800010B501F06BFC10BD01F09EFC1146FFF7AD
:10019000E7FF03F05DFD01F09DFD03B4FFF7F0FF05
:1001A00003BC01F033FF00000F4880F308880F48BC
:1001B0000168090E0E4A914205D10E480E490160B0
:1001C0000E480F4901600F4880470F480047FEE77F
:1001D000FEE7FEE7FEE7FEE7FEE700000B480C49FE
:1001E0000C4A0D4B70470000580B00200400000023
:1001F0001F00000018100240010000000000014034
:10020000000000006B340008C10000085805002001
:10021000580B00205807002058070020FEB505465F
:1002200010460C46184373D0AE468C460020AD1ADB
:1002300001469C4167D36646002701243D46B61A15
:100240009D4102D313463A462124654676462F0443
:10025000360C3E432D0CB61A9D4104D3150C1B04DD
:100260002B4312041034654676462F06360A3E4369
:100270002D0AB61A9D4104D3150E1B022B43120200
:100280000834654676462F0736093E432D09B61ACF
:100290009D4104D3150F1B012B431201241D6546FC
:1002A0007646AF07B6083E43AD08B61A9D4104D363
:1002B000950F9B002B439200A41C65467646EF07E2
:1002C00076083E436D08B61A9D411AD392185B41D9
:1002D000641C16E00018764665464941B71A9D41F0
:1002E0000191009009D36046B11A98418E46844628
:1002F000009801990025401C6941DD0752082A43F6
:100300005B08641EE6D57246634603B0F0BDFFE7A6
:1003100000200146C046C0462A462346F5E70000B5
:100320000FB4054910B503AA029800F049FF10BCAC
:1003300008BC04B018470000500400200FB41CB5DE
:10034000074B06AA7B4469460090059800F01FFF02
:100350000020694600F02EFF1CBC08BC04B0184702
:100360006D0E0000F7B5002575291068009914A6D8
:1003700011D0C046C046002802DA404211A608E06B
:10038000009909688A0701D50FA602E0490704D53C
:100390000EA6012501E0C046C046009F0024243778
:1003A00004E000F021FF30313955641C0028F8D1F9
:1003B0002B4632462146009800F080FCFEBD00002E
:1003C000000000002D0000002B00000020000000B5
:1003D000F3B50446002081B020622046E1688847DA
:1003E00000287AD0252802D06268A16871E0E1680F
:1003F00020460025884706460020E0610746A061A8
:100400002A2E0AD0304603F0CFFA002827D0B800B1
:100410000019303E0090866119E00298BA00121966
:1004200002C8916102902046E1688847012F064684
:1004300017D1E06900281FDA202085431CE00098CE
:100440000A21806948430099801930388861204624
:10045000E1688847064603F0A7FA0028EFD1012F8C
:100460000AD02E2E08D12046E16888470646202073
:1004700005437F1C022FC3DBA069002803DA40423A
:10048000A06101200543E80701D010208543002E1C
:1004900023D030464138192803D80120C002054333
:1004A0002036204625603146029A1546FFF746FE63
:1004B00000280BD0012806D0ED1DE808C000083048
:1004C00002908AE709E02D1D029586E762683046B2
:1004D000A1689047206A401C7EE7206AFEBD0000AC
:1004E00030B5441C03E00178401C00290DD0810781
:1004F000F9D10B4BDD0104C8D11A91432940FAD040
:10050000001B0A0603D0C01E30BD001B30BD0A040C
:1005100001D0801E30BD0902FCD0401E30BD00005D
:100520000101010101E004C0091F0429FBD28B076E
:1005300001D50280801CC90700D0027070470029D5
:100540000BD0C30702D00270401C491E022904D3FD
:10055000830702D50280801C891EE3E70022EEE7B4
:100560000022DFE7024670B50A4392072AD11E4DEA
:10057000EE0104C808C9541B9443344017D0D0B2CC
:10058000D9B2401A2106014310D190B299B2401A53
:10059000210401430AD110021902000A090A401A73
:1005A0002102014302D1100E190E401A70BD9A4269
:1005B000DFD010BA19BA884201D9012070BD0020DD
:1005C000C04370BD02780B78401C491C002A09D03A
:1005D0009A4207D102780B78401C491C002A01D0AE
:1005E0009A42EFD0D01A70BD010101010022030927
:1005F0008B422CD3030A8B4211D300239C464EE03E
:1006000003460B433CD4002243088B4231D30309F9
:100610008B421CD3030A8B4201D394463FE0C309AB
:100620008B4201D3CB01C01A524183098B4201D3C3
:100630008B01C01A524143098B4201D34B01C01AAE
:10064000524103098B4201D30B01C01A5241C30826
:100650008B4201D3CB00C01A524183088B4201D395
:100660008B00C01A524143088B4201D34B00C01A81
:100670005241411A00D201465241104670475DE096
:10068000CA0F00D04942031000D340425340002219
:100690009C4603098B422DD3030A8B4212D3FC22C2
:1006A000890112BA030A8B420CD3890192118B4241
:1006B00008D3890192118B4204D389013AD0921157
:1006C00000E08909C3098B4201D3CB01C01A524112
:1006D00083098B4201D38B01C01A524143098B42DB
:1006E00001D34B01C01A524103098B4201D30B01C4
:1006F000C01A5241C3088B4201D3CB00C01A5241E9
:1007000083088B4201D38B00C01A5241D9D24308CF
:100710008B4201D34B00C01A5241411A00D201460C
:10072000634652415B10104601D34042002B00D576
:100730004942704763465B1000D3404201B5002038
:10074000C046C04602BD7047704770470246C80F9A
:10075000C00781434B0030B54B405B009B0D20D060
:100760001923DB06C91801231B05994220DB03244A
:10077000A40704251346AB400BD3002B04D1EB0692
:1007800013409B00E34204D40124640700231219A0
:100790005941FF231B0599420BD2C9000143500F59
:1007A00009E0CB0204D501430803024305D0054804
:1007B00030BDFF21C905084330BD084607210905A2
:1007C000884330BD0000C07FF0B5F94D0C091E090B
:1007D0002C402E402F468BB0A7437DD0B543FCD094
:1007E000002E7AD0002CFCD00D465D40ED0F254345
:1007F000AC1BFF25AD0464190894C502440DC90261
:100800002143500DDC0204430120C007014304438F
:10081000D2020191200C110C00958C460104234654
:100820008B430A9161460904E24D8A430991010A0A
:100830007D4449198039097805464D4301266D18D4
:10084000F605751B6943C90C640B891C4C4364187D
:10085000B5012C1B250C2E04B4434C434D43210CF5
:10086000691889090591009DE90701D00121C9078F
:1008700004912C4601996708CD072F434C08059D2C
:10088000E10B4D432D0C29466646754302950D46F6
:1008900045432E46029D7D1BB44100950D465D43A8
:1008A00001942C0C2F040D465543AE462D0C3D43B0
:1008B000029503947546049C2D04641B049406D28F
:1008C000029C039D641C002675410395029401ACB3
:1008D00070CC009F7D1B01E03EE162E1B441090460
:1008E0000095079101940599A4086143090C0C46F1
:1008F0004443650BE7040C4666467443A646640B06
:100900003C43039502947446049DE4042C1B049418
:1009100006D2029C039D641C002675410395029437
:1009200001AC70CC009F7D1BB44101940C465C432C
:100930000095650FE7000C465443A646640F3C4300
:10094000039502947446049DE4002C1B049406D283
:10095000029C039D641C002675410395029401AC22
:1009600070CC009F7D1BB441AE09AF06049DC90049
:10097000AD092F43049DA406AD060495079D34439D
:1009800069180791059DE10B4D432D0C29466646DC
:10099000754302950D4645432E46029D7D1BB4418D
:1009A00000950D465D4301942C0C2F040D465543D4
:1009B000AE462D0C3D43029503947546049C2D04D0
:1009C000641B049406D2029C039D641C002675419E
:1009D0000395029401AC70CC009F7D1BB44101943F
:1009E0008C050694079C890A611800950791019C63
:1009F0000599A4086143090C0D464543680BEF04B3
:100A00000D46644665436C0B3C43049FED047D1B1F
:100A1000AC4602D20025641C6841009E019D371B34
:100A200085410846584301950C46460FC50054437E
:100A3000600F28436546E4002C1B02D20025401CB1
:100A40006E41019D3F1AB5412846BD0980062843E5
:100A50008446A009BF064E020699A40676180743ED
:100A6000079D002068410A99079019430020099BBF
:100A700000906046FF1913434041E20F64003A437F
:100A8000A4460446D71A8C41A04203D90120009005
:100A900020463A46C70F941840416246D20F22437F
:100AA000644664000494009CBE466400D71AA446C1
:100AB000044602978C417746002F01D1A04204D909
:100AC0006046401C8446029A2046C40FA6469418ED
:100AD0004041049A0546D20F224364466400D31A6B
:100AE0008D417146002901D1A84202D928461A46F3
:100AF000641C10430122002800D01643610200202C
:100B0000079B891904465C410223002C02DB49182B
:100B100013466441089DCE0A2D145D194B056705E7
:100B2000E10A2C050D1908993E43C9076940002BBD
:100B300008D0934006D30022761C5141002B01D1EE
:100B4000760876001C4A002D43DB154241D0AA43AB
:100B50003FD030460BB0F0BD06180D464D41174C46
:100B60007642AC411AD395181C465C41134A6D423B
:100B7000A24113D3012252054C00D4420AD15C0099
:100B8000D4420BD04B4002D592021143E2E7490018
:100B90004908DFE75940C90FC90718E00020084994
:100BA000D8E7054801420DD10342F7D0F2E7000033
:100BB0000000FF078F5400000000F07F0000E0FFFE
:100BC0000000F87F114859400143C0124140002005
:100BD000C0E70123089A9B069A4205DC03225207CC
:100BE0008918C90FC907B5E7052252078918074AAE
:100BF0001143D2125140ADE770B515461C4602466E
:100C00000B4628462146FFF7DFFD70BDFFFFFF7F43
:100C10001F22030C02D10F22000402D0030E03D0C6
:100C200004E00020014670470002083A030F01D19A
:100C30000001121F830F01D18000921E002801DBEA
:100C40004000521E120551184205C01241181046AC
:100C50007047C10FC90700D04042012292071143DB
:100C6000D6E701218907D3E70121C90501234118EE
:100C700042001B06D3185B0E0AD0C1100722D20611
:100C8000891840075242D14201D552008918704755
:100C9000090208D50146002A03D0C10FC907002068
:100CA000704710467047420202D000200249704748
:100CB000072109050143F4E70000F87FFFB504466A
:100CC0000D4681B0243000902168880604D510229A
:100CD000E0699143216000E00120A84201DD471B4B
:100CE00000E000270498A1697A191018081AA06179
:100CF0002078C00602D42046C046C046002608E040
:100D000003986268A168805D9047206A401C761C49
:100D1000206204988642F3DB2078C0060AD520467C
:100D2000C046C04606E06268A16830209047206A4D
:100D3000401C206238467F1E0028F4DC07E0009843
:100D40006268A168405D9047206A401C2062284686
:100D50006D1E0028F3DC2046C046C0462078000601
:100D600002D5022005B0F0BD0120FBE77047FFB5BA
:100D70000C461E468FB003CA089009914F007D0DA6
:100D800000D16D1E002108460020C0460321099AAB
:100D900089050840002A03DA8200801840080840CC
:100DA000800D01280A9002DD0020C0430A900898B7
:100DB00007430DD0F048F149281848430714189804
:100DC00000281DD07542291E1DDD0A9842421BE0F5
:100DD0001898012802D00020302104E00020F243BE
:100DE00005E02154401CB042FBDB30460022189B3A
:100DF000002121540F998B600A60486013B0F0BD48
:100E0000BD1B6D1CDFE70A9A002900DA69420BA8B6
:100E100000F088FA0BAB07CB03AB07C3089909981E
:100E200000F0ECFA6B4607C30146D5480918002DBF
:100E300000910BDDD24903980A9A494240180023D9
:100E400003A90390684600F049FD08E003990A9A57
:100E50000023081803A90390684600F0E9FC6B46DC
:100E600007C30004000C03D00020C043410800E089
:100E70001046189A002A03D00022009215461EE060
:100E8000751E05D400F0CCF9303262556D1EF9D5CF
:100E900001220843079602D000227F1C04E020783C
:100EA000302801D100227F1E002A069787D01EE03D
:100EB000112D07DA00F0B4F9303262556D1C02468C
:100EC0000A43F5D1084303D00098002819D00EE05A
:100ED0000021681E05E0235C625C63542254401EBE
:100EE000491C8142F7DBA81B401E07950690079A14
:100EF00018990020A0540F98079B069A81600CC097
:100F00007CE711260020189059E7D21DF0B50D4658
:100F10000446D10893B0C90003C90C900D9102F0AA
:100F20000BFD02460D98C00F01D02D2007E0206870
:100F3000810701D52B2002E04007C00F4001032AA2
:100F40000F9001D0072A05DB03462946204600F012
:100F5000A5F90EE12078800601D5E76900E00627B3
:100F60002846652D04D0662814D0672D69D12DE060
:100F70000020112F009001DB112300E07B1C0CAA44
:100F800003A910A8FFF7F3FE1199002610987D1C05
:100F90000E9142E001203B460CAAC0070B900120B5
:100FA000009003A910A8FFF7E2FE119D1298109976
:100FB000002600280E9501D1781C0D18781B02D44C
:100FC00046427D1C761EE81B00903AE0012F00DAB5
:100FD00001270020112F009001DD112300E03B4686
:100FE0000CAA03A910A8FFF7C2FE11993D4610985C
:100FF00000260E91217809070BD40E99A94200DA38
:101000000D4603A9012D04DD4A19203AD27F302A6A
:1010100006D0B84201DA011D04DA012100910FE087
:101020006D1EEFE7002802DC86192D1A03E0411C33
:10103000A94200DD0D46801B401C00900120C00726
:101040000B902078000705D40098A84202DB00200E
:10105000C043009069460020C8720B98012102AF7E
:101060000337C907884225D0022010902B20119009
:101070000B9800280BDA40420B902D20119006E0CF
:101080000B9800F0B1F830317F1E0B903970109939
:10109000481E00291090F3DC0B980028F0D111981D
:1010A0007F1E38702088000501D5452000E06520AE
:1010B0007F1E387001A8C01BC01D0B900F98002820
:1010C00000D0012041190098C01709180B98081882
:1010D000A169081A401EA0612078C00602D42046EB
:1010E000C046C0460F98002805D06268A1689047A6
:1010F000206A401C20622078C00625D52046C046C4
:10110000C04621E0002E07DB0E98B04204DD03A8A4
:101110006268805DA16802E06268A1683020904743
:10112000206A761C401C20620098401E0028009017
:101130000AD100F06DF8C06862680168405CA1687F
:101140009047206A401C206228466D1E0028D9DC8A
:1011500007E062683878A1687F1C9047206A401CCD
:1011600020620B99481E00290B90F2DC2046C046F5
:10117000C046032042E6000001FCFFFF104D0000C6
:10118000E1DFFFFF01694A1C02610878704700B582
:101190008FB0029100210591054901937944039193
:1011A000114604906846FFF713F90FB000BD000028
:1011B000E5FFFFFF0A681070521C0A6070470000CC
:1011C000084B70B50D467B44FFF7E1FF0446284607
:1011D00000F0D4FB002802D00020C04370BD2046A0
:1011E00070BD00006F2A000001468008081A02093D
:1011F0001018020A1018020C1018C00882001218E9
:101200005200891A01E0401C0A390A29FBD27047B2
:10121000004870471805002000487047F804002077
:101220000B4670B5024689078008084319469D0899
:10123000141AA94125090807054308092C19484132
:10124000250A01060D43010A2C194141200C0D0409
:1012500028430D0C00194D41002140194D41C00893
:1012600069070843E908840F8D002543840024188A
:101270004D4124196D41121BAB4107E00925ED4397
:101280002C11521963410024401C61411C460A255F
:101290000026551BB441F1D270BD0000F8B51F46C1
:1012A000044601230068DB02032601461840072A92
:1012B00005DB002801D017A506E017A504E00028EB
:1012C00001D016A500E016A5102081432160A06979
:1012D000C01E002FA06101D0401EA0612046C04664
:1012E000C046002F09D038466268A1689047206A3E
:1012F000401C2062C01C206206E0206AFAE7626897
:101300002878A1686D1C9047761EF8D22046C0460A
:10131000C046F8BD4E414E006E616E00494E46001B
:10132000696E6600F7B516468AB0334878446C4655
:1013300003467C33C06F5A689B680DC42E487844BE
:10134000763003AC0DC80DC43720C0010818372112
:101350001B30FFF755F905460C46803D1B3C02D576
:101360006442012000E000200027099010E0E0071F
:101370000CD00C2020497843794432464C3941182E
:101380006846012300F054FA6B4607C364107F1CC3
:10139000002CECD1184F7F442E3F16E0E80712D006
:1013A0002001C0190EC80691089307920068F04208
:1013B00001D1981908903246012306A903A800F02C
:1013C00037FA03AB07C36D10641C002DE6D10998F2
:1013D000002806D032466946012303A800F07EFAB1
:1013E00005E001233246694603A800F021FA0A9B72
:1013F00007C30DB0F0BD0000144A000003464000D2
:101400000A4610B5400D0BD00121C9070F24A402D4
:1014100000191C0364082143540D2143D20207E044
:1014200000210120F2E7D40F490021435200401E61
:101430000029F8DADB0FDB07184310BDFFB50D46B6
:10144000144685B04868516802F05DFA0091019039
:10145000A868A16802F057FA02910390A868616831
:1014600002F051FA029A12188242029201D201202D
:1014700000E00020019A0B18D2180028019202D037
:101480008A4202D903E08A4201D2012000E0002012
:101490000099081800906868A16802F034FA029A6E
:1014A00012188242029201D2012000E00020019A2B
:1014B0000B18D2180028019202D08A4202D903E008
:1014C0008A4201D2012000E0002000990818009013
:1014D0002868216840004900400849084018FA4936
:1014E000471814E001994000C90F08430090019883
:1014F00002994000C90F08430190029803994000E7
:10150000C90F08430290039840007F1E0390009883
:101510000028E7DA0898002801D0EC4E00E0002609
:10152000B74201DA012000E00020002804902AD010
:10153000F71BF806C00E15D0029B2021091A039A4A
:101540008B401A430392029A019BC2408B401A437C
:101550000292019A009BC2408B4000991A4301926B
:10156000C14000917B110DD06F460320C11A03D5F5
:1015700000218200B95003E08A008100BA587A50F5
:10158000401EF3D5374603980299002800D0012069
:10159000014308980291002808460CD0002800D08A
:1015A00001200199019A490508430121D20AC90283
:1015B000D202019200E001210E9B0122D207012BF1
:1015C00002D0002B03D013E0002807D120E0904286
:1015D00004D890420CD1019B0B4209D0019B5918B1
:1015E000019105D10099491C009101D17F1C009205
:1015F00000280DD0102108460020C046049800287D
:1016000006D00F98002803D0082108460020C046C5
:1016100028682168019B009A4840C10F0598C907B6
:1016200039430EC009B0F0BDFFB587B0099A0898DC
:101630000899536892684068896896460022039327
:1016400017469446089A12685300099A5B08126874
:10165000520052089A1A9E4BD4180A9A002A01D0B6
:10166000352200E040220692002201231546049212
:10167000DB07059324E0002D05D175460346039E44
:101680004D1BB34109D375466646039B491B049D18
:101690009841059B7519AC465F4163463B4308D0B2
:1016A000059B049EDD0776082E435B080496059390
:1016B00001E0521E641EC50FED0749184041521C3F
:1016C000069B9A42D7DB002D04D17546039A6B1A0C
:1016D000824101D203200CE0039A0B466B4042404A
:1016E000134303D0014303D0012002E0022000E0B5
:1016F0000020614601910021009702910A9900297A
:1017000005D0614640020143704B019102E0800721
:10171000002302909C4201DA012000E00020070033
:101720003AD01A1BD006C00E15D0029D2021019C74
:10173000091AC5408C402543029C8C4000D00124EE
:101740002543019C0295009DC4408D4000992C4387
:101750000194C140009154111DD06D460221002218
:1017600002290CD10320001B07E0002804DB8600BF
:10177000AE59002E00D00122401C0328F5DB081BC7
:1017800002D588002A5004E08000285810438A00BF
:10179000A850491EE3D51C460A98002802980CD090
:1017A000002800D001200199019A49050843012130
:1017B000D20AC902D202019200E00121109B01224B
:1017C000D207012B02D0002B03D013E0002807D151
:1017D0001FE0904204D890420CD1019B0B4209D0EB
:1017E000019B5918019105D10099491C009101D123
:1017F000641C009200280CD0102108460020C0462E
:10180000002F06D01198002803D008210846002098
:10181000C04608980999019A009B006809684840E9
:10182000C10F0798C907214382600AC00BB0F0BD01
:1018300000B585B0019300920A460146002302A834
:10184000FFF7FCFD02A807C805B000BDFFB50A46BA
:101850001F4685B00799019301230091014602A814
:10186000FFF7ECFD02990398049ECA0F4900D207C6
:1018700000920F22490892028C1A0021002800DBF6
:101880000C46450013486D08844214D3079A002A79
:1018900004DA441E0026104DF64302E004460D46CD
:1018A0000E46102108460020C046002F03D0042118
:1018B00008460020C0462005E90A0843009908436D
:1018C0006905F20A1143ADE602C0FFFF013C0000CA
:1018D000FF3F0000FF070000FFFFFF7F00B585B05E
:1018E000019300920A460146002302A8FFF79CFEDE
:1018F00002A807C8A8E7FFB50A461F4685B00799A2
:10190000019301230091014602A8FFF78DFE029981
:101910000398049ECA0F4900D20700920F2249087B
:1019200092028C1A0021002800DB0C464500114869
:101930006D08844214D3079A002A04DA441E002654
:101940000D4DF64302E004460D460E4610210846B2
:101950000020C046002F03D0042108460020C046C6
:101960002005E90A0843009908436905F20A114372
:1019700058E60000FF070000FFFFFF7FC0688021DE
:101980000840704710B543485421FEF7E9FD42482E
:101990005421FEF7E5FD41485421FEF7E1FD4048A2
:1019A0003C493D4B404A01603E4803603B48106063
:1019B0005A1C0A65411C1965012101653C48354ADC
:1019C0003AA1784400F0ECF8002804D13848784473
:1019D0000C3800F087F938482F4A36A1784400F0D7
:1019E000DFF8002804D1344878440C3800F07AF944
:1019F00032482A4A2FA1784400F0D2F8002804D1B6
:101A00002E4878440C3800F06DF940232148DC0062
:101A10000021224600F09EF8002804D02448784493
:101A20005C3800F05FF91C4822464023002100F09A
:101A300091F8002804D0204878445C3800F052F92E
:101A4000164822461023002100F084F8002804D014
:101A50001A4878445C3800F045F910BD0F4870B55D
:101A6000006D44080B48640000F00EF90A4800F0CD
:101A70000BF90A4800F008F909E0206D45082046F6
:101A80006D0000F001F9204600F03DF82C46002CD6
:101A9000F3D170BDFC03002050040020A4040020FA
:101AA0004000002044000020480000207200000098
:101AB000E642000077000000D3420000C14200006F
:101AC00000487047F80400207546FFF7F9FFAE465E
:101AD000050069465346C008C000854618B020B5C9
:101AE000FEF77CFB60BC00274908B6460026C0C54F
:101AF000C0C5C0C5C0C5C0C5C0C5C0C5C0C5403DC6
:101B000049008D46704770B50446051F00F0F0F897
:101B10000068002C1AD0446801E020466468002C5C
:101B200001D0AC42F9D301680A18AA4204D12A684C
:101B300005468918016000E0456028684119A14206
:101B400005D16168696021684018286070BD6C60CB
:101B500070BD000070B5C468A50713D0650211D42C
:101B6000D51FF93D0AD0FF3D6D1E07D0FF3DFF3D5B
:101B7000022D07D101462431012305E0074E5D1EE9
:101B8000B54201D3012070BD0161C36141600F21E5
:101B900009028C431443C460002070BDFFFFFF00A6
:101BA000F7B516460C46104600F06EF82078611C1A
:101BB00061280AD0722802D0772839D102E00125A5
:101BC000002404E00225042401E02D4D0824022213
:101BD000032301270878491C2B2806D0622807D048
:101BE0002039C87F742807D008E01D431443F1E76B
:101BF000042005433C43EDE71020044300982146B0
:101C000001F0FEFE411C13D0002131617160012101
:101C1000F5604902F1617061200704D53046022267
:101C2000002100F0E1F8306D384330653046FEBDEC
:101C30000020FEBDF8B50D460646124C206DC107CA
:101C400004D0410804D044086400F7E7224610E0BD
:101C5000542000F097F8070010D07908206D490053
:101C6000012211430843542120653846FEF778FCD1
:101C70003A4629463046FFF793FFF8BD0020F8BDED
:101C800002800000FC030020FEB50446466900699E
:101C90000F4F0190E56800200090A80707D020466C
:101CA00000F04CF9304601F087FE002801DA384692
:101CB000FEBD280502D50198FFF725FF4C212046DF
:101CC000FEF74EFC206D4008400020650098FEBDE8
:101CD000FFFFFFFF10B50446C046C0462046FEF792
:101CE0005CFA10BD10B500F077F900F06FF910BD87
:101CF00000487047000500207047704770477047E4
:101D000038B504460A4600206946C046C046002849
:101D100005D002462046009900F085F9012038BD23
:101D200010B5012000F0D4F910BDF8B5C046C0468A
:101D3000054600200C461020C0460646A819A042C1
:101D40000DD9324669460020C046C046070001D181
:101D500000F0BEF90098A04200D00546C419FFF774
:101D6000C7FFF61D07460560F008C0004619284663
:101D700000F052F9B44204D031463868A21B00F09A
:101D800052F9F8BD70B50646FFF7B2FF0568304658
:101D90000B30C408E400B44201D8002070BD68686C
:101DA0002A46002818D00168A14211D30B462146CB
:101DB00008318B4208D3436801194B6003681B1B31
:101DC0000B605160046001E041685160001D70BD0E
:101DD000024640680028E6D121462846FFF790FFDA
:101DE0000028DCD170BD0000F8B5044616460D464B
:101DF0004769007B800730D0384601F0F3FD0028AA
:101E00002BD132461026002A25D0012A02D0022AE0
:101E100023D104E0204600F020F945191BE03846A4
:101E200001F0D8FDE16831430028E16004DA204682
:101E300000F054F80120F8BDC9030BD56268E16ACF
:101E4000914200D81146A26989182269891A8142F3
:101E500000DD08462D18002D01DA0220F8BDE16AE8
:101E60006068E268814206D29103E06203D50121F5
:101E700049048A433243A669AE4211DCE16A8142D9
:101E800001D90B4600E003469F192369FF1AAF42B0
:101E900006DD814201D90F4600E007469F4206D188
:101EA000202002430020A060A56220600DE0AD1B51
:101EB000E669AE1B8142A66000D90846C01A281AFE
:101EC00020605819606020208243034802400020AF
:101ED000E26040342072F8BDBFCFD7FFC1688022D6
:101EE000114392039143C1600021816001607047FA
:101EF000F7B514460E463348D5685769054209D0F0
:101F00003846A16901F0B0FD002811DB2D48C0431F
:101F10000540E5602B4632463846009901F0A8FDA1
:101F20004200A1695208B21A89180028A16104D0A0
:101F30002046FFF7D3FF0020C043FEBD70B5044626
:101F40000569C06A6168884200D80846E1680522D0
:101F5000D2049143E160C90314D5A84209D02246B6
:101F6000411B2846FFF7C4FF002802D00020C043D1
:101F700070BDE56200206560A060E0680121090491
:101F80008843E060002070BD10B50446C068202181
:101F90008843E060A16AA06988420ED02046FFF71E
:101FA000CDFFE06803210903884310210843E06066
:101FB000A06AA0612069E06260600349E0680840AF
:101FC000E06010BD10000200BFBFFFFF10B5002889
:101FD00001D000F01BF810BD10B5014602A000F0C2
:101FE0005DF8012010BD000053494752545245444A
:101FF0003A2052656469726563743A2063616E27A2
:1020000074206F70656E3A200000000001491820AE
:10201000ABBEFEE726000200002101604160806047
:1020200070471020704710B50346406801E0034632
:102030004068002801D08842F9D31868C3188B4241
:1020400006D0CB1CD808C000001D411A521A014608
:10205000081D0A60FFF757FD10BD10B50146C268A4
:10206000900703D0900607D5886A0AE0FFF7D4F8F6
:1020700001210160881E10BD8B694868C0180B697A
:10208000C01A40310B7A002B02D0497A401A10BD99
:102090001103FCD50028FADD401E10BD70B50546C1
:1020A0000C460A2000E06D1C01F002FD002D06D058
:1020B00028780028F7D102E0641C01F0F9FC002C1C
:1020C00002D020780028F7D10A2001F0F1FC70BD81
:1020D00010B500F005F8FFF779FF10BD704700005C
:1020E00010B5012805D0002103A0FFF7D7FF01207C
:1020F00010BD09A1F8E7000053494752544D454D22
:102100003A204F7574206F662068656170206D6598
:102110006D6F7279000000003A2048656170206D93
:10212000656D6F727920636F72727570746564008B
:1021300010B5012000F04AF8022000F047F810BD69
:1021400010B5102000F042F810BD000070B5044634
:1021500000F01AF90546601C02D0044800782418E3
:1021600000F012F9401BA042FAD370BD30000020ED
:1021700000B502280FD0102817D001280AD1104826
:102180000069C007C017401C01F0F0FD01460D4872
:1021900002F090FA00BD0C4800690221084001F0ED
:1021A000E5FD014607482838F2E70920C006006926
:1021B0001021084001F0DAFD014602481438E7E733
:1021C00000140048A80300200004004810B504498A
:1021D0004A69024202D04861FFF7CAFF10BD000001
:1021E00000040140F8B5002303240125B5E02E4684
:1021F0009E40B44632407CD00E79B607B60F012E11
:1022000001D0022E17D186682746B6465E00B74039
:1022100000967646BE43B646CF68009EB7407646E7
:102220003743876046686746BE430F79FF06FF0F56
:102230009F40374347600E79F643B6070ED0C66815
:102240002746B4465E00B646B7406646BE43B4462F
:102250008F687646B74066463743C7600E79B60743
:10226000B60F022E14D1DE08B60036180096366A74
:102270005F07B446FE0E0F27B646B7406646BE431C
:10228000B4460F697646B74066463743009E3762CC
:1022900006682746B4465E00B646B7406646BE436B
:1022A0000F79B446BF07BF0F7646B740664637433F
:1022B00007604E68B603B60F4ED02B4FBE692E4353
:1022C000BE61BE699F08F607F60F284EBF00BE1913
:1022D0000096B6680F27B4469E07360FB646B7403D
:1022E0006646BE430927FF06B446B84202D100271E
:1022F0000BE031E01E4FB84201D1012705E01D4F30
:10230000B84201D1022700E005277646B74066466D
:102310003743009EB760184EB6684F689643FF0279
:1023200000D51643144FBE60FE684F689643BF0247
:1023300000D51643104FFE607E684F689643BF037A
:1023400000D516430C4F7E603E684F689643FF03EE
:1023500000D51643084A16605B1C0A681646DE4024
:1023600000D044E7F8BD000000100240000001402A
:10237000000400480008004800040140002A01D081
:102380008161704781627047014880687047000032
:102390003000002010B5040003D0E06F002802D008
:1023A00007E0012010BD002178200155204600F0F3
:1023B000BDFD2420E06720680168490849000160EC
:1023C000204601F0C3F90128ECD0606A002802D051
:1023D000204601F0C4F8206841680922D2029143E6
:1023E0004160206881682222914381602068816871
:1023F00008221143816020680168012211430160B5
:10240000204601F011F910BD024881680278891850
:10241000816070473000002010B506480168102226
:1024200011430160032000F007F800F027F80020B6
:1024300010BD00000020024070B504460D4D7D2007
:102440002978C000FEF7D2F801460B480068FEF775
:10245000CDF800F061FC002809D1042C07D200223D
:102460002146401E00F030F800206C6070BD012055
:1024700070BD0000300000203C00002008B50A4874
:102480008169012211438161816911400091C26912
:1024900001040A43C261C069084000900348016812
:1024A00010221143016008BD0010024000000140ED
:1024B000002805DBC106C90E0120884001490860DB
:1024C0007047000000E100E010B501F04BFA10BDCC
:1024D000F8B50F4606005ED03C4D2868C007C00F17
:1024E000B84209D22868400840003843286028686C
:1024F000C007C00FB8424ED13068354C81070CD5AB
:10250000400704D5606807210902084360606068DD
:10251000F0218843B168084360603078C0072BD051
:102520007068012810D0022810D0032811D021682B
:10253000890700292FDA61688908890001436160F1
:10254000FFF722FF009010E0216803E02168890175
:10255000EFE7616B8903ECE7FFF716FF0099411A7B
:102560001C48814201D90320F8BD60680C21084055
:10257000716889008842EFD12868C007C00FB8424F
:102580000BD9286840084000384328602868C007F5
:10259000C00FB84201D00120F8BD3078400706D501
:1025A0006068072109028843F1680843606000F011
:1025B00027F86168084A0906090F515CC8400749B5
:1025C00008600320FFF738FF0020F8BD002002401C
:1025D0000010024088130000945C00083C000020BA
:1025E0000448054900684968044A4905490F515C97
:1025F000C84070473C00002000100240A45C000866
:1026000070B5154A51680C200B4603401348042B43
:1026100005D0134D082B03D00C2B00D1284670BDDC
:102620008B02104C1B0FE45CD26A0E4B1207120F88
:102630001033C9039A5C890F022901D0032901D004
:10264000002301E0002328460021FDF7E7FD214695
:1026500001F059F970BD00000010024000127A002C
:10266000006CDC02745C0008FEB5040070D02078B9
:10267000F94EFA4DC00748D068680007800F01285E
:102680001FD068680007800F022804D16868C00363
:10269000800F022815D06168012919D0012080041B
:1026A000002901D0052917D02968B143296029687C
:1026B00081432960606800281BD0FFF765FE07464C
:1026C00013E02868800320D560680028CED01CE085
:1026D000286830432860EDE7296801432960F7E75F
:1026E000FFF752FEC01B642870D828688003F7D516
:1026F0000BE0FFF749FE074604E0FFF745FEC01B6D
:102700006428F1D828688003F7D4207880073FD563
:1027100068680007800F14D068680007800F0228DF
:1027200004D16868C003800F01280AD0E06800283F
:1027300028681ED0012108432860FFF725FE0746C0
:102740000CE0286880070CD5E068012800D108E07B
:1027500080E1FFF719FEC01B0228C5D82868800752
:10276000F7D52868F82188432169C9000843286003
:102770000EE0400840002860FFF706FE074604E030
:10278000FFF702FEC01B0228AED828688007F7D4E6
:102790002078000723D5E0690028686A0FD001215E
:1027A00008436862FFF7F0FD074604E0FFF7ECFD21
:1027B000C01B022898D8686A8007F7D50FE0400848
:1027C00040006862FFF7E0FD074605E0C3E0FFF761
:1027D000DBFDC01B022887D8686A8007F7D4207801
:1027E00004274007002861DA00200190E869C00052
:1027F00008D4E969B8060143E961E96901400120AB
:102800000091019096480168C90511D401688215AC
:1028100011430160FFF7B8FD009005E0FFF7B4FD3C
:102820000099401A642898D88D480068C005F5D5ED
:10283000A06801280AD0002801D0052811D0286AF4
:10284000400840002862286AB84302E0286A012153
:1028500008432862A068002812D0FFF795FD009079
:102860000AE0286A38432862F0E7FFF78DFD0099F7
:10287000411A7C4881426ED8286A8007F5D50DE060
:10288000FFF782FD009006E0FFF77EFD0099411AF8
:10289000744881425FD8286A8007F5D401980028DF
:1028A00004D0E969012000078143E9612078C0066E
:1028B00035D5606901280CD0401D686B24D03843A1
:1028C0006863686B400840006863FFF75DFD07467A
:1028D00022E0686B38436863686B012108436863D2
:1028E000FFF752FD074604E0FFF74EFDC01B02282C
:1028F00031D8686B8007F7D5686BF8218843A169E8
:10290000C900084368630AE0B8436863F4E7FFF767
:102910003BFDC01B02281ED8686B8007F7D42078C7
:10292000800637D568680007800F032814D06868D0
:102930000007800F022804D16868C003800F0328B5
:102940000AD0206A0028686B16D030436863FFF70E
:102950001BFD06460CE062E0686B80031AD5206A16
:10296000012877D116E0FFF70FFD801B022856D80B
:10297000686B8003F7D50DE0B0436863FFF704FD93
:10298000064604E0FFF700FD801B022847D8686B6D
:102990008003F7D4606A002866D069680907890F48
:1029A000022942D0012636060228286805D0B04305
:1029B0002860FFF7E9FC044633E0B0432860FFF7E6
:1029C000E3FC074604E0FFF7DFFCC01B022826D823
:1029D00028688001F7D4E86A216B000900010843E8
:1029E000E862A16AE06A084369687B22D2039143E6
:1029F00008436860286830432860FFF7C5FC044638
:102A000004E0FFF7C1FC001B022808D828688001F9
:102A1000F7D529E0FFF7B8FC001B022801D90320F5
:102A2000FEBD28688001F5D41EE00128F8D0686852
:102A3000E96A0322D203A36A02409A420AD1090733
:102A4000226B090F914205D10F2189040840E16AE8
:102A5000884209D00120FEBD0000010000100240A4
:102A600000700040881300000020F4E7F8B504006F
:102A70000CD0606A002500280AD0256165612646D1
:102A80004036A562707F002808D00BE00120F8BD19
:102A90006168C81FFD38F2D0E561F0E73577204660
:102AA00000F05CF8022272772068016840239943A5
:102AB00001600723E1681B02994201D9002001E06F
:102AC000012000030F273F02B94202D0994200D0F3
:102AD000A562FF236168053319402127A368BF025F
:102AE0003B40194323691340227D1943D207D20F7B
:102AF00011430123A2695B021A401143E2693823A2
:102B00001A401143226A80231A401143A26A9B0192
:102B10001A40114322681160A1690422090C114076
:102B2000626A10231A401143626B08231A40114352
:102B30000F23E2681B021A401143012212031040C6
:102B40000143206841602068C16952109143C1610E
:102B50002566012070770020F8BD000010B586B012
:102B6000044614216846FDF7FBFC114920688842A1
:102B70001CD11048826981140A43826182690A402B
:102B80000592426949010A43426140690840059043
:102B9000E020009002200190002103200390029188
:102BA000049109206946C006FFF71CFB06B010BD62
:102BB0000030014000100240FFB505460446403594
:102BC000287F002781B01646012809D001202877E8
:102BD000FFF7DAFB0090687F012804D0022797E016
:102BE000022005B0F0BD0298002874D0002E72D0EB
:102BF00003206877002020660299A163A687E687F4
:102C00002064A880E8802065E0640122A068D203E7
:102C10004021904208D1206802688A4302602068FF
:102C200002680B021A43026020680268520602D44E
:102C300002680A4302600721E0680902884260686E
:102C400028D9002801D0012E1ED1A06B2168008850
:102C5000C86006E020688168890709D5A16B0988EA
:102C6000C160A06B801CA063E08F401EE0870BE07A
:102C7000FFF78AFB0099411A0498814202D3401C55
:102C800002D005E0002803D0E08F0028E2D128E040
:102C900003273BE0002801D0012E1FD1A06B216843
:102CA0000078087306E020688168890709D5A16B60
:102CB00009780173A06B401CA063E08F401EE08781
:102CC0000CE0FFF761FB0099411A0498814203D39D
:102CD000401C03D0DCE717E00028D9D0E08F0028A3
:102CE000E1D12046009A049900F0A4FA002801D00E
:102CF00020202066A068002803D12068C168806871
:102D00000090206E002801D0012701E001206877A3
:102D100000202877384664E7094910B5401E8842EC
:102D200001D9012010BD074C60610321081F00F08C
:102D300019FE0020A06107202061002010BD0000C6
:102D4000FFFFFF0000E000E0F0B502462032137FF5
:102D5000012B1ED00125157702235377066874686E
:102D6000B3687027BC430F682743776000680A4C3C
:102D7000A04205D0AC07A04202D0084CA04204D12A
:102D800080244968A3431943816055770020107758
:102D9000F0BD0220F0BD0000002C01400004004006
:102DA00070B5040005D025462035687F002802D084
:102DB00006E0012070BD00202877204600F014F8BE
:102DC00002206877211D206800F050FB012040346C
:102DD000A071A877E87720706070A070E070207113
:102DE00060716877002070BD08B50068012189070F
:102DF000884207D10448C16901221143C161C069F9
:102E00001040009008BD0000001002400146203133
:102E10004A7F012A01D00120704702224A770068C8
:102E2000094A0121904205D08A07904202D0074A00
:102E3000904204D182685207520F062A02D00268DB
:102E40000A43026000207047002C0140000400404B
:102E5000F8B5054604462035287F0026012817D0FE
:102E60000120287702206877226890687727FF235F
:102E7000B8431B02984390600868502838D00EDC95
:102E800020284FD006DC00284CD010281ED149E065
:102E90000220F8BD302845D0402817D13AE06028FC
:102EA0002ED0702819D001221203801A0FD0904220
:102EB0000CD1CB684A688968206800F019FB20684B
:102EC0008168012292031143816000E00126012004
:102ED0006877002028773046F8BDCB684A68896853
:102EE000206800F005FB2168886838438860EEE7B9
:102EF000CA684968206800F00EFB5021206806E08F
:102F0000CA684968206800F017FB6021206800F05B
:102F1000FAFADCE7CA684968206800F0FCFA402148
:102F20002068F4E7226801461046F0E710B586B045
:102F3000044614216846FDF713FB114920688842B6
:102F40001CD11048C269012149040A43C261C26907
:102F50000A40059242690A4342614069084005906F
:102F6000042000901220019001210320039002917F
:102F7000049109206946C006FFF734F906B010BD78
:102F80000044004000100240FFB50446C06F83B00B
:102F900017460D46202802D0022007B0F0BD002DB4
:102FA0000BD0002F09D00120A1680003814206D177
:102FB0002069002803D1E80701D00120EDE70021B6
:102FC000842001512120E067FFF7DEF926464036D4
:102FD0000190378277820120A1680003814202D1EB
:102FE0002069002802D02F46002511E000270FE0BD
:102FF00000228021204600F041FC002815D1002F3E
:1030000017D02168387808857F1C708A401E70822E
:10301000708A019B002806980090E9D10022402187
:10302000204600F02BFC00280AD02020E067032077
:10303000B3E728882168C005C00D0885AD1CE4E70A
:103040002020E0670020A8E7FEE70000F0B587B089
:1030500014216846FDF784FA374842690121890442
:103060000A43426142690A400592426909010A43E2
:10307000426142690A400592426949110A4342612C
:10308000406901220840059002212C48FFF776F99B
:10309000092001220321C006FFF770F90920002250
:1030A0000821C006FFF76AF9FF20013000240090D4
:1030B0000194694602942248FFF794F831260125CD
:1030C000360402276A46E0C269461C48FFF78AF8C0
:1030D000029469461948009701950394FFF782F816
:1030E0000B20009009200294694601950394C006C4
:1030F000FFF778F8102000900920694601960294A5
:10310000C006FFF76FF869460D48009701960294D4
:10311000FFF768F8002211460520FFF7D5F90520D2
:10312000FFF7C6F9002211460720FFF7CDF9072067
:10313000FFF7BEF907B0F0BD0010024000140048D0
:103140000004004810B511480F490160FF21053106
:10315000416000210722816012020161C260416169
:10316000C1610122016252024162826181620722D1
:10317000C262016308214163FFF778FC002801D097
:1031800072B6FEE710BD0000003001404C02002086
:1031900010B586B0002400940121164801940294D1
:1031A00003940494890705940160072184604160B9
:1031B0000461611E8461C160FFF7F2FD002801D047
:1031C00072B6FEE701200003009069460948FFF748
:1031D0003FFE002801D072B6FEE7049404A905481A
:1031E0000594FFF7B1FD002801D072B6FEE706B0E6
:1031F00010BD0000B002002010B50C480A49016063
:10320000E1214902416000218160C1600161816169
:10321000C1610822016242614162FFF7BBF80028E8
:1032200001D072B6FEE710BD00440040F802002055
:10323000FEE77047F8B50F460B461546009203218E
:1032400004460022C90200F01BF82026002812D1F3
:103250003B46002280212046009500F07DF80028A2
:1032600009D103213B46002249022046009500F087
:1032700007F8002803D0206E304320660320F8BDF5
:10328000FFB585B00E460446002069460E9D1746E0
:103290000871FFF779F8411B0898451AFFF774F891
:1032A0000390206823210C3002902A48006848438C
:1032B000000D684346E003204002864206D1002FFD
:1032C00004D1029801786846017100790898401C81
:1032D00039D0FFF759F80399401AA84205D2002DBA
:1032E00003D0009800282BD02BE020684168E02212
:1032F000914341606068C11FFD390CD10121A06874
:10330000C903884202D04911884204D1206801686B
:103310004022914301600120A16A4003814207D10C
:1033200021680A6882430A6021680A6802430A60C9
:1033300001204034607700202077032009B0F0BDE1
:103340000025401E0090206880683040B842B2D10D
:103350000020F3E73C000020FFB581B01E46044684
:103360000A9DFFF711F8401B351AFFF70DF80746C5
:10337000264800684001000D684339E0701C38D0D1
:10338000FFF702F8C01BA84205D2002D03D0009819
:1033900000282BD02BE020684168E0229143416057
:1033A0006068C11FFD390CD10121A068C9038842A2
:1033B00002D04911884204D120680168402291431B
:1033C00001600120A16A4003814207D121680A6897
:1033D00082430A6021680A6802430A60012040347F
:1033E000607700202077032005B0F0BD0025401E47
:1033F0000090206881680298884305D000210398D6
:103400008142BBD10020EFE70121F8E73C0000201A
:10341000704710B5FEF7F8FF10BD10B592B034211B
:103420006846FDF79DF800240F94022000900D944B
:1034300001200E9403901020099404901094684683
:10344000FFF712F9002801D072B6FEE707200D90B1
:103450000E940F94002110940DA8FFF739F800285E
:1034600001D072B6FEE712B010BD7047F0B5026829
:103470001A4B0124A4071A4D984203D0A04201D050
:10348000A84203D17026B2434E683243154E164F00
:1034900098420AD0A04208D0A84206D0134CA042BD
:1034A00003D0B04201D0B84204D103242402A24385
:1034B000CC6822438024A2434C69224302608A687C
:1034C000C2620A688262984203D0B04201D0B84218
:1034D00001D10969016301214161F0BD002C014066
:1034E000000400400044014000480140002000402A
:1034F00030B58468FF252D021B021343AC430B43F8
:103500002343836030BD826870239A430A430721B6
:103510000A438260704730B5036A046A6408640035
:1035200004628469F025AC43120122430A24A343B8
:103530000B438261036230BD30B5036A1024A3439C
:1035400003628469036A0F252D031203AC432243EF
:10355000A024A343090119438261016230BD10B563
:10356000818CC90707D001684A6801235B049A432C
:10357000836A1A434A60818C890707D501684A68C3
:1035800001231B049A43C36A1A434A60818C49078A
:1035900007D501684A6801239B049A43036B1A43C9
:1035A0004A60818C090707D501684A680123DB035B
:1035B0009A43436B1A434A60818CC90607D5026857
:1035C000916801231B039943836B19439160818C9C
:1035D000890607D501688A6801235B039A43C36B98
:1035E0001A438A60818C490612D503685A68012102
:1035F0000905046C8A4322435A60026C8A4207D14F
:103600000268516803235B059943436C1943516079
:10361000818C090607D501684A680123DB04806CA8
:103620009A4302434A6010BDFEB507460025803725
:1036300004467D60FEF7A8FE0190206800682646DB
:1036400000076036002819DA27480090012100227F
:1036500049052046019B00F011F900280ED0EFF338
:103660001080012181F3108821680A6880239A4321
:103670000A6080F310882020E06729E02068006855
:10368000400728D5184800900121002289052046CE
:10369000019B00F0F3F800281DD0EFF3108001210A
:1036A00081F3108821680A68FF2321339A430A6056
:1036B00080F31088EFF31080012181F310882168D6
:1036C0008A68520852008A6080F31088202038608F
:1036D00035760320FEBD2020E067386025666566EC
:1036E00035760020FEBD0000FFFFFF0110B5EFF3AF
:1036F0001081012282F3108802681368FF242134AC
:10370000A343136081F31088EFF31081012282F349
:103710001088026893685B085B00936081F31088EF
:10372000016E01290BD1EFF31081012282F3108881
:10373000026813681024A343136081F310882022C9
:1037400080210A5000210166816610BD70B50446D3
:1037500080682169E2690843616900251143226894
:10376000084311683F4B19400143116021684868C4
:10377000032212039043E26810434860A169206A63
:10378000084321688A680B231B029A4302438A601C
:1037900035492068884210D13448006B8007800F7B
:1037A0000ED0012805D0022805D003280AD1022115
:1037B00009E0042107E0082105E02D49884201D1F4
:1037C000002100E010210120E369C003294A2A4EAC
:1037D000834222D1002906D0022907D0042907D02C
:1037E000082935D108E0FEF7FBFE03E0104603E0B0
:1037F000FEF706FF002830D0616840004A088018B4
:10380000FCF7F4FE01461039B14221D81A49491C8F
:1038100001400007400F08431DE0002906D002299F
:1038200007D0042907D0082912D108E0FEF7D8FEF6
:1038300003E0104603E0FEF7E3FE00280DD06168C8
:103840004A081018FCF7D2FE01461039B14201D9DE
:10385000012502E080B22168C8600020A066E06611
:10386000284670BDF369FFEF0038014000100240A8
:103870000044004000127A00EFFF0000FFB506464A
:1038800081B080360546044660350A9F2EE0781CDC
:103890002CD0FEF779FD0499401AB84214D8002FB5
:1038A00012D020680168490720D5C169C9430907BA
:1038B0000CD4082707622046FFF718FF7760002026
:1038C0002876012005B0F0BD0320FBE7C069C043A6
:1038D00000050BD401202168C00208622046FFF7D2
:1038E00005FF2020706000202876EDE72068C16980
:1038F0000298884305D0002103988142C7D0002058
:10390000E0E70121F8E7F8B5040C8BB2264682B255
:103910005E430D0C1046370C5843360480190021C5
:10392000794116466E43370C360480197941264694
:103930006E438919F8BD00004900CA020243100015
:1039400000D004204A0D01D001221043044A490D41
:10395000914201D102210843012800D1052070477E
:10396000FF0700008307FF22DB0E9A408907090E3C
:103970009940002808DB830809489B001B18186839
:1039800090430843186070470007000F0838830809
:1039900004489B001B18D86990430843D8617047BE
:1039A00000E400E000ED00E030380A2801D20120F8
:1039B00070470020704700000549401804D00128D6
:1039C00003D0022801D0081470470020704700007F
:1039D000FF7FFFFF0249401800D000207047000021
:1039E000FF7FFFFF0549401805D0012802D00228BB
:1039F00001D000207047012070470000FF7FFFFFCB
:103A000070B5114D040014D020783A2811D10FA1BF
:103A10002046FCF7A7FD00280DD00EA12046FCF79C
:103A2000A1FD002809D00DA12046FCF79BFD002830
:103A300006D0284670BD0B4870BD0A48401C70BDBA
:103A40000848801C70BD0000FFFFFFFF3A5354443C
:103A5000494E00003A5354444F5554003A5354448D
:103A600045525200018000000020C0437047000012
:103A700070B50D460C49144641180C4812D0012966
:103A800002D002290ED107E0002C0AD028786D1C44
:103A900000F06AFE641EF7E7002C02D000BE641E30
:103AA000FAE7002070BD0000FF7FFFFFFFFFFFFF70
:103AB00010B500F05BFE10BD4843101AC10F081886
:103AC000401000B2002800DA0020C0B270470000A9
:103AD00030B502460020084C0146012514234B4313
:103AE000E358934203D12B468B400343D8B2491C81
:103AF000C9B20329F2D330BD80030020034909680D
:103B00004A6A10184A6A8242FCD37047B002002009
:103B100070B505460C000CD00846FDF7A2F8024629
:103B20000B4600200E49FCF74FFEFCF70FFE642CFD
:103B300004D20CA12846FCF701FC70BD0A4988425A
:103B400005DBFDF791F80B46024608A104E0FDF7FE
:103B50008BF80B46024607A12846FCF7EFFB70BD29
:103B600080842E412D2D2D0000002041312F252E47
:103B700030660000312F252E3166000070B50446F6
:103B80001E481F4D0A4681420AD30846FDF769F8D0
:103B900000222B46FCF718FE0B46024619A10CE04A
:103BA0001A4882420DD30846FDF75BF800222B46E7
:103BB000FCF70AFE0B46024615A12046FCF7BEFBA9
:103BC00070BD15487D21C900824205D31046FCF71F
:103BD0000DFD024611A10DE08A420AD31046FDF701
:103BE00040F800220F4BFCF7EFFD0B4602460EA1FA
:103BF000E3E70FA12046FCF7A1FB70BD809698007B
:103C000080842E41252E31667300000040420F0053
:103C1000252E3266730000001027000025756D7395
:103C20000000000000408F40252E31666D730000BB
:103C3000257575730000000013B5642301226946E1
:103C40000248FFF7A1F900981CBD0000F80200200F
:103C5000FEF7E2FBFFF7E1FBFFF7F8F9FFF772FA77
:103C6000FFF7CAFAFFF794FA00F076FB3148FFF746
:103C7000CDF800F00FFD304C30A0A37862782178A9
:103C8000FCF74EFB00F022F92A4D354EE078002873
:103C900010D12868406A6169401A3249884209D9BE
:103CA0000020FFF715FF072804D1082000F018FCBA
:103CB0000120E0700A20FEF749FA00F043FDE078A9
:103CC000002811D00120FFF703FF002804D10220B3
:103CD000FFF7FEFE002807D02868406A6061FF20D9
:103CE00000F0FEFB0020E0700320FFF7F1FE00284B
:103CF00004D072B600F0D2F9304615E00420FFF788
:103D0000E7FE0028C2D02868476A04E00A20FEF7D0
:103D10001DFA00F017FD2868406AC01BB042F5D3B9
:103D200072B600F01DF91048FFF7E8FE00F0B2FC93
:103D300062B6ABE7B00200201800002050756C732B
:103D4000654850542064656B754E756B656D203207
:103D50003032332025642E25642E25640A000000AD
:103D600090D00300404B4C00400D03000922082175
:103D7000D206002802D09162022070479161012092
:103D800070470000FFB5074681B01D460E46002073
:103D900000F0D0FA01203F2200902023002110469D
:103DA00000F040FB3846FCF79BFBC0B240220721E5
:103DB000FFF782FE002100F09DFB404C012306CC62
:103DC0003846083C00F050FC0398FCF789FBC0B271
:103DD00040220721FFF770FE4030C0B2002100F002
:103DE00089FB06CC0123083C039800F03DFC3448D5
:103DF000F168FFF7C3FE3248F1682030FFF788FE14
:103E00002F48FCF76DFBC0B240220721FFF754FE9C
:103E10000B2100F06FFB06CC01232948083C00F081
:103E200023FC27482030FCF75BFBC0B2402207216F
:103E3000FFF742FE162100F05DFB214806CC01236E
:103E40002030083C00F010FC1D48E968FFF796FEA2
:103E50001B48E9682030FFF75BFE1948FCF740FB80
:103E6000C0B240220721FFF727FE4030C0B20B212D
:103E700000F040FB06CC01231148083C00F0F4FBA5
:103E80000F482030FCF72CFBC0B240220721FFF77F
:103E900013FE4030C0B2162100F02CFB084806CCBF
:103EA0000123203000F0E0FB00F03AFB05480068F9
:103EB000406A0549486105B0F0BD000008000020D7
:103EC000BC030020B00200201800002038B50020FC
:103ED00000F030FA174C2069FCF702FBC0B28022D8
:103EE0000B21FFF7E9FD002100F004FB124801233C
:103EF00006C8206900F0B8FB20211048FCF730FB11
:103F0000A0780090637822780DA10C48FCF716FA8F
:103F10001421002000F0EEFA0F48012306C80748DC
:103F200000F0A2FB00F0FCFA0C480068406A6061F7
:103F300038BD00001800002010000020BC03002045
:103F400050756C73654850542E636F6D2025642E38
:103F500025642E256400000008000020B002002027
:103F600010B50420FFF7B4FD154A1649012811D0F9
:103F70001431022810D00B461433042810D0032823
:103F800011D0052812D0062816D0072801D100F03C
:103F9000C1F810BD506800E0906800F021F810BD35
:103FA0001946D068F9E70B4607A200E007A20549C9
:103FB00009A0FFF7E7FE10BD04A203A0F9E7000087
:103FC0001800002080030020504300004C2053655F
:103FD0006E736F7200000000486F7453686F650065
:103FE00070B506460C46C868FF21F531884248D3B3
:103FF000002000F09FF93046FCF772FAC0B2802230
:104000000721FFF759FD002100F074FA1D4D01232F
:1040100006CD3046083D00F027FB1B48E168FFF75E
:10402000ADFD1948E1682030FFF772FD1648FCF736
:1040300057FA044614482030FCF752FA2018401C66
:10404000C0B280220B21FFF737FD0B2100F052FA9E
:104050000E4C0D4806CC01232030083C00F004FB38
:1040600006CD01230AA000F0FFFA06CC0123064882
:1040700000F0FAFA00F054FA06480068406A06496F
:10408000486170BD08000020BC0300201000002023
:1040900020000000B00200201800002010B5002011
:1040A00000F048F920211248FCF75AFA0A2211A11F
:1040B0000F48FCF743F90721002000F01BFA0F48D6
:1040C000012306C80EA000F0CFFA0B21502000F00B
:1040D00011FA0D48012306C8054800F0C5FA00F0A2
:1040E0001FFA0A480068406A0949486110BD00008B
:1040F000BC030020203E2564730000001000002057
:1041000054494D454F55540008000020B00200208E
:104110001800002038B5002000F00CF92A220721F1
:104120000220FFF7C9FC002100F0E4F96B4C0123E9
:1041300006CC6BA0083C00F097FA2A220721022047
:10414000FFF7BAFC2A30C0B2002100F0D3F906CC48
:10415000012364A0083C00F087FA2A2207210220EC
:10416000FFF7AAFC5430C0B2002100F0C3F906CC1E
:1041700001235DA0083C00F077FA5C4D28463C30F6
:10418000E968FFF7FBFC28465C30E968FFF7C0FCF4
:1041900028463C30FCF7A4F9C0B22A220721FFF7D9
:1041A0008BFC0B2100F0A6F906CC284601233C30FD
:1041B000083C00F059FA28465C30FCF791F9C0B28F
:1041C0002A220721FFF778FC162100F093F906CC8C
:1041D000284601235C30083C00F046FA28463C3073
:1041E000296AFFF7CBFC28465C30296AFFF790FC70
:1041F00028463C30FCF774F9C0B22A220721FFF7A9
:104200005BFC2A30C0B20B2100F074F906CC2846C2
:1042100001233C30083C00F027FA28465C30FCF7CC
:104220005FF9C0B22A220721FFF746FC2A30C0B24C
:10423000162100F05FF906CC284601235C30083CCB
:1042400000F012FA28463C30696BFFF797FC2846CD
:104250005C30696BFFF75CFC28463C30FCF740F9AA
:10426000C0B22A220721FFF727FC5430C0B20B212D
:1042700000F040F906CC284601233C30083C00F011
:10428000F3F928465C30FCF72BF9C0B22A2207214B
:10429000FFF712FC5430C0B2162100F02BF928466B
:1042A00006CC01235C3000F0DFF901242A22202310
:1042B00000211046009400F0B5F85522202300217B
:1042C0001046009400F0AEF800F02AF92846D038E5
:1042D0000068406A0649486138BD000008000020B7
:1042E00048530000504300004C530000800300205E
:1042F000180000200021016041608160C1600161FF
:104300007047000030B580280ED220290CD24D070E
:1043100001236D0FAB40C908054CC9010818215C89
:10432000012A02D09943215430BD1943FBE7000014
:104330004C00002010B50021064B0122520200283B
:1043400005D0FF245C54491C9142F8D310BD0024D1
:10435000F8E700004C00002010B500F0A5F864203C
:10436000FDF7F4FE002000F0CBF8202000F03EF92D
:10437000002000F03BF9B02000F038F9C02000F038
:1043800035F9002000F032F9102000F02FF940201C
:1043900000F02CF9FF2000F0A3F8A02000F026F98F
:1043A000A62000F023F9A82000F020F91F2000F03B
:1043B0001DF9A42000F01AF9D32000F017F900200D
:1043C00000F014F9D52000F011F9F02000F00EF9FA
:1043D000D92000F00BF9222000F008F9DA2000F0D3
:1043E00005F9022000F002F9DB2000F0FFF82020A0
:1043F00000F0FCF88D2000F0F9F8142000F0F6F839
:10440000012000F07DF80020FFF794FF00F088F80D
:1044100003480021018041800121017110BD00008D
:1044200000000020FFB584B0074606980E46C41B66
:1044300000D564420798801B00D5404200900020C0
:104440000699C0438F4201D2012100E00146039149
:1044500007998E4200D20120029000980D9A251AE9
:104460000698FFF74FFF00984042019013E0314655
:1044700038460D9AFFF746FF01996800884204DD2F
:1044800000996D1A03997918CFB2A04203DA029805
:104490002D193018C6B206988742E8D1079886428F
:1044A000E5D108B0F0BD000010B5012202210B4893
:1044B000FDF764FF0924E406002201212046FDF7F0
:1044C0005DFF0A20FDF742FE012211462046FDF75E
:1044D00055FF0A20FDF73AFE10BD00000014004809
:1044E00010B50446812000F081F8204600F07EF8E7
:1044F00010BD0000014A108051807047000000206C
:1045000010B50649002802D0AF20012201E0AE20FC
:1045100000224A7100F06AF810BD0000000000207F
:1045200070B50B4D00242046B030C0B200F05EF8EC
:10453000002000F05BF8102000F058F8E00140196E
:10454000802100F071F8641CE4B2042CEBD370BD40
:104550004C000020FFB582B00298203801905F28FF
:104560000BD221486A460188177BC919802904D8D3
:104570004088567B8019202802D9002006B0F0BD63
:10458000002526E001980499704340194000085A1C
:10459000002400901AE00098A040000408D51248BA
:1045A000059A8178007849190019C9B2C0B20AE0A9
:1045B0000598002815D000220B4881780078491909
:1045C0000019C9B2C0B2FFF79DFE641CA742E2D831
:1045D0006D1CAE42D6D804480188C91901800298E2
:1045E000CCE70122E8E700000000002031B50C4CC8
:1045F000002202212046FDF7C1FE092000220221EF
:10460000C006FDF7BBFE0023DB43012269460548D7
:10461000FEF7D2FA012202212046FDF7AFFE38BD97
:10462000001400484C02002070B50D4E0D460446A3
:10463000002202213046FDF7A1FE092001220221BD
:10464000C006FDF79BFE0023AAB2DB4321460548C6
:10465000FEF7B2FA012202213046FDF78FFE70BD4F
:10466000001400484C020020F0B51D460E461746C7
:1046700004460AE02B463A463146FFF76BFF2178A5
:10468000884201D0C8B2F0BD641C20780028F1D166
:10469000C0B2F0BD00B50648FFF72CFE0448143048
:1046A000FFF728FE02482830FFF724FE00BD000077
:1046B0008003002030B5026801241F4D002A0AD073
:1046C0002B461B68012A0DD0022A16D0012A0BD0D6
:1046D000022A14D02EE001292CD104602968496AED
:1046E000416027E0022902D0002910D022E00221F7
:1046F00001602968496A81601CE0012902D0002913
:104700000DD017E004600169491C016112E0596A8B
:104710004268891A094A91420CD9032109E05A6A70
:104720008168074B521A9A4204D94268891AC160BB
:1047300004210160007830BDB0020020809698000E
:1047400090D0030000B500210648FFF7B3FF0548ED
:1047500000211430FFF7AEFF024800212830FFF798
:10476000A9FF00BD800300200020704770470000B3
:1047700010B500290AD00878002807D005487844E9
:10478000FBF7F0FE002801D0002010BD024878445D
:1047900010BD0000AA160000A216000003B40248D3
:1047A0007844844603BC604767C7FFFF00000000F1
:1047B00000000000000000000000000000000000F9
:1047C0000010001000100010001000100000001079
:1047D0000000000000280028002800000000000061
:1047E000000000000000000000240024007C0024E1
:1047F0000048007C004800480000000000380054D9
:10480000005000380014005400540038001000001C
:104810000020005400580030002800540014000804
:10482000000000000010002800280010003400489C
:1048300000480034000000000010001000100000CC
:104840000000000000000000000000000008001050
:104850000020002000200020002000200010000880
:1048600000200010000800080008000800080008E8
:104870000010002000100038001000280000000088
:104880000000000000000000000000000010001008
:10489000007C00100010000000000000000000007C
:1048A00000000000000000000000001000100010D8
:1048B00000000000000000000000003800000000C0
:1048C00000000000000000000000000000000000E8
:1048D0000000001000000000000800080010001098
:1048E00000100010002000200000000000380044EC
:1048F000004400540044004400440038000000001C
:1049000000100030005000100010001000100010C7
:1049100000000000003800440044000400080010BB
:104920000020007C00000000003800440004001853
:1049300000040004004400380000000000080018D3
:10494000002800280048007C000800080000000043
:10495000007C00400040007800040004004400385F
:10496000000000000038004400400078004400448B
:104970000044003800000000007C00040008001023
:10498000001000200020002000000000003800443B
:104990000044003800440044004400380000000097
:1049A0000038004400440044003C00040044003847
:1049B00000000000000000000010000000000000E7
:1049C00000000010000000000000000000000010C7
:1049D00000000000000000100010001000000000A7
:1049E000000C003000400030000C0000000000000F
:1049F000000000000000007C0000007C00000000BF
:104A00000000000000000000006000180004001812
:104A100000600000000000000038004400040008AE
:104A200000100010000000100000000000380044DA
:104A3000004C0054005C00400040003800000000C2
:104A400000100028002800280028007C00440044B2
:104A50000000000000780044004400780044004456
:104A6000004400780000000000380044004000408E
:104A70000040004000440038000000000070004882
:104A8000004400440044004400480070000000005E
:104A9000007C00400040007C004000400040007C62
:104AA00000000000007C0040004000780040004012
:104AB000004000400000000000380044004000407A
:104AC000005C004400440038000000000044004442
:104AD0000044007C00440044004400440000000006
:104AE00000380010001000100010001000100038F6
:104AF000000000000004000400040004000400049E
:104B000000440038000000000044004800500060ED
:104B100000500048004800440000000000400040F1
:104B200000400040004000400040007C00000000C9
:104B30000044006C006C00540044004400440044F5
:104B40000000000000440064006400540054004C65
:104B5000004C0044000000000038004400440044C1
:104B60000044004400440038000000000078004485
:104B70000044004400780040004000400000000075
:104B8000003800440044004400440044005400380D
:104B9000000400000078004400440044007800480D
:104BA000004800440000000000380044004000308D
:104BB000000800040044003800000000007C0010E1
:104BC0000010001000100010001000100000000085
:104BD00000440044004400440044004400440038C1
:104BE0000000000000440044004400280028002881
:104BF0000010001000000000004400440054005465
:104C00000054006C00280028000000000044002828
:104C100000280010001000280028004400000000B8
:104C2000004400440028002800100010001000106C
:104C300000000000007C00040008001000100020AC
:104C40000040007C00000000001800100010001060
:104C500000100010001000100010001800200020AC
:104C600000100010001000100008000800000000F4
:104C70000030001000100010001000100010001094
:104C80000010003000100028002800440000000040
:104C90000000000000000000000000000000000014
:104CA0000000000000000000000000FE00200010D6
:104CB00000000000000000000000000000000000F4
:104CC0000000000000380044003C0044004C003468
:104CD0000000000000400040005800640044004410
:104CE000006400580000000000000000003800448C
:104CF00000400040004400380000000000040004B0
:104D00000034004C00440044004C0034000000001B
:104D10000000000000380044007C004000440038DF
:104D200000000000000C0010007C001000100010BB
:104D30000010001000000000000000000034004CD3
:104D400000440044004C003400040078004000405F
:104D50000058006400440044004400440000000087
:104D60000010000000700010001000100010001073
:104D70000000000000100000007000100010001083
:104D800000100010001000E00040004000480050FB
:104D90000060005000480044000000000070001057
:104DA00000100010001000100010001000000000A3
:104DB00000000000007800540054005400540054D7
:104DC000000000000000000000580064004400449F
:104DD00000440044000000000000000000380044CF
:104DE00000440044004400380000000000000000BF
:104DF0000058006400440044006400580040004033
:104E0000000000000034004C00440044004C00341A
:104E1000000400040000000000580064004000404E
:104E20000040004000000000000000000038004486
:104E3000003000080044003800000000002000207E
:104E40000078002000200020002000180000000052
:104E5000000000000044004400440044004C0034C2
:104E6000000000000000000000440044002800286A
:104E70000028001000000000000000000054005452
:104E80000054006C00280028000000000000000012
:104E9000004400280010001000280044000000001A
:104EA000000000000044004400280028001000100A
:104EB0000010006000000000007C000800100020CE
:104EC0000040007C000000000018001000100010DE
:104ED000002000200010001000100018001000102A
:104EE0000010001000100010001000100010001042
:104EF0000030001000100010000800080010001022
:104F0000001000300000000000000074004C0000A1
:104F10000000000000000000000000000000000091
:104F20000000000000000000000000000000000081
:104F30000000000000000000000000000000000C65
:104F4000000C000C000C000C000C000C000C000C01
:104F5000000C000C0000000C000C00000000000021
:104F60000000001B001B001B001B001B00000000BA
:104F70000000000000000000000000000000000031
:104F80000000000000008019801980198019C07F7E
:104F9000C07F80190033C07FC07F003300330033EF
:104FA00000330000000000000000001E003F80757C
:104FB00080650074003C001E0007800580658065E8
:104FC0008075003F001E0004000400000000007017
:104FD00000D840D8C0D880D900730006000C801BD0
:104FE000C036C066C046C006800300000000000056
:104FF0000000001E003F003300330033001E000C91
:10500000C03CC066806380618063C03E801C00003D
:10501000000000000000000C000C000C000C000C54
:105020000000000000000000000000000000000080
:1050300000000000000000008000000100030006E6
:1050400000060004000C000C000C000C000C000C0E
:10505000000400060006000300018000002000108C
:105060000018000C000C00040006000600060006F4
:10507000000600060004000C000C001800100020C0
:105080000000000C002D003F001E00330000000057
:105090000000000000000000000000000000000010
:1050A00000000000000000000000000C000C000CDC
:1050B000000CC0FFC0FF000C000C000C000C000036
:1050C00000000000000000000000000000000000E0
:1050D00000000000000000000000000000000000D0
:1050E0000000000C000C0004000400080000000098
:1050F0000000000000000000000000000000001E92
:10510000001E000000000000000000000000000081
:10511000000000000000000000000000000000008F
:1051200000000000000000000000000C000C000067
:10513000000000000000000300030003000600065A
:1051400000060006000C000C000C000C00180018F3
:1051500000180000000000000000001E003F0033A7
:10516000806180618061806D806D8061806180611F
:105170000033003F001E0000000000000000000699
:10518000000E001E0036002600060006000600067F
:1051900000060006000600060006000000000000F1
:1051A0000000001E003F8073806180618001000369
:1051B0000006000C001800300060807F807F000037
:1051C000000000000000001C003E006300630003BC
:1051D000000E000E00038001800180618073003F9B
:1051E000001E00000000000000000006000E000E7F
:1051F000001E001E0016003600360066807F807F8D
:105200000006000600060000000000000000007F0D
:10521000007F006000600060006E007F806380019E
:10522000800180618073003F001E000000000000CC
:105230000000001E003F803380610060006E007F30
:1052400080738061806180618033003F001E0000B8
:10525000000000000000807F807F800100030003C9
:1052600000060006000C000C000C000800180018D6
:1052700000180000000000000000001E003F8063D6
:10528000806180610021001E003F8061806180613B
:105290008061003F001E0000000000000000001EB2
:1052A000003F00738061806180618073803F801D5A
:1052B000800180610073003F001E000000000000BC
:1052C00000000000000000000000000C000C0000C6
:1052D00000000000000000000000000C000C0000B6
:1052E00000000000000000000000000000000000BE
:1052F000000C000C00000000000000000000000C8A
:10530000000C000400040008000000000000000081
:1053100080008003000E003800600038000E80031B
:1053200080000000000000000000000000000000FD
:10533000000000000000807F807F00000000807F70
:10534000807F00000000000000000000000000005E
:10535000000000000000000000400070001C00077A
:1053600080010007001C00700040000000000000E9
:10537000000000000000001F803FC071C060C0003E
:10538000C00180030007000E000C000C0000000CA0
:10539000000C0000000000000000001E003F8031F3
:1053A00080718063806F806D806D806F806700602A
:1053B0000032003E001C0000000000000000000E53
:1053C000000E001B001B001B001B80318031803F42
:1053D000803F8031C060C060C060000000000000FD
:1053E0000000007C007E0063006300630063007EB9
:1053F000007E0063806180618063007F007E00002A
:10540000000000000000001E003F8031806100604D
:105410000060006000600060006080618031003FDB
:10542000001E0000000000000000007C007F006300
:1054300080638061806180618061806180610063E0
:105440000063007E007C0000000000000000807F00
:10545000807F0060006000600060007F007F00606F
:10546000006000600060807F807F0000000000001E
:105470000000807F807F0060006000600060007F2F
:10548000007F00600060006000600060006000005D
:10549000000000000000001E003F803180610060BD
:1054A0000060006080638063806180618031803F44
:1054B000001E00000000000000008061806180612B
:1054C000806180618061807F807F80618061806198
:1054D0008061806180610000000000000000003FEA
:1054E000003F000C000C000C000C000C000C000C29
:1054F000000C000C000C003F003F0000000000000A
:105500000000800180018001800180018001800114
:1055100080018001806180618073003F001E000077
:10552000000000000000C06080610063006600664B
:10553000006C0078007C006600660063806180611A
:10554000C06000000000000000000060006000601B
:10555000006000600060006000600060006000604B
:105560000060807F807F0000000000000000C071AC
:10557000C071C07BC07AC06AC06AC06EC064C060BF
:10558000C060C060C060C060C0600000000000007B
:10559000000080718071807980798079806D806D64
:1055A000806D8065806780678067806380630000AE
:1055B000000000000000001E003F00338061806199
:1055C0008061806180618061806180610033003F23
:1055D000001E0000000000000000007E007F8063CD
:1055E0008061806180618063007F007E0060006078
:1055F0000060006000600000000000000000001E6D
:10560000003F0033806180618061806180618061E2
:10561000806580670033803F401E0000000000006E
:105620000000007E007F8063806180618063007F76
:10563000007E00660063006380618061C0600000DE
:10564000000000000000000E001F8031803100309B
:105650000038001E00078003806180618031003FB8
:10566000001E0000000000000000C0FFC0FF000C92
:10567000000C000C000C000C000C000C000C000CCA
:10568000000C000C000C0000000000000000806115
:105690008061806180618061806180618061806102
:1056A000806180618073003F001E000000000000E8
:1056B0000000C060C060C060803180318031001B5C
:1056C000001B001B001B000E000E000E000400005B
:1056D000000000000000C0C0C0C0C0C0C0C0C0C04A
:1056E000C0CC804C804C805E805280528073806140
:1056F00080610000000000000000C0C08060806188
:105700000033003B001E000C000C001E001F003B7D
:1057100080718061C0C00000000000000000C0C0B7
:105720008061806100330033001E001E000C000CFD
:10573000000C000C000C000C000C0000000000002D
:105740000000803F803F8001000300030006000C42
:10575000000C0018001800300060807F807F00007F
:1057600000000000000F000F000C000C000C000CEB
:10577000000C000C000C000C000C000C000C000CC9
:10578000000C000C000F000F00000018001800189B
:10579000000C000C000C000C0006000600060006C1
:1057A000000300030003000000000000001E001EB4
:1057B00000060006000600060006000600060006B9
:1057C000000600060006000600060006001E001E79
:1057D0000000000C000C001E00120033003380613A
:1057E00080610000000000000000000000000000D8
:1057F00000000000000000000000000000000000A9
:105800000000000000000000000000000000000098
:1058100000000000E0FF0000000000380018000C4D
:105820000000000000000000000000000000000078
:105830000000000000000000000000000000000068
:10584000000000000000001F803F80618001801F79
:10585000803F80618063807FC038000000000000CE
:1058600000000060006000600060006E007F8073D8
:1058700080618061806180618073007F006E0000C4
:105880000000000000000000000000000000001EFA
:10589000003F807380610060006080618073003F22
:1058A000001E000000000000000080018001800157
:1058B0008001801D803F8073806180618061806194
:1058C0008073803F801D0000000000000000000089
:1058D000000000000000001E003F00738061807F18
:1058E000807F00608071003F001E0000000000000B
:1058F0000000C007C00F000C000C807F807F000CF0
:10590000000C000C000C000C000C000C000C000043
:10591000000000000000000000000000801D803F2B
:10592000807380618061806180618073803F801DB1
:1059300080018063007F003E000000600060006026
:105940000060006F807F8071806180618061806114
:10595000806180618061000000000000000000069E
:10596000000600000000003E003E000600060006A3
:105970000006000600060006000600000000000009
:105980000006000600000000003E003E0006000683
:105990000006000600060006000600060006004697
:1059A000007E003C000000600060006000608061DC
:1059B00000630066006C007C007600630063806119
:1059C000C0600000000000000000003E003E000635
:1059D0000006000600060006000600060006000697
:1059E00000060006000600000000000000000000A5
:1059F00000000000000080DDC0FFC0CEC0CCC0CCE5
:105A0000C0CCC0CCC0CCC0CCC0CC000000000000DA
:105A100000000000000000000000006F807F807127
:105A2000806180618061806180618061806100004F
:105A30000000000000000000000000000000001E48
:105A4000003F807380618061806180618073003F6E
:105A5000001E000000000000000000000000000028
:105A6000006E007F807380618061806180618073DF
:105A7000007F006E006000600060006000000000B9
:105A800000000000801D803F807380618061806124
:105A900080618073803F801D8001800180018001D2
:105AA000000000000000000000000067803F003997
:105AB0000030003000300030003000300030000096
:105AC0000000000000000000000000000000001EB8
:105AD000803F80610060007F803F80018061007FA7
